:020000040800F2
:10000000903A01201D030008512A0008C31F000870
:100010004D2A0008550900082D3600080000000090
:100020000000000000000000000000003D02000889
:100030005909000800000000990200084F2D00082F
:1000400037030008370300083703000837030008A8
:100050003703000837030008370300083703000898
:100060003703000837030008370300083703000888
:100070003703000837030008370300083703000878
:100080003703000837030008370300083703000868
:100090003703000837030008370300083703000858
:1000A0003703000837030008370300083703000848
:1000B0003703000837030008370300083703000838
:1000C0003703000837030008370300083703000828
:1000D00037030008DD350008370300083703000840
:1000E0005D090008370300083703000837030008DC
:1000F00037030008370300083703000837030008F8
:1001000037030008370300083703000837030008E7
:1001100037030008370300083703000837030008D7
:1001200037030008370300083703000837030008C7
:1001300037030008370300083703000837030008B7
:1001400037030008370300083703000837030008A7
:100150003703000837030008370300083703000897
:100160003703000837030008370300083703000887
:1001700037030008370300080000000000000000FB
:10018000370300083703000800F002F800F047F8D2
:100190000AA090E8000C82448344AAF10107DA45E2
:1001A00001D100F03CF8AFF2090EBAE80F0013F0ED
:1001B000010F18BFFB1A43F001031847C0400100AC
:1001C000E0400100103A24BF78C878C1FAD852073D
:1001D00024BF30C830C144BF04680C6070470000C1
:1001E0000023002400250026103A28BF78C1FBD840
:1001F000520728BF30C148BF0B607047642900F028
:100200005B81782900F09481732900F01C83002021
:1002100070471FB505F031FD1FBD10B510BD00F0D2
:1002200067FB1146FFF7F5FF03F0EEFA00F085FBE0
:1002300003B4FFF7F2FF03BC03F0FAF92C4B196883
:10024000086800F05AB880F30988BFF36F8F4FF049
:10025000000080F311887047000000000848006823
:10026000006880F308884FF0000080F3148862B6BD
:1002700061B6BFF34F8FBFF36F8F00DF00BF00BFCA
:1002800008ED00E0DFF80C00016841F47001016046
:10029000704700BF88ED00E0EFF30980BFF36F8F78
:1002A000134B1A681EF0100F08BF20ED108A20E9CA
:1002B000F04F106009B44FF0500080F31188BFF385
:1002C0004F8FBFF36F8F04F013FE4FF0000080F3E9
:1002D000118809BC1968086800F014B81EF0100FE6
:1002E00008BF00F014B880F30988BFF36F8F704720
:1002F0005C000020EFF30580704730C8B0E8C04FC5
:10030000FFF7A1BF30C8B0E8C04FFFF7E7BFB0ECC0
:10031000088AB0EC08CAFFF7E6BF0000094880472A
:1003200009480047FEE7FEE7FEE7FEE7FEE7FEE7D7
:10033000FEE7FEE7FEE7FEE704480549054A064BEF
:1003400070470000F12D0008890100089034012059
:10035000903A01209036012090360120704753EAF0
:10036000020C00F069802DE9F04B4FF00006002BE5
:100370001FBFB3FA83F503FA05F424FA05F65E40CD
:1003800012BF1643B2FA82F502FA05F4C5F1200550
:100390001EBF22FA05FC44EA0C04203556EA044C40
:1003A0004FEA144418BF641C4FF000084FF00009D6
:1003B000904271EB030C39D3002919BFB1FA81F7D0
:1003C00001FA07F6B0FA80F700FA07F6C7F120073E
:1003D0001EBF20FA07FC46EA0C062037B6FBF4FCE9
:1003E000A7EB0507103F07F01F0BCBF120060CFA17
:1003F0000BFB2CFA06F644BFB3460026202FA4BF01
:100400005E464FF0000B5BEA060C08BF4FF0010B95
:1004100019EB0B09ABFB027C48EB0608C01B06FB83
:1004200002CC0BFB03CC71EB0C01C1E70B4602467F
:1004300041464846BDE8F08B13B54FF000004FF041
:100440000001AFF30080BDE81C4070470FB40449C1
:1004500010B503AA029800F0FBF910BC5DF814FB7C
:100460005000002070B50C460546012A05D02878BA
:10047000800600D5EA69002302E0012305E05B1C49
:10048000934202D2E05C0028F9D1A869E618C01AAC
:10049000A861286A184428622846AFF3008004E067
:1004A000D5E9012114F8010B9047B442F8D328464E
:1004B000AFF3008070BD00002DE9F0410646002436
:1004C00010687529314616A510D0AFF300800028BA
:1004D00002DA404213A507E031688A0701D512A568
:1004E00002E0490704D511A5012401E0AFF3008023
:1004F00000210A2206F1240709E0B0FBF2FCB0FB60
:10050000F2F302FB1C00303078541846491C0028D6
:10051000F3D123462A463046BDE8F04100F028B921
:10052000000000002D0000002B0000002000000053
:1005300070B504460D4621461068AFF3008021884F
:10054000090502D50F4A7A4402E00E4A7A440E3277
:10055000002104F1240305E000F00F060009965D78
:100560005E54491C0028F7D120780023000704D5E9
:10057000702D02D009B1022311322046BDE870402F
:1005800000F0F6B8F63C01002DE9F0410F460446B4
:100590000020DFF88480F84420622046E168884724
:1005A00090B3252806D0D4E901219047206A401C49
:1005B0002062F2E700252046E168884720280646A9
:1005C00008DB312E06D208EB060010F8200C08B12B
:1005D0000543F0E7A80701D525F00405A6B1A6F16B
:1005E0004100192802D8203645F400653A463146C4
:1005F00020462560FFF702FE48B1012805D0FF1D07
:1006000027F007070837C8E703E03F1DC5E7304676
:10061000C9E7206ABDE8F081CE3C0100032A40F220
:10062000308010F0030C00F0158011F8013BBCF194
:10063000020F624498BF11F801CB00F8013B38BFAC
:1006400011F8013BA2F1040298BF00F801CB38BFBA
:1006500000F8013B11F0030300F02580083AC0F0D8
:10066000088051F8043B083A51F804CBA0E8081080
:10067000F5E7121D5CBF51F8043B40F8043BAFF3B3
:100680000080D20724BF11F8013B11F801CB48BF0D
:1006900011F8012B24BF00F8013B00F801CB48BF43
:1006A00000F8012B704710B5203AC0F00B80B1E87C
:1006B0001850203AA0E81850B1E81850A0E8185097
:1006C000BFF4F5AF5FEA027C24BFB1E81850A0E8A0
:1006D000185044BF18C918C0BDE810405FEA827CBA
:1006E00024BF51F8043B40F8043B08BF7047D207D1
:1006F00028BF31F8023B48BF11F8012B28BF20F872
:10070000023B48BF00F8012B704702F0FF0343EAA9
:10071000032242EA024200F0AFB84FF0000200B5F7
:10072000134694469646203922BFA0E80C50A0E814
:100730000C50B1F12001BFF4F7AF090728BFA0E8C2
:100740000C5048BF0CC05DF804EB890028BF40F88E
:10075000042B08BF704748BF20F8022B11F0804FD0
:1007600018BF00F8012B70477047704770477047FB
:100770002DE9F0470D4699469246044600F12408BB
:100780000168880604D5E06921F01001216000E0CD
:100790000120A84201DD471B00E00027A1697A196A
:1007A00002EB0900081AA0612078C00602D4204696
:1007B000AFF30080002608E0D4E901211AF8060012
:1007C0009047206A401C761C20624E45F4DB20785E
:1007D000C0060AD52046AFF3008006E0D4E9012127
:1007E00030209047206A401C2062381EA7F1010784
:1007F000F4DC07E0D4E9012118F805009047206AED
:10080000401C2062281EA5F10105F3DC2046AFF351
:1008100000802078000602D50220BDE8F087012084
:10082000FBE710B5436913B1AFF3008001E0FFF7B8
:1008300019FE012010BD127800F124010A70002277
:100840004A700122EDE711684FF0FF32E9E700003E
:10085000074B70B50D467B4400F033F8044628463C
:1008600000F042F810B14FF0FF3070BD204670BD6F
:10087000BF2E00004FF000020429C0F0128010F0DB
:10088000030C3FF44CAFCCF1040CBCF1020F18BFC9
:1008900000F8012BA8BF20F8022BA1EB0C01FFF7F9
:1008A0003EBF5FEAC17C24BF00F8012B00F8012B9A
:1008B00048BF00F8012B704701694A1C02610878A3
:1008C000704700B58FB0CDE9013100210591054990
:1008D0007944CDE9031011466846FFF755FE0FB085
:1008E00000BD0000E5FFFFFF007B00F080007047C7
:1008F000754600F02BF8AE4605006946534620F0D9
:100900000700854618B020B5FFF716FDBDE820406A
:100910004FF000064FF000074FF000084FF0000BBB
:1009200021F00701AC46ACE8C009ACE8C009ACE86E
:10093000C009ACE8C0098D46704710B50446AFF356
:1009400000802046BDE81040FFF772BC00487047A9
:100950002C34012000BFFEE77047000010B504A052
:10096000FFF774FD4FF4806000F0BAF810BD00008E
:100970004558544931355F31305F49525148616EB5
:10098000646C65720D0A000000B587B000BF1048A6
:10099000C06C40F008000E49C8640846C06C00F006
:1009A0000800019000BF00BF08150290094803909D
:1009B0000120049002A9084800F0A0F800220621B6
:1009C000282000F0F3F9282000F0E3F907B000BD7B
:1009D0000010024000002110000C004870B50446D1
:1009E000002594F82500022803D00420E0630125A7
:1009F00020E02068006820F00E0021680860206870
:100A0000006820F001002168086094F8440000F0BC
:100A10001C0101208840216C4860012084F82500D9
:100A200000BF002084F8240000BFA06B10B1204656
:100A3000A16B8847284670BD70B50546322002F08C
:100A40005FFEB5F5806F22D14FF48061134800F04E
:100A500057F9D8B912A0FFF7F9FC1448006805F05F
:100A600041F80446012C0AD111A0FFF7EFFC34B184
:100A7000200713490860BFF34F8FBFF36F8F8021AA
:100A8000104800F045F910A0FFF7E0FC00E000BFBF
:100A900000BF4FF480601149086070BD000C004831
:100AA0004B455930203D3D20300D0A000C00002000
:100AB000526573756D65205461736B320D0A0000C9
:100AC00004ED00E0001000484C45445F525F546F55
:100AD00067676C6550696E0D0A00000014040140E0
:100AE00010B5044604480068204020B10248046064
:100AF0002046FFF7A1FF10BD1404014078B503465E
:100B00000022E5E0012696400D6805EA0604002C67
:100B10007DD04D68022D02D04D68122D13D1D6081C
:100B200003F1200555F826005507EE0E0F25B540B8
:100B3000A8435607F60E0D69B5402843D60803F1C1
:100B4000200545F82600186856000325B540A8433F
:100B50000D7905F003055600B540284318604D682F
:100B6000012D08D04D68022D05D04D68112D02D001
:100B70004D68122D13D1986856000325B540A8433F
:100B80005600CD68B54028439860586801259540C7
:100B9000A8430D79C5F300159540284358600D7999
:100BA00005F00305032D09D1D86A01259540A84316
:100BB0000D79C5F3C00595402843D862D868560022
:100BC0000325B540A84356008D68B5402843D8603A
:100BD0004D6805F08055B5F1805F78D100BF3F4D7D
:100BE0002D6E45F001053D4E356635462D6E05F0FE
:100BF0000105009500BF00BF4FEAB635960855F8CD
:100C0000260095072E0F0F25B540A84300E05EE0B3
:100C1000B3F1904F01D100251EE0314DAB4201D11F
:100C2000012519E02F4DAB4201D1022514E02E4DD4
:100C3000AB4201D103250FE02C4DAB4201D104257D
:100C40000AE02B4DAB4201D1052505E0294DAB4211
:100C500001D1062500E007259607360FB540284349
:100C6000254D960845F82600244D2868A0434D6878
:100C700005F48035B5F5803F00D120431F4D286035
:100C80002D1D2868A0434D6805F40035B5F5003FDB
:100C900000D12043194D2D1D28602D1D2868A0432B
:100CA0004D6805F48015B5F5801F00D12043134D24
:100CB000083528602D1D2868A0434D6805F40015EF
:100CC000B5F5001F00D120430C4D0C352860521C97
:100CD0000D68D540002D7FF415AF78BD001002409F
:100CE0000004004800080048000C004800100048BC
:100CF00000140048001800480800014000040140AA
:100D0000024613690B400BB1012000E00020704740
:100D100042694A40426170470AB1816100E08162E4
:100D2000704700000148006870470000580000202C
:100D300002480068401C01490860704758000020C4
:100D400010B50024032000F073F80F2000F008F81D
:100D500008B1012401E000F01BF8204610BD00009E
:100D600070B504460025094800684FF47A71B0FB5D
:100D7000F1F6304600F000FF08B1012504E0002242
:100D80002146501E00F012F8284670BD4400002095
:100D9000704700BF00F01F020121914042099200FC
:100DA00002F1E022C2F8001100BF70472DE9F05FA8
:100DB00080460D461646002701F04CFE0746394690
:100DC0002A46334601F00700C0F1070ABAF1040FC2
:100DD00002D94FF0040A01E0C0F1070AD14600F140
:100DE000040ABAF1070F02D24FF0000A01E0A0F1A5
:100DF000030AD4464FF0010A0AFA09FAAAF1010AD5
:100E00000AEA020A0AFA0CFA4FF0010B0BFA0CFB81
:100E1000ABF1010B0BEA030B4AEA0B0421464046F7
:100E200001F020FE00F000B830BCBDE8C09F00001B
:100E300000BF00F00702064B19684FF6FF03194088
:100E4000044B0B4343EA0221014B196000BF70477A
:100E50000CED00E00000FA050246B2F5007F2AD151
:100E60001D48006800F4C060B0F5007F32D01A4819
:100E7000006820F4C06040F40070174B18601748F9
:100E8000006832235843164BB0FBF3F0411C00E0DE
:100E9000491E1148406900F48060B0F5806F01D1AF
:100EA0000029F5D10C48406900F48060B0F5806FEE
:100EB00010D1032070470848006800F4C060B0F506
:100EC000806F07D00448006820F4C06040F4806060
:100ED000014B18600020EDE7007000404400002046
:100EE00040420F000248006800F4C06070470000F4
:100EF000007000402DE9F04104460D4614B9012070
:100F0000BDE8F0815548006800F00700A8420ED205
:100F10005248006820F007002843504908600846FE
:100F2000006800F00700A84201D00120E8E720781F
:100F300000F00100002840D06068032806D148482E
:100F4000006800F00070D8B90120D9E76068022875
:100F500006D14348006800F4003088B90120CFE78B
:100F6000606830B93E48006800F0020040B90120D6
:100F7000C6E73B48006800F4806008B90120BFE77D
:100F80003748806820F0030061680843344988606E
:100F9000FFF7C8FE064608E0FFF7C4FE801B41F2DB
:100FA0008831884201D90320AAE72D48806800F0E3
:100FB0000C006168B0EB810FEED1207800F00200E8
:100FC000022807D12648806820F0F000A168084375
:100FD000234988602148006800F00700A8420ED924
:100FE0001E48006820F0070028431C490860084696
:100FF000006800F00700A84201D0012080E72078B7
:1010000000F00400042807D11548806820F4E0604F
:10101000E168084312498860207800F00800082839
:1010200008D10F48806820F46050216940EAC1006F
:101030000B49886000F044F809498968C1F303113D
:10104000084A515C01F01F01C840074908600F20A1
:10105000FFF786FE0746384652E7000000200240B0
:1010600000100240845C0008440000200148006831
:10107000704700004400002000B5FFF7F7FF054966
:101080008968C1F30221044A515C01F01F01C84084
:1010900000BD000000100240945C000800B5FFF79E
:1010A000E5FF05498968C1F3C221044A515C01F09A
:1010B0001F01C84000BD000000100240945C000801
:1010C0002DE9F04100240020DFF800C1DCF808C061
:1010D0000CF00C01DFF8F4C0DCF80CC00CF00307D6
:1010E00019B10C291ED1012F1CD1DFF8E0C0DCF8AA
:1010F00000C00CF0080CBCF1000F06D1DFF8CCC02A
:10110000DCF894C0CCF3032405E0DFF8C0C0DCF8C1
:1011100000C0CCF30314DFF8B8C05CF8244041B938
:10112000204606E0042901D12A4802E0082900D11E
:1011300029480C2947D1DFF894C0DCF80CC00CF02A
:101140000305DFF888C0DCF80CC0CCF3021C0CF1FE
:101150000103012D1FD0022D02D0032D1AD10CE066
:10116000DFF870C0BCFBF3FCDFF86080D8F80C80BF
:10117000C8F306280CFB08F218E0DFF85CC0BCFBE3
:10118000F3FCDFF84880D8F80C80C8F306280CFB85
:1011900008F20BE000BFB4FBF3FCDFF83080D8F8B6
:1011A0000C80C8F306280CFB08F200BF00BFDFF874
:1011B0001CC0DCF80CC0CCF3416C0CF1010C4FEA04
:1011C0004C06B2FBF6F0BDE8F081000000100240D2
:1011D0009C5C00080024F40000127A002DE9F8431A
:1011E000044614B90120BDE8F883F848806800F08F
:1011F0000C06F648C06800F00307207800F01000E5
:10120000102875D11EB10C2E74D1012F72D1EF4868
:10121000006800F0020018B1A06908B90120E2E7F7
:10122000EA48216A006800F0080020B1E748006839
:1012300000F0F00005E0E5489430006800F47060CC
:10124000000981421FD9206A01F020FC08B1012069
:10125000C9E700BFDD48006840F00800DB490860CE
:101260000846006820F0F000216A0843D74908606A
:1012700000BF0846406820F47F40E16940EA012051
:10128000D24948601EE000BFD048006840F0080026
:10129000CE4908600846006820F0F000216A084343
:1012A000CA49086000BF0846406820F47F40E169F1
:1012B00040EA0120C5494860206A01F0E7FB08B117
:1012C000012090E7FFF7FCFEC0498968C1F30311D4
:1012D000BF4A515C01F01F01C840BE4908600F20A1
:1012E000FFF73EFD8046B8F1000F4ED040467AE74A
:1012F0004BE0FFE7A06980B3B448006840F001000C
:10130000B2490860FFF70EFD054606E0FFF70AFD4B
:10131000401B022801D9032065E7AC48006800F0B3
:1013200002000028F2D000BFA848006840F0080082
:10133000A64908600846006820F0F000216A0843CA
:10134000A249086000BF0846406820F47F40E16978
:1013500040EA01209D49486017E0FFE79B4800688C
:1013600020F0010099490860FFF7DCFC054606E023
:10137000FFF7D8FC401B022801D9032033E793482C
:10138000006800F002000028F2D1207800F001008F
:1013900000285CD0082E03D00C2E0AD1032F08D1D0
:1013A0008A48006800F4003088B3606878BB012088
:1013B00019E700BF6068B0F5803F06D18348006838
:1013C00040F48030814908601AE06068B0F5A02FD1
:1013D0000BD17E48006840F480207C4908600846B4
:1013E000006840F4803008600AE07848006820F423
:1013F0008030764908600846006820F48020086044
:1014000000BF606890B1FFF78DFC054607E01EE065
:10141000FFF788FC401B642801D90320E3E66B48F2
:10142000006800F400300028F2D010E0FFF77AFCEA
:10143000054606E0FFF776FC401B642801D903202F
:10144000D1E66248006800F400300028F2D120782C
:1014500000F00200022852D1042E03D00C2E14D129
:10146000022F12D15948006800F4806018B1E0687A
:1014700008B90120B7E65548406820F0F850217CB3
:1014800040EA01605149486039E0E06800B34F48E4
:10149000006840F480704D490860FFF743FC054642
:1014A00006E0FFF73FFC401B022801D903209AE623
:1014B0004648006800F480600028F2D04348406845
:1014C00020F0F850217C40EA01604049486016E075
:1014D0003E48006820F480703C490860FFF722FC19
:1014E000054606E0FFF71EFC401B022801D9032039
:1014F00079E63648006800F480600028F2D1207850
:1015000000F00800082836D16069D0B12F48943027
:10151000006840F001002D49C1F89400FFF702FC7B
:10152000054606E0FFF7FEFB401B022801D9032019
:1015300059E626489430006800F002000028F1D0F7
:1015400019E022489430006820F001001F49C1F8DA
:101550009400FFF7E7FB054606E0FFF7E3FB401BBF
:10156000022801D903203EE618489430006800F0B4
:1015700002000028F1D1207800F00400042870D186
:101580004FF000091148806D00F0805078B900BF1D
:101590000E48806D40F080500C4988650846806D8B
:1015A00000F08050009000BF00BF4FF001090A48D2
:1015B000006800F48070F0B90748006840F480705B
:1015C00005490860FFF7AEFB05460EE0001002403B
:1015D000845C00084400002000700040FFF7A2FB7C
:1015E000401B022801D90320FDE57C48006800F477
:1015F00080700028F2D000BFA068012808D1784888
:10160000006840F0010076499039C1F8900021E06F
:10161000A06805280FD17248006840F004007049A6
:101620009039C1F890000846D0F8900040F00100D1
:10163000C1F890000EE06A48006820F00100684997
:101640009039C1F890000846D0F8900020F00400CE
:10165000C1F8900000BFA068A0B1FFF763FB05468A
:1016600009E02EE0FFF75EFB401B41F28831884223
:1016700001D90320B7E55A48006800F002000028AD
:10168000F0D012E0FFF74EFB054608E0FFF74AFBFB
:10169000401B41F28831884201D90320A3E550481C
:1016A000006800F002000028F0D1B9F1010F07D165
:1016B0004B489038806D20F08050494990398865BA
:1016C00000BFA06AF0B30C2E74D0A06A022853D1D8
:1016D00043489038006820F0807041499039086094
:1016E000FFF720FB054606E0FFF71CFB401B022826
:1016F00001D9032077E53A489038006800F000707F
:101700000028F1D1206B401E0101606B41EA0021ED
:10171000A06B000941EA4040E16A0843A18F012221
:10172000C2EB510140EA41514020005DC2EB500044
:1017300041EA40602A499039C8600846006840F094
:10174000807000E048E008600846C06840F08070A3
:10175000C860FFF7E7FA054606E0FFF7E3FA401B2B
:10176000022801D903203EE51D489038006800F0AA
:1017700000700028F1D02FE019489038006820F060
:1017800080701749903908600846006800F02050C2
:1017900020B90846C06820F00300C860104890389F
:1017A000C068104908400E499039C860FFF7BAFA7E
:1017B000054607E00EE0FFF7B5FA401B022801D905
:1017C000032010E506489038006800F000700028FB
:1017D000F1D101E0012006E5002004E500700040A1
:1017E00090100240FFFFEEFE70B504460CB90120D8
:1017F00070BD606A00B900BFA06AB0F5005F00D19B
:1018000000BF94F85D0028B9002084F85C002046F1
:1018100000F05EF8022084F85D002068006820F087
:10182000400021680860E068B0F5E06F01D900254C
:1018300001E04FF48055E068B0F5706F05D0E068C6
:10184000B0F5E06F01D00021A162206B40B9E068E3
:10185000B0F5E06F02D90221216301E0012121638B
:10186000D4E9010108432169084361690843218BD8
:1018700001F400710843E1690843216A0843A16A41
:10188000084321680860206B022805D120680068A1
:1018900040F40060216808600421A06901EA10405A
:1018A000616A0843616B0843E16808432843216883
:1018B0004860A06AB0F5005F02D12168E06A086163
:1018C00000202066012084F85D00002090E70000E1
:1018D00010B586B0044600BF1448C06C40F002004A
:1018E0001249C8640846C06C00F00200009000BFB6
:1018F00000BF00BF0846806D40F400408865084680
:10190000806D00F40040009000BF00BF28200190CF
:1019100002200290012003900320049006200590ED
:1019200001A90348FFF7EAF806B010BD0010024015
:10193000000400482DE9F84F0446884616461D4627
:101940004FF0000A00BF94F85C00012802D1022089
:1019500000F0FBB8012084F85C0000BFFFF7E2F95B
:101960000746B14694F85D00012802D04FF0020A04
:10197000E1E0B8F1000F00D016B94FF0010ADAE04B
:10198000032084F85D0000202066C4F83880A68714
:10199000E6872064A4F84400A4F846002065E064CB
:1019A000A068B0F5004F05D12068006840F4804081
:1019B00021680860A06AB0F5005F0DD100BF206803
:1019C000006820F40050216808602068006840F436
:1019D00000502168086000BF2068006800F04000E7
:1019E000402805D02068006840F040002168086069
:1019F000E068B0F5E06F2FD9606810B1B9F1010F60
:101A000009D1A06B00882168C860A06B801CA0630E
:101A1000E08F401EE0871BE02068806800F0020035
:101A200002280AD1A06B00882168C860A06B801CC6
:101A3000A063E08F401EE0870AE0FFF773F9C01B48
:101A4000A84201D3681C00B915B94FF0030A72E02F
:101A5000E08F0028E0D14AE0606810B1B9F1010FD1
:101A600017D1E08F01280AD9A06B00882168C860CF
:101A7000A06B801CA063E08F801EE08709E0A06B54
:101A8000007821680873A06B401CA063E08F401EA3
:101A9000E08729E02068806800F00200022818D161
:101AA000E08F01280AD9A06B00882168C860A06B6C
:101AB000801CA063E08F801EE08715E0A06B00789B
:101AC00021680873A06B401CA063E08F401EE08774
:101AD0000AE0FFF727F9C01BA84201D3681C00B930
:101AE00015B94FF0030A26E0E08F0028D2D1A06A92
:101AF000B0F5005F05D12068006840F4805021688F
:101B000008603A462946204601F046F808B12020F0
:101B10002066A06850B900BF002000902068C0680F
:101B2000009020688068009000BF00BF206E08B160
:101B30004FF0010A00BF012084F85D0000BF0020C3
:101B400084F85C0000BF504602E718BCBDE8E08F97
:101B5000042808D14FF0E021096941F004014FF059
:101B6000E022116107E04FF0E021096921F0040152
:101B70004FF0E0221161704770B504462546681E9B
:101B8000B0F1807F01D301200FE0681E4FF0E0210B
:101B900048610F214FF0FF3000F064FF00204FF04C
:101BA000E021886107200861002070BD7047704700
:101BB00001460022002391F8712091F8723042EA28
:101BC000030070472DE9F04104462068C56920688C
:101BD00006682068876805F00F08B8F1000F0CD17F
:101BE00005F0200048B106F0200030B1206E10B1A1
:101BF0002046216E8847BDE8F081B8F1000F7FD004
:101C000007F0010018B906F49070002878D005F0AC
:101C1000010048B106F4807030B1012021680862EB
:101C2000606F40F00100606705F0020048B107F006
:101C3000010030B1022021680862606F40F00400AA
:101C4000606705F0040048B107F0010030B10420DE
:101C500021680862606F40F00200606705F00800CC
:101C600060B106F0200010B907F0010030B1082083
:101C700021680862606F40F008006067606F78B3A9
:101C800005F0200038B106F0200020B1206E10B120
:101C90002046216E8847606F00F0080028B9206850
:101CA000806800F04000402824D1204601F08AF9E5
:101CB0002068806800F04000402817D120688068C4
:101CC00020F0400021688860E06E58B11F48E16E46
:101CD0008863E06EFEF782FE10B1E06E816B88478C
:101CE0000DE00DE02046FFF762FF08E02046FFF719
:101CF0005EFF04E02046FFF75AFF002060677AE7A6
:101D000005F4801050B107F4800038B14FF4801012
:101D1000216808622046FFF749FF6CE705F0800064
:101D200040B106F0800028B1606E10B12046616EAF
:101D3000884760E705F0400030B106F0400018B178
:101D4000204601F051F956E700BF54E7AD2F0008D7
:101D500010B504460CB9012010BDA06900B100E027
:101D600000BF94F8710028B9002084F87000204664
:101D700000F02AF8242084F871002068006820F020
:101D8000010021680860204601F0A8F9012800D16F
:101D9000E2E7606A10B1204601F052F8206840681E
:101DA00020F49040216848602068806820F02A0074
:101DB000216888602068006840F0010021680860A0
:101DC000204601F0B9F8C7E710B586B004462049AF
:101DD0002068884239D100BF1E48C06C40F0010025
:101DE0001C49C8640846C06C00F00100009000BFA8
:101DF00000BF00BF0846006E40F4804008660846F9
:101E0000006E00F48040009000BF00BF48150190B4
:101E100002200290012003900220049007200590E8
:101E200001A94FF09040FEF769FE4FF480600190E9
:101E300001A94FF09040FEF761FE2520FEF7A9FFB3
:101E4000032211462520FEF7B1FF06B010BD0000A9
:101E5000003801400010024010B5034693F87200AC
:101E6000202862D101B10AB9012010BD00BF93F84A
:101E70007000012801D10220F7E7012083F87000EB
:101E800000BF5965A3F85820A3F85A20002018660F
:101E900000BF9868B0F5805F0AD1186920B940F298
:101EA000FF10A3F85C001CE0FF20A3F85C0018E022
:101EB000986848B9186918B9FF20A3F85C0010E0C9
:101EC0007F20A3F85C000CE09868B0F1805F08D137
:101ED000186918B97F20A3F85C0002E03F20A3F83E
:101EE0005C0000BF00205867222083F87200186849
:101EF000806840F001001C68A0609868B0F5805FC1
:101F000004D1186910B90A48186601E00948186632
:101F100000BF002083F8700000BF1868006840F41C
:101F200090701C68206000209FE702209DE7000061
:101F30000B300008773000081D4A0168914236D105
:101F40001C49098801F4004189BB1A49098801F438
:101F5000804171B1184909780A2903D00021154A36
:101F6000118024E01349098841F40041114A11808D
:101F70001DE0114909780D2906D10E49098841F45F
:101F800080410C4A118012E00B490978094A1288F5
:101F9000C2F30D02094B995406490988491C054AA8
:101FA000118011460988C72901DD00211180704781
:101FB000003801405400002056000020D8000020C6
:101FC000704700BFFEE7000000B587B000BF1B48A8
:101FD000C06C40F004001949C8640846C06C00F0A9
:101FE0000400019000BF00BF00BF0846C06C40F075
:101FF0000800C8640846C06C00F00800019000BFEB
:1020000000BF4FF4E0600290002003900220049093
:102010000320059002A90A48FEF770FD4FF4005016
:10202000029000200390012004900320059002A953
:102030000448FEF763FD07B000BD00000010024039
:10204000000C00480008004810B50446012C01D1DE
:10205000314908703048007800283FD04FF4806143
:102060002E48FEF74DFE90B14FF400712B48FEF75D
:1020700047FE60B14FF480712848FEF741FE30B151
:102080004FF400512648FEF73BFE012826D10A20D6
:1020900001F0F2FA0020204908704FF480611F48D7
:1020A000FEF72EFE08B9012010BD4FF400711B4849
:1020B000FEF726FE08B90220F6E74FF480711748B4
:1020C000FEF71EFE08B90320EEE74FF40051144856
:1020D000FEF716FE01281CD10420E5E74FF48061CD
:1020E0000E48FEF70DFE012813D141020B48FEF702
:1020F00007FE01280DD101020848FEF701FE012864
:1021000007D141030648FEF7FBFD10B90120024943
:1021100008700020C8E70000D4000020000C004830
:10212000000800482DE9F04104460D4616461F46BA
:102130002A2000F031FC201200F03CFCE0B200F05C
:1021400039FC301200F036FCF0B200F033FC2B20EA
:1021500000F022FC281200F02DFCE8B200F02AFC6E
:10216000381200F027FCF8B200F024FC2C2000F01C
:1021700013FCBDE8F0810000F8B505460020009092
:1021800028128DF80000E8B28DF80100EF231A46FE
:1021900000210846FFF7C6FF00240DE09DF800006F
:1021A0000F4901F814009DF80100012101EB4401E1
:1021B0000B4A5054601C84B2B4F5107FEEDB012250
:1021C00010210848FEF7A8FD002606E04FF49061B4
:1021D000034800F054FA701C86B2642EF6DBF8BD9A
:1021E000AC2F0120000400482DE9FF4F87B00746BF
:1021F0008846914600200590049001900A988045F9
:102200002ED14A46414638460A9BFFF78BFF0020F5
:1022100001900FE03A48008801123A4A019802F80A
:1022200010103748017801984000401C1154019863
:10223000401C0190A9EB070101988142EAD80122D4
:1022400010213148FEF768FDA9EB07004FF6FF7239
:1022500002EA40012B4800F012FA0BB000F056B829
:10226000A9EB07040A98A0EB08050397CDF80880AE
:10227000002C02DD4FF0010A06E014B94FF0000A0D
:1022800002E04FF0FF3A6442002D02DD4FF0010BF7
:1022900006E015B94FF0000B02E04FF0FF3B6D4236
:1022A000AC4201DD264600E02E460020069021E0EB
:1022B000029A91B2039A90B200F04CF8059820442B
:1022C00005900498284404900598B04205DD0598CF
:1022D000801B05900398504403900498B04205DD9C
:1022E0000498801B04900298584402900698401C61
:1022F00080B20690711C06988842D9DD00BFACE719
:10230000D0000020AC2F01200004004830BCBDE804
:10231000C08F2DE9F04104460D4616461F462B4658
:10232000324629462046FFF75FFF3B4622462946B4
:102330002046FFF759FF3B46324639462046FFF715
:1023400053FF3B46324629463046FFF74DFFBDE876
:10235000F081000070B504460D462B462246294602
:102360002046FFF7DFFE0248008800F031FB70BD19
:10237000D00000202DE9F05F0746884691469A4636
:10238000DDF828B0002400250026A9EB0700401C3A
:10239000AAEB0801491C48434500B5F5906F03D9E5
:1023A000A5F590664FF4906553464A464146384637
:1023B000FFF7B8FE22E000240AE04FEA2B20114A82
:1023C00002F814006000401C02F800B0601C84B2E7
:1023D000B4EB550FF1D3012210210B48FEF79CFC02
:1023E000A9B2084800F04BF906B908E0B6F5906FBD
:1023F00002D9A6F5906601E035460026DBE700BF6E
:1024000000F004B8AC2F01200004004830BCBDE847
:10241000C09F000000B587B000BF2848C06C40F0E6
:1024200002002649C8640846C06C00F00200019012
:1024300000BF00BF00BF0846C06C40F00800C86481
:102440000846C06C00F00800019000BF00BFD0201B
:1024500002900120039004900220059002A91848E0
:10246000FEF74CFB0022D0211548FEF755FC8020DA
:10247000029002A91348FEF741FB00228021114877
:10248000FEF74AFC002280210E48FEF745FC0022A0
:1024900080210B48FEF740FC002240210848FEF74F
:1024A0003BFC782001F0E8F8012240210448FEF7C7
:1024B00033FC00F039FB07B000BD00000010024003
:1024C00000040048000C004810B5FFF7A3FF782077
:1024D00001F0D2F8112000F05FFA782001F0CCF87A
:1024E000362000F059FA002000F064FA3A2000F09B
:1024F00053FA652000F05EFAB22000F04DFA0C208D
:1025000000F058FA0C2000F055FA002000F052FAC2
:10251000332000F04FFA332000F04CFAB72000F0DF
:102520003BFA722000F046FABB2000F035FA3D205D
:1025300000F040FAC02000F02FFA2C2000F03AFA08
:10254000C22000F029FA012000F034FAC32000F084
:1025500023FA192000F02EFAC42000F01DFA2020E2
:1025600000F028FAC62000F017FA0F2000F022FA37
:10257000D02000F011FAA42000F01CFAA12000F0F5
:1025800019FAE02000F008FAD02000F013FA042035
:1025900000F010FA0D2000F00DFA112000F00AFAF8
:1025A000132000F007FA2B2000F004FA3F2000F07F
:1025B00001FA542000F0FEF94C2000F0FBF918203D
:1025C00000F0F8F90D2000F0F5F90B2000F0F2F919
:1025D0001F2000F0EFF9232000F0ECF9E12000F0DB
:1025E000DBF9D02000F0E6F9042000F0E3F90C203C
:1025F00000F0E0F9112000F0DDF9132000F0DAF925
:102600002C2000F0D7F93F2000F0D4F9442000F04E
:10261000D1F9512000F0CEF92F2000F0CBF91F2086
:1026200000F0C8F91F2000F0C5F9202000F0C2F921
:10263000232000F0BFF9212000F0AEF9292000F09E
:10264000ABF9EF231A4600210846FFF76BFD4FF662
:10265000FF70FFF791FD012280210248FEF75CFB2D
:1026600010BD00000004004810B50246012000E043
:1026700050430B1EA1F10104E1B2F9D110BD70B5B8
:1026800004460D462946204600F078FA70BD000049
:102690002DE9FE4F82468B4616461C46A6F12000C9
:1026A000C6B204EBD4714910C1F1F001514503DB0E
:1026B000C4F1F001594501DA00F0F2B804EBD4702E
:1026C0000AEB6000401E82B20BEB0400401E83B296
:1026D000594650460094FFF725FD102C01D0202CC0
:1026E0004ED12046E31704EB5373DB1021464FEA2B
:1026F000E47C04EB5C7C4FEAEC0CA4EBCC0CBCF16E
:10270000000F02D04FF0010C01E04FF0000C6344C9
:10271000224604EBD27C4FEA6C0C03FB0CF303F073
:10272000FF09002529E0102C04D1574800EB0610C2
:10273000475D07E0202C04D1544800EBC610475DEC
:1027400000E0B9E74FF0000812E007F0800018B190
:102750004F480088029002E04E480088029002989C
:1027600000F036F97806070E08F1010000F0FF08C6
:10277000B8F1080FE9DB681CC5B24D45D3DB80E03A
:102780000C2C45D12046E31704EB5373DB10214694
:102790004FEAE47C04EB5C7C4FEAEC0CA4EBCC0C41
:1027A000BCF1000F02D04FF0010C01E04FF0000C23
:1027B0006344224604EBD27C4FEA6C0C03FB0CF31F
:1027C00003F0FF09002520E006EB4600324901EB4B
:1027D0008000475D4FF0000812E007F0800018B15C
:1027E0002B480088029002E02A4800880290029854
:1027F00000F0EEF87806070E08F1010000F0FF087F
:10280000B8F1060FE9DB681CC5B24D45DCDB38E0EA
:10281000182C36D12001C11700EB5171C1F3C70943
:1028200000252CE006EB46001C4901EB0010475D3B
:10283000284605EBD0714910A5EB410111B90820DC
:10284000019001E0042001904FF0000812E007F031
:10285000800018B10E480088029002E00D48008800
:102860000290029800F0B4F87806070E08F1010013
:1028700000F0FF0801988045E9DB681CC5B24D45B2
:10288000D0DB00BF18E700004061000800790008B5
:10289000D0000020D2000020CC5C00083067000887
:1028A0001EBCBDE8E08F2DE9FF5F074691461E463E
:1028B0000E9D4FF0000A002435E0301B401EC1B2CF
:1028C0000A20FFF7D1FEB9FBF0F00A21B0FBF1F2CC
:1028D00001FB1208BAF1000F14D1701EA04211DDE5
:1028E000B8F1000F0CD1AB4605EBDB71491001FBD1
:1028F000047188B22B4620220199FFF7C9FE10E02F
:102900004FF0010AAB4605EBDB71491001FB047186
:1029100088B208F13001CAB22B460199FFF7B8FE20
:1029200000BF601CC4B2B442C7DB00F000B83FBCBB
:10293000BDE8C09F2DE9F04704460D4690469946F4
:10294000DDE9086704F0FF0A08EB04001FFA80F8CD
:1029500009EB05001FFA80F914E0444502DB5446F8
:10296000A81985B24D4500DB12E03A783346294676
:102970002046FFF78DFE304606EBD07104EB610177
:102980008CB27F1C38787E2802DC38782028E4DA84
:1029900000BFBDE8F087000001B500221021044807
:1029A000FEF7BAF901216846FFF769FE08BD00008D
:1029B0000004004801B5012210210448FEF7ACF9DB
:1029C00001216846FFF75BFE08BD000000040048D7
:1029D00038B504460020009020128DF80000E0B2C7
:1029E0008DF80100012210210348FEF795F902211C
:1029F0006846FFF744FE38BD0004004800B587B0C4
:102A000000BF1048C06C40F010000E49C864084672
:102A1000C06C00F01000019000BF00BF4FF4607068
:102A200002900120039004900220059002A906481C
:102A3000FEF764F801224FF460710348FEF76CF969
:102A400007B000BD001002400010004800BFFEE7C4
:102A50007047000002480068C0F302207047000081
:102A60000CED00E010B5002807DA0A07140E054A3D
:102A700000F00F031B1FD45403E00A07130E024A91
:102A8000135410BD18ED00E000E400E0F8B5044672
:102A900000262348806D00F0805018B1FEF722FA1E
:102AA000054616E000BF1E48806D40F080501C496E
:102AB00088650846806D00F08050009000BF00BF20
:102AC000FEF710FA05461648806D20F08050144934
:102AD0008865B5F5007F07D1802C10D9A02C01D9CD
:102AE00002260CE001260AE0802C01D9032606E02C
:102AF000802C01D1022602E0702C00D10126094869
:102B0000006820F007003043064908600846006866
:102B100000F00700B04201D00120F8BD0020FCE722
:102B2000001002400020024010B51248124908600F
:102B30004FF48270486000210F4881604FF4E061DB
:102B4000C1600221016101214161490281610021CD
:102B5000C1610162416281620721C162FEF744FEE8
:102B600005480068006840F04000034909680860B3
:102B700010BD0000003C0040482F012070B5044605
:102B80000D464FF47A732A4621460248FEF7D2FEDC
:102B900070BD0000482F0120F8B504460E461546CA
:102BA000334600224FF4C0512046009500F026F82D
:102BB00028B1206E40F0200020660320F8BD334687
:102BC000002280212046009500F06DF828B1206E8B
:102BD00040F0200020660320F0E7334600224FF447
:102BE000C0612046009500F009F828B1206E40F041
:102BF000200020660320E1E70020DFE72DE9F04117
:102C000004460E4617461D46DDF8188044E0B6F52A
:102C1000C06F02D10FB92068007B681CD8B3FEF7E3
:102C200081F8A0EB0800A84200D2A5BB206840684C
:102C300020F0E000216848606068B0F5827F0DD127
:102C4000A068B0F5004F03D0A068B0F5806F05D143
:102C50002068006820F0400021680860A06AB0F594
:102C6000005F0DD100BF2068006820F4005021688B
:102C700008602068006840F400502168086000BFC8
:102C8000012084F85D0000BF002084F85C0000BFD4
:102C90000320BDE8F081FFE7206880683040B8423B
:102CA000B5D10020F5E72DE9F04104460E46174660
:102CB0001D46DDF818803EE0681CD8B3FEF732F8F8
:102CC000A0EB0800A84200D2A5BB2068406820F015
:102CD000E000216848606068B0F5827F0DD1A0688F
:102CE000B0F5004F03D0A068B0F5806F05D1206823
:102CF000006820F0400021680860A06AB0F5005F1D
:102D00000DD100BF2068006820F4005021680860E1
:102D10002068006840F400502168086000BF01206E
:102D200084F85D0000BF002084F85C0000BF032031
:102D3000BDE8F081FFE7206880683040B04201D1F3
:102D4000012000E00020B842B6D10020F0E710B525
:102D500002F0DCFC012801D002F0C4F9FDF7E8FF25
:102D600010BD000010B598B0002400BF1F48806D52
:102D700040F080501D4988650846806D00F0805005
:102D8000019000BF00BF01200790000408900220BE
:102D90001190032112910121139114211491072103
:102DA000159102211691179107A8FEF717FA04460C
:102DB0000CB100BFFEE70F2002900320039000201B
:102DC000049005900690042102A8FEF793F80446AB
:102DD0000CB100BFFEE74FF40070FEF73DF804466B
:102DE0000CB100BFFEE718B010BD0000001002409B
:102DF0001048006840F470000E4908600E480068F2
:102E000040F001000C490860002088600846006816
:102E10000A490840084908608814C86008460068E4
:102E200020F48020086000208861C80301498039AF
:102E30000860704788ED00E000100240FFFFF6EAEE
:102E400090F8241001F0010139B10168496821F4BA
:102E50000031826A11430268516090F8241001F039
:102E60000201022907D10168496821F48031C26A50
:102E700011430268516090F8241001F00401042904
:102E800007D10168496821F48021026B114302686F
:102E9000516090F8241001F00801082907D1016859
:102EA000496821F40041426B11430268516090F877
:102EB000241001F01001102907D10168896821F45C
:102EC0008051826B11430268916090F8241001F0E8
:102ED0002001202907D10168896821F40051C26BC3
:102EE00011430268916090F8241001F040014029DC
:102EF00013D10168496821F48011026C1143026802
:102F00005160016CB1F5801F07D10168496821F457
:102F1000C001426C11430268516090F8241001F026
:102F20008001802907D10168496821F40021826C61
:102F3000114302685160704738B5044600250020EF
:102F40006067FDF7EFFE05462068006800F00800A6
:102F500008280CD16FF07E402B4600224FF4001160
:102F60000090204600F003FB08B1032038BD206824
:102F7000006800F0040004280CD16FF07E402B465E
:102F800000224FF480010090204600F0F0FA08B1D2
:102F90000320EBE7202084F8710084F8720000BF62
:102FA000002084F8700000BF00BFDFE770B5054661
:102FB000AC6A0020A4F85A00A4F852002046FEF79C
:102FC000F6FD70BD0168096821F490710268116016
:102FD0000168896821F0010102689160202180F870
:102FE000721000210166704710B504462068006821
:102FF00020F0400021680860202084F87100002043
:1030000060662046FEF7DCFF10BD2DE9F041044666
:10301000B4F85C7094F87200222824D12068868C61
:10302000656D06EA07002880606D801C6065B4F855
:103030005A00401E80B2A4F85A00D0B92068006837
:1030400020F49070216808602068806820F00100FA
:1030500021688860202084F87200002020662046C5
:10306000FEF76AFF05E02068008B40F00800216849
:103070000883BDE8F08170B50446B4F85C6094F84C
:103080007200222823D12068858CF0B22840626D1E
:10309000511C61651070B4F85A00401E80B2A4F84B
:1030A0005A00D0B92068006820F490702168086048
:1030B0002068806820F0010021688860202084F862
:1030C0007200002020662046FEF736FF05E02068EB
:1030D000008B40F008002168088370BD2DE9F84F8F
:1030E00004464FF0000910264FF0000B0025002089
:1030F00000908246F7492068884200D100E000BF76
:103100002169A068084361690843E16940EA01094F
:1031100020680068F049084040EA0900216808601A
:103120002068406820F44050E16808432168486006
:10313000D4F81890E7492068884202D0206A40EA13
:1031400009092068806820F4306040EA090021689D
:10315000886000BFE1492068884216D1E0480068D5
:1031600000F0030030B1012808D0022804D0032861
:1031700008D105E0012607E0022605E0042603E069
:10318000082601E0102600BF8CE0D649206888425E
:1031900016D1D348006800F00C0030B1042808D0E4
:1031A000082804D00C2808D105E0002607E00226F4
:1031B00005E0042603E0082601E0102600BF71E0C8
:1031C000C9492068884216D1C548006800F030001F
:1031D00030B1102808D0202804D0302808D105E0CC
:1031E000002607E0022605E0042603E0082601E0A9
:1031F000102600BF56E0BD492068884216D1B84865
:10320000006800F0C00030B1402808D0802804D009
:10321000C02808D105E0002607E0022605E00426C4
:1032200003E0082601E0102600BF3BE0B04920681B
:10323000884219D1AA48006800F4407048B1B0F53E
:10324000807F0AD0B0F5007F05D0B0F5407F08D16F
:1032500005E0002607E0022605E0042603E0082634
:1032600001E0102600BF1DE09A492068884219D16C
:103270009B48006800F4406048B1B0F5806F0AD008
:10328000B0F5006F05D0B0F5406F08D105E000261D
:1032900007E0022605E0042603E0082601E01026E8
:1032A00000BF00BF00BF8B492068884272D1042E46
:1032B00010D003DC3EB1022E13D108E0082E0DD051
:1032C000102E0ED10EE0FDF7D7FE82460DE0DFF89E
:1032D00024A20AE0FDF7F4FE824606E04FF4004A1D
:1032E00003E000BF0120009000BF00BFBAF1000F53
:1032F0000AD0606800EB4000504503D860680003C6
:10330000504502D20120009025E1042E2ED003DC8E
:103310003EB1022E51D118E0082E3CD0102E4CD1D7
:103320004CE0FDF7A9FE4FF48071A0FB013160680D
:1033300040081F1841F10001D4F804C06246002380
:103340003846FDF70CF805463BE0D4F804C04FEAD8
:103350005C000021684BC71841EB010862460B4630
:1033600038464146FCF7FBFF05462AE0FDF7A8FE7C
:103370004FF48071A0FB0130616849085F1840F18B
:103380000001D4F804C0624600233846FCF7E7FF8A
:10339000054616E022E0D4F804C04FEA5C000021A4
:1033A0004FF40003C71841EB010862460B4638464C
:1033B0004146FCF7D4FF054603E000BF0120009022
:1033C00000BF00BFB5F5407F05D3B5F5801F02D221
:1033D0002068C560BFE001200090BCE0E069B0F566
:1033E000004F57D1042E28D005DC4EB1012E11D04C
:1033F000022E36D118E0082E29D0102E31D131E01E
:10340000FDF73AFE4000616800EB5100B0FBF1F0BF
:1034100085B22AE0FDF742FE4000616800EB5100F2
:10342000B0FBF1F085B220E03449606801EB500058
:103430006168B0FBF1F085B217E0FDF741FE400096
:10344000616800EB5100B0FBF1F085B20DE04FF484
:103450008031606801EB50006168B0FBF1F085B22B
:1034600003E000BF0120009000BF00BF102D0ED36D
:10347000B5F5803F0BD24FF6F07005EA000BC5F3AF
:1034800042004BEA000B2068C0F80CB063E001205A
:10349000009060E0042E3CD005DC4EB1012E10D02F
:1034A000022E49D12CE0082E3CD0102E44D144E00D
:1034B000FDF7E2FD616800EB5100B0FBF1F085B271
:1034C0003EE0FDF7EBFD616800EB5100B0FBF1F071
:1034D00085B235E000800040F369FFEF003801401D
:1034E000881002400044004000480040004C00406A
:1034F000005000400024F400000024F40048E801DB
:103500001849606801EB50006168B0FBF1F085B2CA
:1035100016E0FDF7D5FD616800EB5100B0FBF1F05E
:1035200085B20DE04FF40041606801EB5000616826
:10353000B0FBF1F085B203E000BF0120009000BFB6
:1035400000BF102D05D3B5F5803F02D22068C560BD
:1035500001E001200090002020666066009800F0E5
:1035600003B800000024F40018BCBDE8E08F2DE98A
:10357000F04104460D4617469846069E21E0701C11
:10358000F8B12EB1FDF7CEFBA0EB0800B04218D980
:103590002068006820F4D070216808602068806886
:1035A00020F0010021688860202084F8710084F8F0
:1035B000720000BF002084F8700000BF0320BDE847
:1035C000F0812068C0692840A84201D1012000E0B4
:1035D0000020B842D3D00020F1E7000070B50024ED
:1035E0000F4D1048FEF7EEFA00BF03E0641CAC423A
:1035F00000D904E00B48FEF7DBFA2028F6D100BF23
:10360000002403E0641CAC4200D906E00122064914
:103610000448FEF721FC0028F4D100BF70BD000073
:10362000FFFF0100A00100205600002000BFFEE7C0
:1036300000BF704770B504460420FEF789FA0C48B5
:10364000046025464FF47A704543012009490880FB
:103650004FF0E020006940F002004FF0E0210861E7
:1036600008464561006940F00100086170BD000036
:10367000480000204C00002070B5044602F046F8D7
:10368000012810D00B480088844206D309480088DE
:10369000B4FBF0F5284601F021FA06480088B4FB97
:1036A000F0F100FB11444FF47A7104FB01F000F0DB
:1036B00003F870BD4C00002070B5034600224FF0A7
:1036C000E02675690D4E366803FB06F44FF0E026E0
:1036D000B16910E04FF0E026B06988420BD0884213
:1036E00002D20E1A324402E02E1A0E44324401462F
:1036F000A24200D300E0EDE700BF70BD480000200B
:1037000030B50446002504E04FF47A70FFF7D4FF8B
:103710006D1CA542F8D330BD00BF054A126802F007
:103720004002002AF9D0C2B2014B0C331A80704714
:103730001C38014044E00020FEF786FC0446022CC1
:103740001AD0032C20D0042C35D11E48006801F07B
:103750004DFB00201C490880E6235F228C210520B8
:10376000FEF742FDE62305228C215F20FEF73CFD9B
:1037700016A0FCF76BFE1FE01248006801F0A4FAE7
:1037800017A0FCF763FE17E01948006801F02EFB54
:1037900000200D490880E623D7228C217D20FEF7EA
:1037A00023FDE6237D228C21D720FEF71DFD11A0ED
:1037B000FCF74CFE00E000BF00BF0A2001F08EF9CC
:1037C000B9E7000008000020D000002054616B73AE
:1037D000312053757370656E64210D0A000000007E
:1037E00054616B733120526573756D65210D0A004C
:1037F0000C00002054616B73322053757370656E3A
:1038000064210D0A000000001CB5FDF799FAFFF7CE
:10381000A9FA5020FFF70EFFFFF7F0F84FF4E13060
:1038200000F0D8FFFEF7D0FBFDF7AEF8FEF74CFE38
:103830004FF478402F4908802FA020210B46F0221A
:10384000CDE9001000210846FFF774F82EA01821DA
:103850000B46F022CDE9001020210520FFF76AF881
:103860002EA010210B46F022CDE900103C210520AE
:10387000FFF760F81F201F4908802DA010210B467C
:10388000F022CDE900104C210520FFF753F82BA0C2
:1038900010210B46F022CDE900105C210520FFF736
:1038A00049F84FF47840134908802AA0FCF7CEFD70
:1038B00038A0FCF7CBFD38A0FCF7C8FD3FA242A121
:1038C00044A0FCF7C3FD4AA0FCF7C0FD31A0FCF703
:1038D000BDFD4EA0FCF7BAFD5C480121002380220B
:1038E000CDE900105AA15D4801F0DCFE01F034FA88
:1038F00000201CBDD000002050616E646F726120FA
:1039000053544D33324634004672656552544F531A
:1039100020405631302E302E310000005461736B40
:1039200020437265617420616E642044656C000000
:1039300051696E59554E35373500000031303A30F7
:10394000383A3132404A616E2031382032303139D4
:10395000000000000D0A3D3D3D3D3D3D3D3D3D3DEE
:103960003D3D3D3D3D3D3D3D3D3D3D3D3D3D3D3D87
:103970003D3D3D3D3D3D3D3D3D3D3D3D3D3D3D3D77
:103980003D3D3D3D3D3D3D3D3D3D3D3D3D3D3D3D67
:103990003D0D0A000D0A0000202020202A2A2A2A94
:1039A0002A204672656552544F53205631302E30CE
:1039B0002E31202A2A2A2A2A0D0A00004A616E2066
:1039C000313820323031390031303A30383A313202
:1039D0000000000020202020436F6D70696C65207E
:1039E00054696D653A25732C2025730D0A0000007B
:1039F00020202020417574686F72206279205169FF
:103A00006E59554E3537350D0A0000003D3D3D3DA0
:103A10003D3D3D3D3D3D3D3D3D3D3D3D3D3D3D3DD6
:103A20003D3D3D3D3D3D3D3D3D3D3D3D3D3D3D3DC6
:103A30003D3D3D3D3D3D3D3D3D3D3D3D3D3D3D3DB6
:103A40003D3D3D3D3D3D3D0D0A0000000000002094
:103A500073746172745F7461736B00008945000850
:103A60002DE9F04105460E461C4807681C480068D1
:103A7000001D00F0CBFE50B91948006890F82C10DA
:103A80000120884017490968814316480160681C75
:103A900038B936B112480168091D134800F0F4FE28
:103AA0001AE07C190E4800684460BC4207D20C48FA
:103AB0000168091D0D48006800F0CCFE0CE00848C4
:103AC0000168091D0A48006800F0C4FE0948006842
:103AD000844201D207480460BDE8F08170000020F4
:103AE0005C000020740000200C0300206400002013
:103AF000600000208C00002010B5044600F0D0FECD
:103B000024480068401C234908602348006840B9E5
:103B1000214804600846006801280DD100F0D2F960
:103B20000AE01E48006838B91B480068C06AE16AAC
:103B3000884201D81848046019480068401C184998
:103B4000086008460068206494F82C100120884022
:103B500014490968084313490860E16A01EB8101CF
:103B6000114A02EB8100211D00F08EFE00F0C2FE22
:103B70000A48006868B108480068C06AE16A88427B
:103B800007D24FF0805009490860BFF34F8FBFF351
:103B90006F8F10BD6C0000205C00002078000020BA
:103BA00088000020740000205802002004ED00E08E
:103BB00010B500F075FE10480068D0B90F4800F04D
:103BC00039FE0F4800F036FE0C480E4908600C48DC
:103BD0000D49086000220C210A2001F09DFA0649D7
:103BE00008600846006820B108A10348006800F09A
:103BF00039FF00F07FFE10BDA00000202003002050
:103C000034030020980000209C000020546D725165
:103C10000000000010B516E000F042FE0C48C0683D
:103C2000C468201D00F0F2FD0A480068401E0949E2
:103C3000086009480068401E0749086000F05AFE05
:103C4000204600F05EF8044800680028E4D110BD6A
:103C5000F80200206C0000206800002070B50446C7
:103C60000D46206C70B1216CE0680844E06061682A
:103C7000E068884201D32068E0602846226CE16851
:103C8000FCF7CCFC70BD2DE9F04104460F4615460B
:103C90004FF00008A66B206C40B9206860BB6068DC
:103CA00001F0EEFD80460020606025E07DB93946D8
:103CB000226CA068FCF7B2FC216CA0680844A060EC
:103CC000D4E90110884217D32068A06014E0394677
:103CD000226CE068FCF7A2FC216CE068401AE0600E
:103CE0002168E068884203D2216C6068401AE06075
:103CF000022D01D106B1761E701CA0634046BDE8BE
:103D0000F08110B50446206B00F012FE204600F052
:103D10000FFE10BD0146084A126812680AB9012256
:103D200000E000220A600A6822B9034A1268D268D9
:103D3000106800E0002070479800002030B54FF474
:103D40009633174800F007042CB1C01D20F007007F
:103D5000134C041B1B1B0246124C22600024114D05
:103D60006C60D018083820F007000F4C2060002449
:103D70000D4D2D686C600C4D2D682C601146441A59
:103D80004C60094C24680C60084D4C682C60084D50
:103D90004C682C604FF00044064D2C6030BD000094
:103DA00048030020AC000020B4000020BC0000202C
:103DB000B8000020C000002000BFFFF72BFF06481E
:103DC00000680128F9D94FF0805004490860BFF31A
:103DD0004F8FBFF36F8FF0E75802002004ED00E033
:103DE0002DE9F04106460D4617469846069C0DB94A
:103DF000246000E02760E66325640121204601F08D
:103E0000B7F984F84C80BDE8F0812DE9F05F824677
:103E10000F4690469B460A9E0C9C4FEA8801A522BD
:103E2000206BFCF772FCA8F10100216B01EB80090B
:103E300029F0070909F0070008B9012000E0002077
:103E400050B900BF502080F31188BFF34F8FBFF3EC
:103E50006F8F00BF00BFFEE7002507E0795D04F12A
:103E600034004155785D00B902E06D1C0A2DF5D390
:103E700000BF00213D200155052E00D30426E66237
:103E8000A6640020E064201D00F0E1FC04F11800AD
:103E900000F0DDFC2461C6F10500A0616462002031
:103EA000206584F854005A465146484600F056FBB7
:103EB00020600B9808B10B98046000F000B830BC8B
:103EC000BDE8C09F10B5002407E004EB84010F4A51
:103ED00002EB810000F0AEFC641C052CF5D30C480D
:103EE00000F0A8FC0B4800F0A5FC0B4800F0A2FC79
:103EF0000A4800F09FFC0A4800F09CFC044809496D
:103F0000086004480849086010BD000058020020FD
:103F1000BC020020D0020020E4020020F8020020B1
:103F20000C030020600000206400002010B5014652
:103F3000164800E0006803688B42FBD302464368E2
:103F400013448B4204D143684C68234443600146C8
:103F50000A464B6813440468A34211D10C4C036811
:103F60002468A34208D04B680468646823444B600B
:103F700003681B680B6005E0054B1B680B6001E0E4
:103F800003680B60884200D0016010BDAC000020C7
:103F9000B40000202DE9F04104460D4616461F46A8
:103FA0004FF0000865602461B5420CD8F01BA16990
:103FB000884202D34FF0010811E0211D0948006832
:103FC00000F048FC0BE0BE4204D2BD4202D34FF0E9
:103FD000010804E0211D0448006800F03BFC404655
:103FE000BDE8F0819C0000209800002070B50546D7
:103FF00000F056FCA86B08B9012400E0002400F092
:1040000079FC204670BD70B5054600F049FCA86BF0
:10401000E96B884201D1012400E0002400F06AFC31
:10402000204670BDF8B505460F4616480068C068C2
:10403000C468201D00F0EAFBE06901281DD1A069D9
:1040400041192B463A462046FFF7A4FFA8B10020AD
:1040500003462A4601460090204601F0C9FD064667
:1040600056B900BF502080F31188BFF34F8FBFF3C4
:104070006F8F00BF00BFFEE700BF2046616A884720
:10408000F8BD00009800002070B586B06AE0039883
:10409000002867DB059C606908B9012000E000206A
:1040A00010B9201D00F0B2FB02A800F0BBF80546D5
:1040B00003980A2854D2DFE800F009050731334F8E
:1040C0000608323400BF00BF00BF00BF0498A269D9
:1040D000811803462A462046FFF75CFFE8B12046D8
:1040E000616A8847E069012817D100200090049890
:1040F000A169421800231946204601F079FD0646C1
:1041000056B900BF502080F31188BFF34F8FBFF323
:104110006F8F00BF00BFFEE700BF22E000BF20E0BE
:1041200000BF0498A061A06908B1012000E0002050
:1041300050B900BF502080F31188BFF34F8FBFF3F9
:104140006F8F00BF00BFFEE7A06941192B462A46CA
:104150002046FFF71FFF04E0204600F0E9FB00E0E7
:1041600000BF00BF002203A90348006801F0A0F9C6
:1041700000288CD106B070BDA0000020F8B505461F
:104180000C4600F0ADFE684600F04CF8064600987C
:1041900020BB44B9B54206D801F022FC314628467E
:1041A000FFF740FF1CE03CB10E480068006808B90A
:1041B000012000E000200446A91B22460A480068AE
:1041C00000F066FC01F00CFC50B94FF0805007493C
:1041D0000860BFF34F8FBFF36F8F01E001F000FC69
:1041E000F8BD00009C000020A000002004ED00E0CD
:1041F0000A490968096809B9012100E0002121B1D3
:104200004FF0FF31064A116006E004490968C968A9
:10421000C868034A416811607047000060000020D0
:104220008C00002070B5044601F080FA054607486E
:104230000068854204D200F00BF80120206001E004
:104240000020206001480560284670BDA8000020BD
:104250002DE9F84332E024480068C0680568224828
:104260000068C068C468201D00F0D0FA2046616A6A
:104270008847E069012821D1A0694619AE4207D9D3
:1042800066602461211D1848006800F0E3FA15E01B
:10429000002003462A4601460090204601F0A8FC73
:1042A000074657B900BF502080F31188BFF34F8FE6
:1042B000BFF36F8F00BF00BFFEE700BF0A48006872
:1042C000006808B9012000E000200028C3D006489B
:1042D000D0F8008005480068034908600348C0F82A
:1042E0000080BDE8F8830000980000209C000020BA
:1042F0000E480068401C08B9012000E0002050B9B9
:1043000000BF502080F31188BFF34F8FBFF36F8F32
:1043100000BF00BFFEE700BF502080F31188BFF34D
:104320004F8FBFF36F8F00BF00BFFEE7C4000020B8
:1043300010B502460020114652B900BF502383F346
:104340001188BFF34F8FBFF36F8F00BF00BFFEE731
:104350000B4C4B69A34201D1012300E0002373B150
:10436000084C8B6AA34201D1012300E0002333B93A
:104370008B6A0BB9012300E0002303B1012010BDBB
:104380000C030020E402002008B500BF6846FFF7D8
:10439000C1FC044620460099FFF7F0FEFFF774FECB
:1043A000F4E770B5044600F07BFA94F9455010E04C
:1043B000606A08B9012000E0002038B904F1240047
:1043C00001F0C2FA18B100F03DFC00E003E0681E05
:1043D00045B2002DECDC00BFFF2084F8450000F062
:1043E00089FA00F05DFA94F9445010E0206908B9A8
:1043F000012000E0002048B904F1100001F0A4FA07
:1044000008B100F01FFC681E45B200E001E0002D7D
:10441000ECDC00BFFF2084F8440000F06BFA70BDB4
:104420002DE9F04104464FF0000800F059FD4648E0
:10443000006808B9FFF782FC444800682040002863
:104440006BD1D4B1083404F00700B0B104F0070018
:10445000C0F10800044404F0070008B9012000E09E
:10446000002050B900BF502080F31188BFF34F8F58
:10447000BFF36F8F00BF00BFFEE7002C4DD0344864
:104480000068844249D8334E3046056801E02E4624
:104490002D686868A04202D228680028F7D12A480F
:1044A0000068854239D0306800F10808286830601B
:1044B0006868001B102819D92F1907F0070008B9E0
:1044C000012000E0002050B900BF502080F3118887
:1044D000BFF34F8FBFF36F8F00BF00BFFEE7686869
:1044E000001B78606C603846FFF720FD184968684B
:1044F0000968081A164908600846006816490968DC
:10450000884203D212480068134908600F4968685E
:104510000968084368600020286001F061FA08F02B
:10452000070008B9012000E0002050B900BF50206A
:1045300080F31188BFF34F8FBFF36F8F00BF00BFB1
:10454000FEE74046BDE8F081B4000020C000002036
:10455000B8000020AC000020BC000020001F4FF07D
:1045600080730360001F21F001030360001F054BEF
:10457000036014380260001F6FF0020303602038EC
:1045800070470000F14200081CB5044600F088F9AD
:104590001248032100238022CDE9001010A1134806
:1045A00001F080F81248042100238022CDE9001098
:1045B00010A1134801F076F812480221002380224E
:1045C000CDE9001010A1134801F06CF81248006802
:1045D00000F0B2FA00F08EF91CBD000008000020C7
:1045E0007461736B315F7461736B00001D4600086A
:1045F0000C0000207461736B325F7461736B000098
:10460000F9460008040000206B65795F7461736BE4
:104610000000000035370008000000201CB5002411
:104620002148016821A0FBF711FF1F2025490880C0
:1046300025A00C210B467322CDE90010782105201E
:10464000FEF778F900201F490880E6235F228C21BD
:104650000520FDF75EFE26E021461FA0FBF7F6FED3
:104660004FF400712248FCF753FB601CC4B20D20CC
:1046700094FBF0F100FB11401E4931F8200085B297
:10468000E5235E228D2106200095FDF773FE0C20A8
:1046900003232246782100904120FEF704F94FF4CD
:1046A000487000F01BFAD7E7080000205461736BD4
:1046B0003154616B7348616E646C65723A25305891
:1046C0000D0A0000D00000205461736B3120527538
:1046D0006E3A3030300000005461736B31207275D7
:1046E0006E20636F756E743A25640D0A0000000039
:1046F00000100048100000201CB50024214801686B
:1047000021A0FBF7A3FE1F202549088025A00C212E
:104710000B46D722CDE9001078217D20FEF70AF95B
:1047200000201F490880E623D7228C217D20FDF739
:10473000F0FD26E02146621CD4B21EA0FBF786FEE7
:104740004FF480712148FCF7E3FA0D2094FBF0F15F
:1047500000FB11401E4931F8200085B2E523D62226
:104760008D217E200095FDF705FE0C2003232246B7
:1047700078210090B920FEF796F84FF4FA7000F017
:10478000ADF9D7E70C0000205461736B3254616BB4
:104790007348616E646C65723A2530580D0A0000EA
:1047A000D00000205461736B322052756E3A303065
:1047B000300000005461736B322072756E20636F9D
:1047C000756E743A25640D0A000000000010004860
:1047D0001000002010B5044609480A490860084640
:1047E000446000218160C160016181610C214161EF
:1047F000FDF7AEFA012204490248FDF72DFB10BD7A
:1048000000380140A00100205600002001460A693E
:10481000D1E901309860D1E90103586050688842BD
:1048200001D188685060002008611068401E106047
:104830001068704700F1080141604FF0FF3181605E
:1048400000F10801C1600161002101607047002191
:104850000161704710B502460B685C1C0CB9106909
:1048600007E002F1080000E04068446824689C42C8
:10487000FAD944684C604C68A160886041600A6164
:104880001468641C146010BD42684A6093688B60B1
:10489000936859609160086103685B1C036070470E
:1048A00000BF502080F31188BFF34F8FBFF36F8F8D
:1048B00000BF0E480068401C0C49086008460068AC
:1048C000012812D10A480068C0B208B9012000E0EE
:1048D000002050B900BF502080F31188BFF34F8FE4
:1048E000BFF36F8F00BF00BFFEE77047C40000201A
:1048F00004ED00E00D48006850B900BF502080F37F
:104900001188BFF34F8FBFF36F8F00BF00BFFEE76B
:1049100006480068401E054908600846006820B93E
:10492000002080F3118800BF00BF7047C400002042
:1049300070B506463546002E3FD0083D2C461F492F
:1049400060680968084008B1012000E0002050B903
:1049500000BF502080F31188BFF34F8FBFF36F8FDC
:1049600000BF00BFFEE7206808B9012000E000207A
:1049700050B900BF502080F31188BFF34F8FBFF3B1
:104980006F8F00BF00BFFEE70C49606809680840F0
:1049900098B1206888B909496068096888436060EF
:1049A00000F09EFA064960680968084404490860F6
:1049B0002046FFF7BBFA01F013F870BDC0000020DD
:1049C000B800002000204FF0E0210861886106480F
:1049D00000684FF47A71B0FBF1F0401E4FF0E02117
:1049E00048610720086170474400002070B5FBF75C
:1049F00081FC0446102C16D304F1E02090F8F0530B
:104A000015480078854201DB012000E0002050B904
:104A100000BF502080F31188BFF34F8FBFF36F8F1B
:104A200000BF00BFFEE70D48006800F4E0600C49DD
:104A30000968884201D8012000E0002050B900BF79
:104A4000502080F31188BFF34F8FBFF36F8F00BFEB
:104A500000BFFEE770BD0000C80000200CED00E0C4
:104A6000CC000020024600200BE0084B53F8303009
:104A700033B9064B43F8301003EBC0035A6002E031
:104A8000401C0828F1D300BF704700001802002026
:104A90002DE9F04105460E4617462C46FFF700FF6C
:104AA00094F94400401C10B9002084F8440094F9A3
:104AB0004500401C10B9002084F84500FFF71AFF9C
:104AC000A06B28B93A46314604F1240000F0DCF826
:104AD0002046FFF766FCBDE8F081000070B5044693
:104AE0000025D4B11248006808B9012000E0002078
:104AF00050B900BF502080F31188BFF34F8FBFF330
:104B00006F8F00BF00BFFEE700F0EAF900212046EA
:104B1000FEF7A6FF00F064FF05463DB94FF0805058
:104B200004490860BFF34F8FBFF36F8F70BD000063
:104B30009400002004ED00E070B50546FFF7B0FEDC
:104B400015B93048006800E028460446201DFFF7EC
:104B50005DFE78B9E06A00EB80002B4951F8200037
:104B600040B994F82C1001208840284909688143F5
:104B700026480160A06A18B104F11800FFF746FE4C
:104B800023480068401C224908601E48006884428F
:104B900009D1211D1F48FFF777FE1F480068401C00
:104BA0001D49086009E01D480068401E1B49086057
:104BB0002046FFF7A6F8FFF71BFBFFF79BFE184800
:104BC0000068E8B10F480068844219D115480068B0
:104BD00008B9012000E0002050B900BF502080F348
:104BE0001188BFF34F8FBFF36F8F00BF00BFFEE789
:104BF0004FF080500C490860BFF34F8FBFF36F8FA9
:104C000070BD00005C0000205802002074000020ED
:104C100088000020F8020020680000206C000020BE
:104C2000780000209400002004ED00E003490968AA
:104C3000016003490968416070470000840000205A
:104C400070000020012001490860704780000020AA
:104C500070B504460D4654B900BF502080F311884A
:104C6000BFF34F8FBFF36F8F00BF00BFFEE7054854
:104C7000016818312046FFF7EDFD01212846FEF7B7
:104C8000EFFE70BD5C00002070B505460E46144670
:104C900055B900BF502080F31188BFF34F8FBFF389
:104CA0006F8F00BF00BFFEE7064801681831284635
:104CB000FFF7EAFD0CB14FF0FF3621463046FEF714
:104CC000CFFE70BD5C00002070B505462C4655B97E
:104CD00000BF502080F31188BFF34F8FBFF36F8F59
:104CE00000BF00BFFEE774B31748006884422AD0B3
:104CF000FFF7D6FD2046FFF71BFB10B3201DFFF783
:104D000085FD94F82C10012088401049096808435B
:104D10000E490860E16A01EB81010D4A02EB810056
:104D2000211DFFF7B1FD0849E06A0968C96A884298
:104D300007D34FF0805007490860BFF34F8FBFF390
:104D40006F8FFFF7D7FD70BD5C000020740000205E
:104D50005802002004ED00E01CB51D4800210B4660
:104D60008222CDE900101BA11C4800F09BFC0446E8
:104D7000012C02D100F010FF0446012C15D100BF18
:104D8000502080F31188BFF34F8FBFF36F8F00BFA8
:104D90004FF0FF30124908600120124908600020DE
:104DA0001149086000F0EAF810E0601C08B1012029
:104DB00000E0002050B900BF502080F31188BFF3FD
:104DC0004F8FBFF36F8F00BF00BFFEE71CBD000019
:104DD0009000002049444C4500000000B93D000807
:104DE0008C000020780000207000002070B505467F
:104DF000FFF756FD15B93248006800E02846044622
:104E0000201DFFF703FD78B9E06A00EB80002D4913
:104E100051F8200040B994F82C10012088402A490C
:104E20000968814328480160A06A18B104F118009C
:104E3000FFF7ECFC211D2548FFF726FD94F85400F0
:104E4000012802D1002084F85400FFF753FD2048C8
:104E5000006828B1FFF724FDFFF7CAF9FFF74AFD04
:104E600017480068844229D119480068D0B1194810
:104E7000006808B9012000E0002050B900BF5020B0
:104E800080F31188BFF34F8FBFF36F8F00BF00BF58
:104E9000FEE74FF0805010490860BFF34F8FBFF31B
:104EA0006F8F0BE0094800680C490968884203D1FC
:104EB00000200349086001E000F01AF870BD00000E
:104EC0005C00002058020020740000200C03002029
:104ED000780000209400002004ED00E06C00002029
:104EE00002480068401C0149086070479400002097
:104EF0001D48006818B101201C49086032E00020FC
:104F00001A4908601A480068B0FA80F0C0F11F0121
:104F100001EB8100174A52F8200008B1012000E09F
:104F2000002050B900BF502080F31188BFF34F8F8D
:104F3000BFF36F8F00BF00BFFEE701EB81020D4B97
:104F400003EB820042685268426000F10802436845
:104F5000934202D14268526842604268D268064B6E
:104F60001A6000BF704700009400002080000020FD
:104F700074000020580200205C0000201CB552483C
:104F800000685249884201D0012000E0002050B959
:104F900000BF502080F31188BFF34F8FBFF36F8F96
:104FA00000BF00BFFEE7484800684849491E8842E4
:104FB00001D0012000E0002050B900BF502080F354
:104FC0001188BFF34F8FBFF36F8F00BF00BFFEE7A5
:104FD0003F49084600780190FF200A4610700846B5
:104FE000007800909DF8000000F0F0009DF800208F
:104FF000904201D1012000E0002050B900BF5020B4
:1050000080F31188BFF34F8FBFF36F8F00BF00BFD6
:10501000FEE79DF8000000F050002E4A10700720B7
:105020002D4A106009E02C480068401E2A4A106092
:105030009DF800004006000E00909DF8000000F072
:1050400080008028EFD024480068C0F107000428C1
:1050500001D1012000E0002050B900BF502080F3B2
:105060001188BFF34F8FBFF36F8F00BF00BFFEE704
:10507000194800680002184A10601046008800F4C1
:10508000E0601060124A019810700F4820300068EC
:1050900040F470000C49203108600846006840F078
:1050A00070400860FFF78EFC00200C490860FBF799
:1050B000E9F80B48006840F0404009490860FBF7F8
:1050C000CDF800201CBD000000ED00E071C20F41D2
:1050D00000E400E0C8000020CC000020C400002054
:1050E00034EF00E010B500BF502080F31188BFF30B
:1050F0004F8FBFF36F8F00BF00F01EFB18B14FF052
:1051000080500449086000BF002080F3118800BF70
:1051100010BD000004ED00E02DE9F84305460E4601
:1051200090460DB1012000E0002050B900BF502092
:1051300080F31188BFF34F8FBFF36F8F00BF00BFA5
:10514000FEE70EB9002701E005FB06F707F1500066
:10515000FFF766F9044644B104F1500943464A4654
:10516000314628460094FEF73BFE2046BDE8F88312
:1051700070B505460E462C4654B900BF502080F34A
:105180001188BFF34F8FBFF36F8F00BF00BFFEE7E3
:10519000FFF786FBD4E90F12206801FB0200606074
:1051A0000020A0632068A060E06B401E226C216894
:1051B00000FB0210E060FF2084F8440084F8450002
:1051C0009EB9206908B9012000E00020A8B904F1C7
:1051D000100000F0B9FB80B14FF080500949086021
:1051E000BFF34F8FBFF36F8F07E004F11000FFF79D
:1051F00021FB04F12400FFF71DFBFFF77BFB0120DF
:1052000070BD000004ED00E02DE9FF4383B00646C9
:1052100088461D464FF00009344654B900BF50205F
:1052200080F31188BFF34F8FBFF36F8F00BF00BFB4
:10523000FEE7B8F1000F01D1206C08B9012000E0B1
:10524000002050B900BF502080F31188BFF34F8F6A
:10525000BFF36F8F00BF00BFFEE7022D02D1E06BEE
:10526000012801D1012000E0002050B900BF5020EA
:1052700080F31188BFF34F8FBFF36F8F00BF00BF64
:10528000FEE700F043FA08B9059808B9012000E0EC
:10529000002050B900BF502080F31188BFF34F8F1A
:1052A000BFF36F8F00BF00BFFEE700BFFFF7F8FA44
:1052B000A06BE16B884201D3022D28D12A464146DA
:1052C0002046FEF7E0FC0746606A08B9012000E0CE
:1052D000002068B904F1240000F036FB88B14FF0DB
:1052E000805032490860BFF34F8FBFF36F8F08E0E3
:1052F0003FB14FF080502D490860BFF34F8FBFF38F
:105300006F8FFFF7F7FA012007B0BDE8F08305982B
:1053100018B9FFF7EFFA0020F6E7B9F1000F04D152
:1053200001A8FFF783FC4FF00109FFF7E3FAFFF74D
:10533000D7FDFFF7B5FA94F94400401C10B90020DE
:1053400084F8440094F94500401C10B9002084F80A
:105350004500FFF7CFFA05A901A800F05DF9F0B903
:105360002046FEF750FEA0B104F110000599FFF7AA
:105370006FFC2046FFF715F800F032FB002895D1AE
:105380004FF0805009490860BFF34F8FBFF36F8F14
:105390008CE72046FFF705F800F022FB86E7204661
:1053A000FEF7FFFF00F01CFB0020ADE704ED00E07E
:1053B0002DE9F05F07468A4690461E463C4654B9A2
:1053C00000BF502080F31188BFF34F8FBFF36F8F62
:1053D00000BF00BFFEE7BAF1000F01D1206C08B991
:1053E000012000E0002050B900BF502080F3118858
:1053F000BFF34F8FBFF36F8F00BF00BFFEE7022EDA
:1054000002D1E06B012801D1012000E0002050B959
:1054100000BF502080F31188BFF34F8FBFF36F8F11
:1054200000BF00BFFEE7FFF7E1FA00BF5021EFF336
:10543000118081F31188BFF34F8FBFF36F8F00BFCF
:105440000546A06BE16B884201D3022E23D194F96B
:1054500045B0324651462046FEF715FC0BF10100DF
:1054600088B9606A08B9012000E0002080B904F121
:10547000240000F069FA58B1B8F1000F08D00120FB
:10548000C8F8000004E00BF1010040B284F84500C8
:105490004FF0010901E04FF0000900BF85F31188CA
:1054A00000BF484600F000B830BCBDE8C09F000017
:1054B0002DE9F74183B005460E464FF000082C4613
:1054C00054B900BF502080F31188BFF34F8FBFF352
:1054D0006F8F00BF00BFFEE70EB9206C08B9012036
:1054E00000E0002050B900BF502080F31188BFF3C6
:1054F0004F8FBFF36F8F00BF00BFFEE700F006F9CC
:1055000008B9059808B9012000E0002050B900BF93
:10551000502080F31188BFF34F8FBFF36F8F00BF10
:1055200000BFFEE700BFFFF7BBF9A76BF7B131463D
:105530002046FEF793FB781EA063206908B901207E
:1055400000E0002060B904F1100000F0FDF938B16E
:105550004FF080502F490860BFF34F8FBFF36F8F1C
:10556000FFF7C8F9012006B0BDE8F081059818B929
:10557000FFF7C0F90020F6E7B8F1000F04D101A849
:10558000FFF754FB4FF00108FFF7B4F9FFF7A8FC51
:10559000FFF786F994F94400401C10B9002084F804
:1055A000440094F94500401C10B9002084F84500DF
:1055B000FFF7A0F905A901A800F02EF8F0B92046E0
:1055C000FEF714FDA0B104F124000599FFF740FB9C
:1055D0002046FEF7E6FE00F003FA0028A3D14FF0C4
:1055E00080500C490860BFF34F8FBFF36F8F9AE76D
:1055F0002046FEF7D6FE00F0F3F994E72046FEF7CA
:10560000D0FE00F0EDF92046FEF7F0FC00288AD02D
:105610000020A8E704ED00E070B505460C4655B93A
:1056200000BF502080F31188BFF34F8FBFF36F8FFF
:1056300000BF00BFFEE754B900BF502080F31188BF
:10564000BFF34F8FBFF36F8F00BF00BFFEE7FFF7C1
:1056500027F9124802686868131A2068401C08B9C4
:10566000002617E00E4928680968884204D0686857
:10567000904201D801260DE02068984207D92068A1
:10568000C01A20602846FFF7D1FA002602E0002069
:1056900020600126FFF72EF9304670BD7000002013
:1056A000840000202DE9FF4F85B0804689461746CB
:1056B000DDE912ABB800FEF7B3FE064656B158203E
:1056C000FEF7AEFE04460CB1266304E03046FFF759
:1056D0002FF900E000247CB10020CDE900ABCDE93A
:1056E00002403A4649464046089BFEF78EFB20465C
:1056F000FEF702FA012501E04FF0FF35284609B018
:1057000000F000B830BCBDE8C08F00000549096852
:1057100009B9012005E00449096809B9022000E03F
:10572000002070477800002094000020014908689C
:1057300070470000700000202DE9F0414FF0000894
:1057400044480068002877D143480068451C424817
:10575000056015BB41480068006808B9012000E0F9
:10576000002050B900BF502080F31188BFF34F8F45
:10577000BFF36F8F00BF00BFFEE7384807683848A7
:105780000068364908603648076036480068401CA3
:1057900034490860FEF72CFD00BF3348006885429D
:1057A0003CD300BF2D480068006808B9012000E024
:1057B000002020B14FF0FF302B4908602DE0274832
:1057C0000068C068C4686668B54202D226480660B0
:1057D00023E0201DFFF71AF8A06A18B104F11800A1
:1057E000FFF714F894F82C10012088401F4909682D
:1057F00008431E490860E16A01EB81011C4A02EB83
:105800008100211DFFF740F81A49E06A0968C96A5A
:105810008842C7D34FF00108C4E700BF15480068AD
:10582000C06A00EB8000124951F82000012801D91C
:105830004FF0010805E0FFE70F480068401C0E49E3
:1058400008600E48006808B14FF001084046BDE806
:10585000F081000094000020700000206000002013
:1058600064000020840000208C00002074000020D0
:10587000580200205C0000207C00002080000020F6
:1058800070B505462C460026002D55D02B480068E3
:10589000844201D1012000E0002050B900BF502017
:1058A00080F31188BFF34F8FBFF36F8F00BF00BF2E
:1058B000FEE7E06C50B900BF502080F31188BFF3C1
:1058C0004F8FBFF36F8F00BF00BFFEE7E06C401E3D
:1058D000E064A16CE06A88422ED0E06C60BB201DC1
:1058E000FEF794FF78B9E06A00EB8000144951F8A4
:1058F000200040B994F82C10012088401149096813
:10590000814310480160A06CE062E06AC0F10500CC
:10591000A06194F82C10012088400A4909680843C6
:1059200008490860E16A01EB8101054A02EB810048
:10593000211DFEF7A9FF0126304670BD5C00002046
:10594000580200207400002070B50646F068C46854
:1059500054B900BF502080F31188BFF34F8FBFF3BD
:105960006F8F00BF00BFFEE704F11800FEF74EFF87
:1059700015480068A8B9201DFEF748FF94F82C10C0
:105980000120884011490968084310490860E16A0C
:1059900001EB81010E4A02EB8100211DFEF774FF2D
:1059A00004E004F118010B48FEF76EFF0A49E06AB3
:1059B0000968C96A884204D901250120074908609D
:1059C00000E00025284670BD9400002074000020EF
:1059D00058020020E40200205C000020800000202B
:1059E00070B5002400263648006850B900BF50202A
:1059F00080F31188BFF34F8FBFF36F8F00BF00BFDD
:105A0000FEE7FEF74DFF2E480068401E2C49086057
:105A10000846006800284FD12A48006800284BD06B
:105A200024E02948C068C46804F11800FEF7EEFEBF
:105A3000201DFEF7EBFE94F82C100120884023492E
:105A40000968084321490860E16A01EB8101204AA5
:105A500002EB8100211DFEF717FF1E49E06A09686D
:105A6000C96A884202D301201B49086016480068B1
:105A700008B9012000E000200028D2D00CB1FEF7C8
:105A8000B7FB1648056865B100BFFFF755FE10B1BA
:105A90000120114908606D1E002DF6D100200F492C
:105AA00008600D48006838B1012630070C490860CD
:105AB000BFF34F8FBFF36F8FFEF71CFF304670BDF3
:105AC000940000206C000020E402002074000020FC
:105AD000580200205C000020800000207C00002094
