:020000040800F2
:10000000E835012009030008ED1B0008931B0008D8
:10001000E91B0008D1060008E526000800000000E2
:10002000000000000000000000000000290200089D
:10003000D50600080000000085020008C51C000865
:1000400023030008230300082303000823030008F8
:1000500023030008230300082303000823030008E8
:1000600023030008230300082303000823030008D8
:1000700023030008230300082303000823030008C8
:1000800023030008230300082303000823030008B8
:1000900023030008230300082303000823030008A8
:1000A0002303000823030008230300082303000898
:1000B00023030008B51D00082303000823030008DC
:1000C0002303000823030008230300082303000878
:1000D00023030008952600082303000823030008D3
:1000E0002303000823030008230300082303000858
:1000F0002303000823030008230300082303000848
:100100002303000823030008F11D0008230300084F
:100110002303000823030008230300082303000827
:100120002303000823030008230300082303000817
:100130002303000823030008230300082303000807
:1001400023030008230300082303000823030008F7
:1001500023030008230300082303000823030008E7
:1001600023030008230300082303000823030008D7
:100170002303000823030008000000000000000023
:10018000230300082303000800F002F800F03CF805
:100190000AA090E8000C82448344AAF10107DA45E2
:1001A00001D100F031F8AFF2090EBAE80F0013F0F8
:1001B000010F18BFFB1A43F001031847C4440000A5
:1001C000E4440000103A24BF78C878C1FAD8520736
:1001D00024BF30C830C144BF04680C6070470000C1
:1001E0000023002400250026103A28BF78C1FBD840
:1001F000520728BF30C148BF0B6070471FB504F0DD
:1002000016FA1FBD10B510BD00F01CFA1146FFF71D
:10021000F5FF02F017FB00F04EFA03B4FFF7F2FF10
:1002200003BC02F061FA00002C4B1968086800F06A
:100230005AB880F30988BFF36F8F4FF0000080F346
:10024000118870470000000008480068006880F3CB
:1002500008884FF0000080F3148862B661B6BFF3DF
:100260004F8FBFF36F8F00DF00BF00BF08ED00E0CE
:10027000DFF80C00016841F470010160704700BFB5
:1002800088ED00E0EFF30980BFF36F8F134B1A681E
:100290001EF0100F08BF20ED108A20E9F04F10600B
:1002A00009B44FF0500080F31188BFF34F8FBFF3B4
:1002B0006F8F03F051FB4FF0000080F3118809BCF1
:1002C0001968086800F014B81EF0100F08BF00F09D
:1002D00014B880F30988BFF36F8F704724000020A3
:1002E000EFF30580704730C8B0E8C04FFFF7A1BFFB
:1002F00030C8B0E8C04FFFF7E7BFB0EC088AB0ECF9
:1003000008CAFFF7E6BF00000948804709480047D0
:10031000FEE7FEE7FEE7FEE7FEE7FEE7FEE7FEE7B5
:10032000FEE7FEE704480549054A064B7047000012
:10033000651D000889010008E82F0120E83501202B
:10034000E8310120E8310120704753EA020C00F047
:1003500069802DE9F04B4FF00006002B1FBFB3FA68
:1003600083F503FA05F424FA05F65E4012BF16433E
:10037000B2FA82F502FA05F4C5F120051EBF22FA91
:1003800005FC44EA0C04203556EA044C4FEA1444B8
:1003900018BF641C4FF000084FF00009904271EB49
:1003A000030C39D3002919BFB1FA81F701FA07F616
:1003B000B0FA80F700FA07F6C7F120071EBF20FA4F
:1003C00007FC46EA0C062037B6FBF4FCA7EB050752
:1003D000103F07F01F0BCBF120060CFA0BFB2CFA99
:1003E00006F644BFB3460026202FA4BF5E464FF05A
:1003F000000B5BEA060C08BF4FF0010B19EB0B0971
:10040000ABFB027C48EB0608C01B06FB02CC0BFBD7
:1004100003CC71EB0C01C1E70B460246414648464E
:10042000BDE8F08B13B54FF000004FF00001AFF3C3
:100430000080BDE81C4070470FB4044910B503AA02
:10044000029800F0AFF810BC5DF814FB1800002013
:10045000032A40F2308010F0030C00F0158011F8F0
:10046000013BBCF1020F624498BF11F801CB00F8C8
:10047000013B38BF11F8013BA2F1040298BF00F81C
:1004800001CB38BF00F8013B11F0030300F02580D9
:10049000083AC0F0088051F8043B083A51F804CB00
:1004A000A0E80810F5E7121D5CBF51F8043B40F8C6
:1004B000043BAFF30080D20724BF11F8013B11F8D1
:1004C00001CB48BF11F8012B24BF00F8013B00F815
:1004D00001CB48BF00F8012B704710B5203AC0F09F
:1004E0000B80B1E81850203AA0E81850B1E8185035
:1004F000A0E81850BFF4F5AF5FEA027C24BFB1E872
:100500001850A0E8185044BF18C918C0BDE81040E2
:100510005FEA827C24BF51F8043B40F8043B08BFEB
:100520007047D20728BF31F8023B48BF11F8012BB2
:1005300028BF20F8023B48BF00F8012B704702F0AB
:10054000FF0343EA032242EA024200F03FB84FF0C1
:10055000000200B5134694469646203922BFA0E813
:100560000C50A0E80C50B1F12001BFF4F7AF09071F
:1005700028BFA0E80C5048BF0CC05DF804EB890010
:1005800028BF40F8042B08BF704748BF20F8022B53
:1005900011F0804F18BF00F8012B7047704770476B
:1005A00070477047074B70B50D467B4400F033F839
:1005B0000446284600F042F810B14FF0FF3070BDFD
:1005C000204670BDE32100004FF000020429C0F076
:1005D000128010F0030C3FF4BCAFCCF1040CBCF162
:1005E000020F18BF00F8012BA8BF20F8022BA1EBC7
:1005F0000C01FFF7AEBF5FEAC17C24BF00F8012BFE
:1006000000F8012B48BF00F8012B704701694A1C14
:1006100002610878704700B58FB0CDE90131002143
:10062000059105497944CDE903101146684600F06B
:100630002EF80FB000BD0000E5FFFFFF007B00F0CB
:1006400080007047754600F03FF8AE4605006946E9
:10065000534620F00700854618B020B5FFF762FE2C
:10066000BDE820404FF000064FF000074FF00008B3
:100670004FF0000B21F00701AC46ACE8C009ACE834
:10068000C009ACE8C009ACE8C0098D4670472DE947
:10069000F04106460024D6E90170F56880463046F0
:1006A00003E04146B847641C3046A8470028F8D10B
:1006B0002046BDE8F08110B50446AFF30080204627
:1006C000BDE81040FFF7A9BD00487047882F012002
:1006D00000BFFEE7704770B50446002594F825007A
:1006E000022803D00420E063012520E02068006890
:1006F00020F00E00216808602068006820F00100EA
:100700002168086094F8440000F01C010120884032
:10071000216C4860012084F8250000BF002084F887
:10072000240000BFA06B10B12046A16B884728466B
:1007300070BD000078B503460022E5E00126964032
:100740000D6805EA0604002C7DD04D68022D02D00C
:100750004D68122D13D1D60803F1200555F8260057
:100760005507EE0E0F25B540A8435607F60E0D6946
:10077000B5402843D60803F1200545F8260018683F
:1007800056000325B540A8430D7905F00305560032
:10079000B540284318604D68012D08D04D68022DE2
:1007A00005D04D68112D02D04D68122D13D19868D7
:1007B00056000325B540A8435600CD68B5402843F0
:1007C0009860586801259540A8430D79C5F3001538
:1007D0009540284358600D7905F00305032D09D194
:1007E000D86A01259540A8430D79C5F3C005954009
:1007F0002843D862D86856000325B540A843560060
:100800008D68B5402843D8604D6805F08055B5F136
:10081000805F78D100BF3F4D2D6E45F001053D4E04
:10082000356635462D6E05F00105009500BF00BF09
:100830004FEAB635960855F8260095072E0F0F2576
:10084000B540A84300E05EE0B3F1904F01D1002530
:100850001EE0314DAB4201D1012519E02F4DAB42D5
:1008600001D1022514E02E4DAB4201D103250FE04A
:100870002C4DAB4201D104250AE02B4DAB4201D1F6
:10088000052505E0294DAB4201D1062500E00725ED
:100890009607360FB5402843254D960845F82600A3
:1008A000244D2868A0434D6805F48035B5F5803F98
:1008B00000D120431F4D28602D1D2868A0434D689E
:1008C00005F40035B5F5003F00D12043194D2D1D2D
:1008D00028602D1D2868A0434D6805F48015B5F5E6
:1008E000801F00D12043134D083528602D1D286836
:1008F000A0434D6805F40015B5F5001F00D1204355
:100900000C4D0C352860521C0D68D540002D7FF42D
:1009100015AF78BD001002400004004800080048F0
:10092000000C00480010004800140048001800485F
:10093000080001400004014042694A40426170479A
:100940000AB1816100E081627047000001480068DF
:10095000704700002000002002480068401C014948
:10096000086070472000002010B50024052000F02A
:1009700073F80F2000F008F808B1012401E000F03E
:100980001BF8204610BD000070B50446002509483C
:1009900000684FF47A71B0FBF1F6304600F04CFD80
:1009A00008B1012504E000222146501E00F012F893
:1009B000284670BD0C000020704700BF00F01F02E9
:1009C000012191404209920002F1E022C2F8001197
:1009D00000BF70472DE9F05F80460D4616460027A0
:1009E00001F006F9074639462A46334601F007006A
:1009F000C0F1070ABAF1040F02D94FF0040A01E06E
:100A0000C0F1070AD14600F1040ABAF1070F02D279
:100A10004FF0000A01E0A0F1030AD4464FF0010AAA
:100A20000AFA09FAAAF1010A0AEA020A0AFA0CFA0F
:100A30004FF0010B0BFA0CFBABF1010B0BEA030BB4
:100A40004AEA0B042146404601F0DAF800F000B80B
:100A500030BCBDE8C09F000000BF00F00702064B9D
:100A600019684FF6FF031940044B0B4343EA022178
:100A7000014B196000BF70470CED00E00000FA0563
:100A80000246B2F5007F2AD11D48006800F4C0601C
:100A9000B0F5007F32D01A48006820F4C06040F4FE
:100AA0000070174B18601748006832235843164BE4
:100AB000B0FBF3F0411C00E0491E1148406900F40E
:100AC0008060B0F5806F01D10029F5D10C484069F4
:100AD00000F48060B0F5806F10D1032070470848A3
:100AE000006800F4C060B0F5806F07D0044800686B
:100AF00020F4C06040F48060014B18600020EDE7F6
:100B0000007000400C00002040420F0002480068C6
:100B100000F4C06070470000007000402DE9F04113
:100B200004460D4614B90120BDE8F081554800681F
:100B300000F00700A8420ED25248006820F00700DB
:100B40002843504908600846006800F00700A842A2
:100B500001D00120E8E7207800F00100002840D013
:100B60006068032806D14848006800F00070D8B9D2
:100B70000120D9E76068022806D14348006800F4E4
:100B8000003088B90120CFE7606830B93E4800687E
:100B900000F0020040B90120C6E73B48006800F4BD
:100BA000806008B90120BFE73748806820F0030063
:100BB0006168084334498860FFF7C8FE064608E0CC
:100BC000FFF7C4FE801B41F28831884201D903201F
:100BD000AAE72D48806800F00C006168B0EB810F37
:100BE000EED1207800F00200022807D12648806864
:100BF00020F0F000A168084323498860214800687C
:100C000000F00700A8420ED91E48006820F0070037
:100C100028431C4908600846006800F00700A84205
:100C200001D0012080E7207800F00400042807D1DB
:100C30001548806820F4E060E16808431249886044
:100C4000207800F00800082808D10F48806820F4B8
:100C50006050216940EAC1000B49886000F044F807
:100C600009498968C1F30311084A515C01F01F0169
:100C7000C840074908600F20FFF786FE0746384640
:100C800052E70000002002400010024038460008F1
:100C90000C00002001480068704700000C00002094
:100CA00000B5FFF7F7FF05498968C1F30221044A3F
:100CB000515C01F01F01C84000BD0000001002405F
:100CC0004846000800B5FFF7E5FF05498968C1F30C
:100CD000C221044A515C01F01F01C84000BD000060
:100CE00000100240484600082DE9F0410024002091
:100CF000DFF800C1DCF808C00CF00C01DFF8F4C02C
:100D0000DCF80CC00CF0030719B10C291ED1012F1F
:100D10001CD1DFF8E0C0DCF800C00CF0080CBCF11E
:100D2000000F06D1DFF8CCC0DCF894C0CCF303246C
:100D300005E0DFF8C0C0DCF800C0CCF30314DFF836
:100D4000B8C05CF8244041B9204606E0042901D12E
:100D50002A4802E0082900D129480C2947D1DFF8A8
:100D600094C0DCF80CC00CF00305DFF888C0DCF898
:100D70000CC0CCF3021C0CF10103012D1FD0022D7D
:100D800002D0032D1AD10CE0DFF870C0BCFBF3FCDD
:100D9000DFF86080D8F80C80C8F306280CFB08F256
:100DA00018E0DFF85CC0BCFBF3FCDFF84880D8F843
:100DB0000C80C8F306280CFB08F20BE000BFB4FB64
:100DC000F3FCDFF83080D8F80C80C8F306280CFB61
:100DD00008F200BF00BFDFF81CC0DCF80CC0CCF389
:100DE000416C0CF1010C4FEA4C06B2FBF6F0BDE889
:100DF000F081000000100240504600080024F4007A
:100E000000127A002DE9F843044614B90120BDE828
:100E1000F883F848806800F00C06F648C06800F0D7
:100E20000307207800F01000102875D11EB10C2E99
:100E300074D1012F72D1EF48006800F0020018B1A0
:100E4000A06908B90120E2E7EA48216A006800F0D9
:100E5000080020B1E748006800F0F00005E0E54830
:100E60009430006800F47060000981421FD9206A44
:100E700000F0DAFE08B10120C9E700BFDD480068D4
:100E800040F00800DB4908600846006820F0F000E8
:100E9000216A0843D749086000BF0846406820F42B
:100EA0007F40E16940EA0120D24948601EE000BF6E
:100EB000D048006840F00800CE4908600846006845
:100EC00020F0F000216A0843CA49086000BF0846C4
:100ED000406820F47F40E16940EA0120C54948604C
:100EE000206A00F0A1FE08B1012090E7FFF7FCFEA8
:100EF000C0498968C1F30311BF4A515C01F01F0169
:100F0000C840BE4908600F20FFF73EFD8046B8F19B
:100F1000000F4ED040467AE74BE0FFE7A06980B370
:100F2000B448006840F00100B2490860FFF70EFDC8
:100F3000054606E0FFF70AFD401B022801D9032001
:100F400065E7AC48006800F002000028F2D000BF5E
:100F5000A848006840F00800A649086008460068F4
:100F600020F0F000216A0843A249086000BF08464B
:100F7000406820F47F40E16940EA01209D494860D3
:100F800017E0FFE79B48006820F0010099490860DE
:100F9000FFF7DCFC054606E0FFF7D8FC401B022803
:100FA00001D9032033E79348006800F002000028CD
:100FB000F2D1207800F0010000285CD0082E03D088
:100FC0000C2E0AD1032F08D18A48006800F40030A3
:100FD00088B3606878BB012019E700BF6068B0F58E
:100FE000803F06D18348006840F480308149086022
:100FF0001AE06068B0F5A02F0BD17E48006840F47D
:1010000080207C4908600846006840F48030086011
:101010000AE07848006820F4803076490860084685
:10102000006820F48020086000BF606890B1FFF77E
:101030008DFC054607E01EE0FFF788FC401B642896
:1010400001D90320E3E66B48006800F40030002873
:10105000F2D010E0FFF77AFC054606E0FFF776FCD9
:10106000401B642801D90320D1E66248006800F4DF
:1010700000300028F2D1207800F00200022852D17E
:10108000042E03D00C2E14D1022F12D1594800681F
:1010900000F4806018B1E06808B90120B7E655484F
:1010A000406820F0F850217C40EA016051494860D6
:1010B00039E0E06800B34F48006840F480704D4963
:1010C0000860FFF743FC054606E0FFF73FFC401BC6
:1010D000022801D903209AE64648006800F480609F
:1010E0000028F2D04348406820F0F850217C40EAC4
:1010F00001604049486016E03E48006820F4807076
:101100003C490860FFF722FC054606E0FFF71EFC9D
:10111000401B022801D9032079E63648006800F414
:1011200080600028F2D1207800F00800082836D12D
:101130006069D0B12F489430006840F001002D491B
:10114000C1F89400FFF702FC054606E0FFF7FEFB3E
:10115000401B022801D9032059E626489430006834
:1011600000F002000028F1D019E022489430006815
:1011700020F001001F49C1F89400FFF7E7FB054686
:1011800006E0FFF7E3FB401B022801D903203EE6FF
:1011900018489430006800F002000028F1D120784F
:1011A00000F00400042870D14FF000091148806D50
:1011B00000F0805078B900BF0E48806D40F080503C
:1011C0000C4988650846806D00F08050009000BF93
:1011D00000BF4FF001090A48006800F48070F0B9C0
:1011E0000748006840F4807005490860FFF7AEFBCF
:1011F00005460EE000100240384600080C000020B2
:1012000000700040FFF7A2FB401B022801D9032019
:10121000FDE57C48006800F480700028F2D000BF33
:10122000A068012808D17848006840F0010076499C
:101230009039C1F8900021E0A06805280FD17248CC
:10124000006840F0040070499039C1F890000846E9
:10125000D0F8900040F00100C1F890000EE06A481C
:10126000006820F0010068499039C1F890000846F4
:10127000D0F8900020F00400C1F8900000BFA068F2
:10128000A0B1FFF763FB054609E02EE0FFF75EFB28
:10129000401B41F28831884201D90320B7E55A4802
:1012A000006800F002000028F0D012E0FFF74EFBCB
:1012B000054608E0FFF74AFB401B41F288318842AF
:1012C00001D90320A3E55048006800F0020000287F
:1012D000F0D1B9F1010F07D14B489038806D20F063
:1012E000805049499039886500BFA06AF0B30C2E40
:1012F00074D0A06A022853D143489038006820F087
:101300008070414990390860FFF720FB054606E0F0
:10131000FFF71CFB401B022801D9032077E53A4860
:101320009038006800F000700028F1D1206B401E5A
:101330000101606B41EA0021A06B000941EA4040D5
:10134000E16A0843A18F0122C2EB510140EA4151F9
:101350004020005DC2EB500041EA40602A499039CC
:10136000C8600846006840F0807000E048E008600F
:101370000846C06840F08070C860FFF7E7FA05468D
:1013800006E0FFF7E3FA401B022801D903203EE5FF
:101390001D489038006800F000700028F1D02FE060
:1013A00019489038006820F080701749903908601B
:1013B0000846006800F0205020B90846C06820F0B8
:1013C0000300C86010489038C068104908400E49B2
:1013D0009039C860FFF7BAFA054607E00EE0FFF75C
:1013E000B5FA401B022801D9032010E506489038C1
:1013F000006800F000700028F1D101E0012006E54E
:10140000002004E50070004090100240FFFFEEFE57
:10141000042808D14FF0E021096941F004014FF0A0
:10142000E022116107E04FF0E021096921F0040199
:101430004FF0E0221161704770B504462546681EE2
:10144000B0F1807F01D301200FE0681E4FF0E02152
:1014500048610F214FF0FF3000F0D2FB00204FF029
:10146000E021886107200861002070BD7047704747
:10147000704710B504460CB9012010BD94F83D002A
:1014800028B9002084F83C00204600F00DF8022026
:1014900084F83D00211D206800F0C8FC012084F87C
:1014A0003D000020E9E7000038B504461A492068ED
:1014B000884216D100BF1948806D40F002001749DC
:1014C00088650846806D00F00200009000BF00BFF4
:1014D000002204211D20FFF77DFA1D20FFF76DFA81
:1014E00019E00F492068884215D100BF0B48806D74
:1014F00040F00800094988650846806D00F0080042
:10150000009000BF00BF002205213220FFF762FAE1
:101510003220FFF752FA38BD0004004000100240AC
:10152000000C004001460868C06840F001000A68ED
:10153000D060086880680B4A1040062805D008680B
:1015400080681040B0F5803F01D1012000E000200C
:1015500028B90868006840F001000A68106000209F
:101560007047000007000100704710B5044620686E
:101570000069C0F34000D8B12068C068C0F34000E3
:10158000B0B16FF002002168086101202077206867
:10159000806900F0030018B12046FFF7E5FF05E081
:1015A000204600F0BEF8204600F0BCF8002020776E
:1015B00020680069C0F38000D8B12068C068C0F31B
:1015C0008000B0B16FF0040021680861022020772C
:1015D0002068806900F4407018B12046FFF7C4FF0E
:1015E00005E0204600F09DF8204600F09BF8002022
:1015F000207720680069C0F3C000D8B12068C068B7
:10160000C0F3C000B0B16FF0080021680861042089
:1016100020772068C06900F0030018B12046FFF76A
:10162000A3FF05E0204600F07CF8204600F07AF8A1
:101630000020207720680069C0F30010D8B120682E
:10164000C068C0F30010B0B16FF0100021680861ED
:10165000082020772068C06900F4407018B1204647
:10166000FFF782FF05E0204600F05BF8204600F01F
:1016700059F8002020772068006900F0010058B177
:101680002068C06800F0010030B16FF001002168EF
:101690000861204600F048F820680069C0F3C010D7
:1016A00058B12068C068C0F3C01030B16FF080003E
:1016B000216808612046FFF7DAFE20680069C0F360
:1016C000002058B12068C068C0F3C01030B16FF47A
:1016D0008070216808612046FFF7C8FE2068006915
:1016E000C0F3801058B12068C068C0F3801030B1DA
:1016F0006FF0400021680861204600F03DF8206846
:101700000069C0F3401058B12068C068C0F34010B1
:1017100030B16FF02000216808612046FFF7A8FE75
:1017200010BD70477047000010B504460648A0423F
:1017300003D106A0FEF780FE05E00948A04202D1D1
:1017400008A0FEF779FE10BD082F012054494D3343
:1017500020E8BE93E587BA2E2E2E2E0D0A0000003B
:10176000482F012054494D3520E8BE93E587BA2E15
:101770002E2E2E0D0A00000070477047704701465C
:101780000022002391F8712091F8723042EA0300A0
:10179000704700002DE9F04104462068C5692068C3
:1017A00006682068876805F00F08B8F1000F0CD1B3
:1017B00005F0200048B106F0200030B1206E10B1D5
:1017C0002046216E8847BDE8F081B8F1000F7FD038
:1017D00007F0010018B906F49070002878D005F0E1
:1017E000010048B106F4807030B101202168086220
:1017F000606F40F00100606705F0020048B107F03B
:10180000010030B1022021680862606F40F00400DE
:10181000606705F0040048B107F0010030B1042012
:1018200021680862606F40F00200606705F0080000
:1018300060B106F0200010B907F0010030B10820B7
:1018400021680862606F40F008006067606F78B3DD
:1018500005F0200038B106F0200020B1206E10B154
:101860002046216E8847606F00F0080028B9206884
:10187000806800F04000402824D1204600F0FEFBA4
:101880002068806800F04000402817D120688068F8
:1018900020F0400021688860E06E58B11F48E16E7A
:1018A0008863E06EFEF717FF10B1E06E816B88472A
:1018B0000DE00DE02046FFF761FF08E02046FFF74E
:1018C0005DFF04E02046FFF759FF002060677AE7DC
:1018D00005F4801050B107F4800038B14FF4801047
:1018E000216808622046FFF748FF6CE705F080009A
:1018F00040B106F0800028B1606E10B12046616EE4
:10190000884760E705F0400030B106F0400018B1AC
:10191000204600F0C5FB56E700BF54E765200008ED
:1019200010B504460CB9012010BDA06900B100E05B
:1019300000BF94F8710028B9002084F87000204698
:1019400000F02AF8242084F871002068006820F054
:10195000010021680860204600F01CFC012800D12D
:10196000E2E7606A10B1204600F0C6FA20684068DD
:1019700020F49040216848602068806820F02A00A8
:10198000216888602068006840F0010021680860D4
:10199000204600F02DFBC7E710B586B0044620496D
:1019A0002068884239D100BF1E48C06C40F0010059
:1019B0001C49C8640846C06C00F00100009000BFDC
:1019C00000BF00BF0846006E40F48040086608462D
:1019D000006E00F48040009000BF00BF48150190E9
:1019E000022002900120039002200490072005901D
:1019F00001A94FF09040FEF79DFE4FF480600190EA
:101A000001A94FF09040FEF795FE2520FEF7D5FF87
:101A1000032211462520FEF7DDFF06B010BD0000B1
:101A2000003801400010024010B5034693F87200E0
:101A3000202862D101B10AB9012010BD00BF93F87E
:101A40007000012801D10220F7E7012083F870001F
:101A500000BF5965A3F85820A3F85A200020186643
:101A600000BF9868B0F5805F0AD1186920B940F2CC
:101A7000FF10A3F85C001CE0FF20A3F85C0018E056
:101A8000986848B9186918B9FF20A3F85C0010E0FD
:101A90007F20A3F85C000CE09868B0F1805F08D16B
:101AA000186918B97F20A3F85C0002E03F20A3F872
:101AB0005C0000BF00205867222083F8720018687D
:101AC000806840F001001C68A0609868B0F5805FF5
:101AD00004D1186910B90A48186601E00948186667
:101AE00000BF002083F8700000BF1868006840F451
:101AF00090701C68206000209FE702209DE7000096
:101B0000C32000082F2100081D4A0168914236D1E8
:101B10001C49098801F4004189BB1A49098801F46C
:101B2000804171B1184909780A2903D00021154A6A
:101B3000118024E01349098841F40041114A1180C1
:101B40001DE0114909780D2906D10E49098841F493
:101B500080410C4A118012E00B490978094A128829
:101B6000C2F30D02094B995406490988491C054ADC
:101B7000118011460988C72901DD002111807047B5
:101B8000003801401C0000201E00002098000020AA
:101B9000704700BFFEE7000000B587B000BF1048E7
:101BA000C06C40F010000E49C8640846C06C00F0DC
:101BB0001000019000BF00BF4FF460700290012040
:101BC000039004900220059002A90648FEF7B2FD9A
:101BD00001224FF460710348FEF7B2FE07B000BD6A
:101BE000001002400010004800BFFEE770470000F0
:101BF00002480068C0F30220704700000CED00E0CE
:101C000010B5002807DA0A07140E054A00F00F0382
:101C10001B1FD45403E00A07130E024A135410BDCD
:101C200018ED00E000E400E0F8B504460026234883
:101C3000806D00F0805018B1FEF768FF054616E091
:101C400000BF1E48806D40F080501C4988650846E2
:101C5000806D00F08050009000BF00BFFEF756FF7F
:101C600005461648806D20F0805014498865B5F50A
:101C7000007F07D1802C10D9A02C01D902260CE0BE
:101C800001260AE0802C01D9032606E0802C01D130
:101C9000022602E0702C00D101260948006820F0DD
:101CA00007003043064908600846006800F0070056
:101CB000B04201D00120F8BD0020FCE70010024036
:101CC0000020024010B502F055FA012801D001F0C1
:101CD0003DFFFEF741FE10BD10B598B0002400BFD7
:101CE0001F48806D40F080501D4988650846806D12
:101CF00000F08050019000BF00BF01200790000459
:101D000008900220119003211291012113911421B6
:101D100014910721159102211691179107A8FFF739
:101D200071F804460CB100BFFEE70F2002900320BB
:101D300003900020049005900690042102A8FEF76D
:101D4000EDFE04460CB100BFFEE74FF40070FEF755
:101D500097FE04460CB100BFFEE718B010BD0000AE
:101D6000001002401048006840F470000E490860FE
:101D70000E48006840F001000C49086000208860AF
:101D8000084600680A490840084908608814C86085
:101D90000846006820F48020086000208861C8039D
:101DA000014980390860704788ED00E0001002406A
:101DB000FFFFF6EA10B50248FFF7D7FB10BD0000A1
:101DC000082F012070B505460C46074807490860F2
:101DD0000846446000218160C5600161FFF749FB4E
:101DE0000248FFF79FFB70BD00040040082F012050
:101DF00010B50248FFF7B9FB10BD0000482F0120C5
:101E000070B505460C460748074908600846446017
:101E100000218160C5600161FFF72BFB0248FFF7DD
:101E200081FB70BD000C0040482F012010B50268F6
:101E3000294B98420ED0B0F1804F0BD0274B9842DF
:101E400008D0274B984205D0264B984202D0264B0B
:101E5000984203D122F070024B681A431E4B9842FD
:101E600017D0B0F1804F14D01C4B984211D01C4BAE
:101E700098420ED01B4B98420BD01B4B984208D077
:101E80001A4B984205D01A4B984202D0194B9842EF
:101E900003D122F44072CB681A4322F080034C69CC
:101EA00043EA040202608B68C3620B6883620A4BD8
:101EB00098420BD00C4B984208D00C4B984205D05E
:101EC0000B4B984202D00B4B984201D10B69036334
:101ED0000123436110BD0000002C014000040040BC
:101EE00000080040000C0040003401400040014068
:101EF000004401400048014090F8241001F0010125
:101F000039B10168496821F40031826A11430268DD
:101F1000516090F8241001F00201022907D10168F4
:101F2000496821F48031C26A11430268516090F817
:101F3000241001F00401042907D10168496821F443
:101F40008021026B11430268516090F8241001F067
:101F50000801082907D10168496821F40041426B52
:101F600011430268516090F8241001F0100110290B
:101F700007D10168896821F48051826B114302689E
:101F8000916090F8241001F02001202907D1016808
:101F9000896821F40051C26B11430268916090F886
:101FA000241001F04001402913D10168496821F44F
:101FB0008011026C114302685160016CB1F5801F01
:101FC00007D10168496821F4C001426C11430268DD
:101FD000516090F8241001F08001802907D1016838
:101FE000496821F40021826C1143026851607047F6
:101FF00038B50446002500206067FEF7A7FC0546BB
:102000002068006800F0080008280CD16FF07E40BE
:102010002B4600224FF400110090204600F003FBF5
:1020200008B1032038BD2068006800F004000428CF
:102030000CD16FF07E402B4600224FF480010090BF
:10204000204600F0F0FA08B10320EBE7202084F8E6
:10205000710084F8720000BF002084F8700000BF97
:1020600000BFDFE770B50546AC6A0020A4F85A004F
:10207000A4F852002046FFF781FB70BD0168096893
:1020800021F49071026811600168896821F00101F2
:1020900002689160202180F872100021016670476B
:1020A00010B504462068006820F0400021680860F0
:1020B000202084F87100002060662046FFF768FD4C
:1020C00010BD2DE9F0410446B4F85C7094F872003C
:1020D000222824D12068868C656D06EA07002880B6
:1020E000606D801C6065B4F85A00401E80B2A4F890
:1020F0005A00D0B92068006820F490702168086008
:102100002068806820F0010021688860202084F821
:102110007200002020662046FFF7F6FC05E02068EC
:10212000008B40F0080021680883BDE8F08170B59D
:102130000446B4F85C6094F87200222823D1206829
:10214000858CF0B22840626D511C61651070B4F846
:102150005A00401E80B2A4F85A00D0B92068006826
:1021600020F49070216808602068806820F00100E9
:1021700021688860202084F87200002020662046B4
:10218000FFF7C2FC05E02068008B40F008002168E2
:10219000088370BD2DE9F84F04464FF00009102662
:1021A0004FF0000B0025002000908246F749206880
:1021B000884200D100E000BF2169A068084361693E
:1021C0000843E16940EA010920680068F0490840D5
:1021D00040EA0900216808602068406820F4405007
:1021E000E168084321684860D4F81890E7492068FE
:1021F000884202D0206A40EA09092068806820F4F9
:10220000306040EA09002168886000BFE149206829
:10221000884216D1E048006800F0030030B1012880
:1022200008D0022804D0032808D105E0012607E0E1
:10223000022605E0042603E0082601E0102600BF80
:102240008CE0D6492068884216D1D348006800F057
:102250000C0030B1042808D0082804D00C2808D17C
:1022600005E0002607E0022605E0042603E0082634
:1022700001E0102600BF71E0C9492068884216D1EC
:10228000C548006800F0300030B1102808D0202880
:1022900004D0302808D105E0002607E0022605E03A
:1022A000042603E0082601E0102600BF56E0BD49E1
:1022B0002068884216D1B848006800F0C00030B1EC
:1022C000402808D0802804D0C02808D105E0002686
:1022D00007E0022605E0042603E0082601E01026B8
:1022E00000BF3BE0B0492068884219D1AA48006885
:1022F00000F4407048B1B0F5807F0AD0B0F5007F9F
:1023000005D0B0F5407F08D105E0002607E00226A1
:1023100005E0042603E0082601E0102600BF1DE0CA
:102320009A492068884219D19B48006800F44060AF
:1023300048B1B0F5806F0AD0B0F5006F05D0B0F5A8
:10234000406F08D105E0002607E0022605E00426DC
:1023500003E0082601E0102600BF00BF00BF8B4944
:102360002068884272D1042E10D003DC3EB1022EC8
:1023700013D108E0082E0DD0102E0ED10EE0FEF77E
:102380008FFC82460DE0DFF824A20AE0FEF7ACFCE9
:10239000824606E04FF4004A03E000BF01200090AF
:1023A00000BF00BFBAF1000F0AD0606800EB400028
:1023B000504503D860680003504502D201200090C8
:1023C00025E1042E2ED003DC3EB1022E51D118E0BF
:1023D000082E3CD0102E4CD14CE0FEF761FC4FF49F
:1023E0008071A0FB0131606840081F1841F10001B5
:1023F000D4F804C0624600233846FDF7A6FF054620
:102400003BE0D4F804C04FEA5C000021684BC718D9
:1024100041EB010862460B4638464146FDF795FF01
:1024200005462AE0FEF760FC4FF48071A0FB013006
:10243000616849085F1840F10001D4F804C06246A1
:1024400000233846FDF781FF054616E022E0D4F868
:1024500004C04FEA5C0000214FF40003C71841EBB1
:10246000010862460B4638464146FDF76EFF0546B9
:1024700003E000BF0120009000BF00BFB5F5407F22
:1024800005D3B5F5801F02D22068C560BFE00120EA
:102490000090BCE0E069B0F5004F57D1042E28D081
:1024A00005DC4EB1012E11D0022E36D118E0082ED7
:1024B00029D0102E31D131E0FEF7F2FB40006168E7
:1024C00000EB5100B0FBF1F085B22AE0FEF7FAFB19
:1024D0004000616800EB5100B0FBF1F085B220E0F4
:1024E0003449606801EB50006168B0FBF1F085B2DF
:1024F00017E0FEF7F9FB4000616800EB5100B0FB0C
:10250000F1F085B20DE04FF48031606801EB5000CE
:102510006168B0FBF1F085B203E000BF01200090DC
:1025200000BF00BF102D0ED3B5F5803F0BD24FF684
:10253000F07005EA000BC5F342004BEA000B20687F
:10254000C0F80CB063E00120009060E0042E3CD0A5
:1025500005DC4EB1012E10D0022E49D12CE0082E00
:102560003CD0102E44D144E0FEF79AFB616800EBAA
:102570005100B0FBF1F085B23EE0FEF7A3FB6168CD
:1025800000EB5100B0FBF1F085B235E00080004077
:10259000F369FFEF0038014088100240004400401A
:1025A00000480040004C0040005000400024F4006F
:1025B000000024F40048E8011849606801EB50006D
:1025C0006168B0FBF1F085B216E0FEF78DFB616843
:1025D00000EB5100B0FBF1F085B20DE04FF400418B
:1025E000606801EB50006168B0FBF1F085B203E078
:1025F00000BF0120009000BF00BF102D05D3B5F52E
:10260000803F02D22068C56001E0012000900020D8
:1026100020666066009800F003B800000024F40013
:1026200018BCBDE8E08F2DE9F04104460D46174681
:102630009846069E21E0701CF8B12EB1FEF786F98F
:10264000A0EB0800B04218D92068006820F4D070D0
:10265000216808602068806820F001002168886097
:10266000202084F8710084F8720000BF002084F8F4
:10267000700000BF0320BDE8F0812068C0692840D9
:10268000A84201D1012000E00020B842D3D00020B0
:10269000F1E7000070B500240F4D1048FFF77AF8FD
:1026A00000BF03E0641CAC4200D904E00B48FFF714
:1026B00066F82028F6D100BF002403E0641CAC4279
:1026C00000D906E0012206490448FFF7ADF90028C9
:1026D000F4D100BF70BD0000FFFF010060010020C9
:1026E0001E00002000BFFEE700BF704770B5044623
:1026F0000420FEF78DFE0C48046025464FF47A70E6
:1027000045430120094908804FF0E020006940F06E
:1027100002004FF0E021086108464561006940F081
:102720000100086170BD00001000002014000020AE
:1027300070B5034600224FF0E02675690D4E3668ED
:1027400003FB06F44FF0E026B16910E04FF0E026FD
:10275000B06988420BD0884202D20E1A324402E09D
:102760002E1A0E4432440146A24200D300E0EDE7A7
:1027700000BF70BD1000002030B50446002504E005
:102780004FF47A70FFF7D4FF6D1CA542F8D330BD2B
:1027900000BF054A126802F04002002AF9D0C2B216
:1027A000014B0C331A8070471C38014029E0154852
:1027B0000068401C1349086008460068052817D1C6
:1027C00011A0FDF739FE00BF502080F31188BFF340
:1027D0004F8FBFF36F8F00BF41F28830FFF7CCFF00
:1027E00010A0FDF729FE002080F3118800BF00BF74
:1027F0004FF400711248FEF79FF84FF47A7000F022
:1028000063FFD4E708000020E585B3E997ADE4B89D
:10281000ADE696AD2E2E2E2E2E2E2E2E2E2E2E2EBA
:102820002E0D0A00E68993E5BC80E4B8ADE696ADCE
:102830002E2E2E2E2E2E2E2E2E2E2E2E2E0D0A002B
:10284000001000481CB5FEF78FF8FFF745FAB420DA
:10285000FFF74CFFFFF7A0F94FF4E13000F0B0FDB7
:1028600042F2273142F20F70FFF7ACFA42F2273101
:1028700042F20F70FFF7C4FA0648012100230A0252
:10288000CDE9001004A1074801F040FC01F012F866
:1028900000201CBD0000002073746172745F7461BD
:1028A000736B0000793300082DE9F04105460E46B0
:1028B0001C4807681C480068001D00F09DFD50B9C9
:1028C0001948006890F82C100120884017490968C1
:1028D000814316480160681C38B936B11248016856
:1028E000091D134800F0C6FD1AE07C190E48006867
:1028F0004460BC4207D20C480168091D0D480068BD
:1029000000F09EFD0CE008480168091D0A480068B7
:1029100000F096FD09480068844201D2074804602F
:10292000BDE8F08138000020240000203C00002099
:10293000CC0200202C0000202800002054000020A1
:1029400010B5044600F0A2FD24480068401C23494D
:1029500008602348006840B92148046008460068C0
:1029600001280DD100F0D2F90AE01E48006838B9FC
:102970001B480068C06AE16A884201D818480460B0
:1029800019480068401C184908600846006820641F
:1029900094F82C1001208840144909680843134911
:1029A0000860E16A01EB8101114A02EB8100211DFF
:1029B00000F060FD00F094FD0A48006868B1084826
:1029C0000068C06AE16A884207D24FF08050094926
:1029D0000860BFF34F8FBFF36F8F10BD340000202E
:1029E0002400002040000020500000203C00002077
:1029F0001802002004ED00E010B500F047FD10487B
:102A00000068D0B90F4800F00BFD0F4800F008FD3A
:102A10000C480E4908600C480D49086000220C2142
:102A20000A2001F0ADF8064908600846006820B1A8
:102A300008A10348006800F00BFE00F051FD10BD36
:102A400068000020E0020020F40200206000002066
:102A500064000020546D72510000000010B516E0B3
:102A600000F014FD0C48C068C468201D00F0C4FCD0
:102A70000A480068401E0949086009480068401E6D
:102A80000749086000F02CFD204600F05EF804487D
:102A900000680028E4D110BDB802002034000020F6
:102AA0003000002070B504460D46206C70B1216CDA
:102AB000E0680844E0606168E068884201D320680B
:102AC000E0602846226CE168FDF7C2FC70BD2DE98C
:102AD000F04104460F4615464FF00008A66B206CE7
:102AE00040B9206860BB606801F0FEFB80460020B2
:102AF000606025E07DB93946226CA068FDF7A8FC2E
:102B0000216CA0680844A060D4E90110884217D362
:102B10002068A06014E03946226CE068FDF798FC5C
:102B2000216CE068401AE0602168E068884203D2C6
:102B3000216C6068401AE060022D01D106B1761E5A
:102B4000701CA0634046BDE8F08110B50446206BC0
:102B500000F0E4FC204600F0E1FC10BD0146084A0C
:102B6000126812680AB9012200E000220A600A68AD
:102B700022B9034A1268D268106800E0002070474A
:102B80006000002030B54FF49633174800F007047A
:102B90002CB1C01D20F00700134C041B1B1B024668
:102BA000124C22600024114D6C60D018083820F0BF
:102BB00007000F4C206000240D4D2D686C600C4DFB
:102BC0002D682C601146441A4C60094C24680C6036
:102BD000084D4C682C60084D4C682C604FF0004448
:102BE000064D2C6030BD000008030020740000205A
:102BF0007C0000208400002080000020880000204D
:102C000000BFFFF72BFF064800680128F9D94FF0F5
:102C1000805004490860BFF34F8FBFF36F8FF0E718
:102C20001802002004ED00E02DE9F04106460D46B3
:102C300017469846069C0DB9246000E02760E663BD
:102C400025640121204600F0C7FF84F84C80BDE8D0
:102C5000F0812DE9F05F82460F4690469B460A9E22
:102C60000C9C4FEA8801A522206BFDF768FCA8F1B7
:102C70000100216B01EB800929F0070909F0070029
:102C800008B9012000E0002050B900BF502080F3B7
:102C90001188BFF34F8FBFF36F8F00BF00BFFEE7F8
:102CA000002507E0795D04F134004155785D00B9F5
:102CB00002E06D1C0A2DF5D300BF00213D20015517
:102CC000052E00D30426E662A6640020E064201DE1
:102CD00000F0B3FB04F1180000F0AFFB2461C6F173
:102CE0000500A06164620020206584F854005A4603
:102CF0005146484600F02AFB20600B9808B10B981B
:102D0000046000F000B830BCBDE8C09F10B50024DE
:102D100007E004EB84010F4A02EB810000F080FB26
:102D2000641C052CF5D30C4800F07AFB0B4800F02E
:102D300077FB0B4800F074FB0A4800F071FB0A486F
:102D400000F06EFB0448094908600448084908601F
:102D500010BD0000180200207C020020900200201C
:102D6000A4020020B8020020CC020020280000208D
:102D70002C00002010B50146164800E000680368EA
:102D80008B42FBD30246436813448B4204D1436811
:102D90004C682344436001460A464B681344046868
:102DA000A34211D10C4C03682468A34208D04B689D
:102DB0000468646823444B6003681B680B6005E08B
:102DC000054B1B680B6001E003680B60884200D074
:102DD000016010BD740000207C0000202DE9F0414E
:102DE00004460D4616461F464FF0000865602461F4
:102DF000B5420CD8F01BA169884202D34FF00108FC
:102E000011E0211D0948006800F01AFB0BE0BE42EA
:102E100004D2BD4202D34FF0010804E0211D044852
:102E2000006800F00DFB4046BDE8F0816400002022
:102E30006000002070B5054600F028FBA86B08B9BB
:102E4000012400E0002400F04BFB204670BD70B56B
:102E5000054600F01BFBA86BE96B884201D10124F9
:102E600000E0002400F03CFB204670BDF8B50546AC
:102E70000F4616480068C068C468201D00F0BCFA00
:102E8000E06901281DD1A06941192B463A46204628
:102E9000FFF7A4FFA8B1002003462A460146009090
:102EA000204601F07FFB064656B900BF502080F354
:102EB0001188BFF34F8FBFF36F8F00BF00BFFEE7D6
:102EC00000BF2046616A8847F8BD0000600000200E
:102ED00070B586B06AE00398002867DB059C6069DE
:102EE00008B9012000E0002010B9201D00F084FA8C
:102EF00002A800F0BBF8054603980A2854D2DFE880
:102F000000F009050731334F0608323400BF00BF17
:102F100000BF00BF0498A269811803462A462046D4
:102F2000FFF75CFFE8B12046616A8847E069012845
:102F300017D1002000900498A16942180023194677
:102F4000204601F02FFB064656B900BF502080F303
:102F50001188BFF34F8FBFF36F8F00BF00BFFEE735
:102F600000BF22E000BF20E000BF0498A061A0697C
:102F700008B1012000E0002050B900BF502080F3CC
:102F80001188BFF34F8FBFF36F8F00BF00BFFEE705
:102F9000A06941192B462A462046FFF71FFF04E08F
:102FA000204600F0BBFA00E000BF00BF002203A9EA
:102FB0000348006800F0B0FF00288CD106B070BD57
:102FC00068000020F8B505460C4600F0BDFC6846D8
:102FD00000F04CF80646009820BB44B9B54206D82C
:102FE00001F032FA31462846FFF740FF1CE03CB1C1
:102FF0000E480068006808B9012000E0002004467F
:10300000A91B22460A48006800F038FB01F01CFAB0
:1030100050B94FF0805007490860BFF34F8FBFF39E
:103020006F8F01E001F010FAF8BD0000640000208D
:103030006800002004ED00E00A490968096809B940
:10304000012100E0002121B14FF0FF31064A11605B
:1030500006E004490968C968C868034A4168116004
:1030600070470000280000205400002070B504467E
:1030700001F090F8054607480068854204D200F048
:103080000BF80120206001E000202060014805606D
:10309000284670BD700000202DE9F84332E0244836
:1030A0000068C068056822480068C068C468201DC0
:1030B00000F0A2F92046616A8847E069012821D121
:1030C000A0694619AE4207D966602461211D1848DF
:1030D000006800F0B5F915E0002003462A460146D5
:1030E0000090204601F05EFA074657B900BF502015
:1030F00080F31188BFF34F8FBFF36F8F00BF00BF06
:10310000FEE700BF0A480068006808B9012000E037
:1031100000200028C3D00648D0F800800548006889
:10312000034908600348C0F80080BDE8F883000048
:1031300060000020640000200E480068401C08B9B0
:10314000012000E0002050B900BF502080F311881A
:10315000BFF34F8FBFF36F8F00BF00BFFEE700BF0D
:10316000502080F31188BFF34F8FBFF36F8F00BFE4
:1031700000BFFEE78C00002008B500BF6846FFF7DF
:10318000EDFC044620460099FFF71CFFFFF7A0FE68
:10319000F4E770B5044600F079F994F9455010E071
:1031A000606A08B9012000E0002038B904F1240069
:1031B00001F0FEF818B100F03BFB00E003E0681EF0
:1031C00045B2002DECDC00BFFF2084F8450000F084
:1031D00087F900F05BF994F9445010E0206908B9D0
:1031E000012000E0002048B904F1100001F0E0F8EF
:1031F00008B100F01DFB681E45B200E001E0002DA3
:10320000ECDC00BFFF2084F8440000F069F970BDD9
:103210002DE9F04104464FF0000800F095FB4648C8
:10322000006808B9FFF7AEFC444800682040002859
:103230006BD1D4B1083404F00700B0B104F007003A
:10324000C0F10800044404F0070008B9012000E0C0
:10325000002050B900BF502080F31188BFF34F8F7A
:10326000BFF36F8F00BF00BFFEE7002C4DD0344886
:103270000068844249D8334E3046056801E02E4646
:103280002D686868A04202D228680028F7D12A4831
:103290000068854239D0306800F10808286830603D
:1032A0006868001B102819D92F1907F0070008B902
:1032B000012000E0002050B900BF502080F31188A9
:1032C000BFF34F8FBFF36F8F00BF00BFFEE768688B
:1032D000001B78606C603846FFF74CFD1849686841
:1032E0000968081A164908600846006816490968FE
:1032F000884203D212480068134908600F49686881
:103300000968084368600020286001F09DF808F013
:10331000070008B9012000E0002050B900BF50208C
:1033200080F31188BFF34F8FBFF36F8F00BF00BFD3
:10333000FEE74046BDE8F0817C00002088000020C8
:10334000800000207400002084000020001F4FF047
:1033500080730360001F21F001030360001F054B11
:10336000036014380260001F6FF00203036020380E
:1033700070470000393100081CB5044600F086F89B
:10338000084802210023CA01CDE9001006A10A481D
:1033900000F0BCFE0948006800F0C4F900F0A0F895
:1033A0001CBD000004000020696E746572727570A7
:1033B000745F7461736B0000AD270008000000208B
:1033C00010B5044609480A490860084644600021CF
:1033D0008160C160016181610C214161FEF7A0FA49
:1033E000012204490248FEF71FFB10BD00380140CE
:1033F000600100201E00002001460A69D1E9013069
:103400009860D1E9010358605068884201D188680A
:103410005060002008611068401E106010687047FE
:1034200000F1080141604FF0FF31816000F10801B7
:10343000C160016100210160704700210161704796
:1034400010B502460B685C1C0CB9106907E002F16C
:10345000080000E04068446824689C42FAD9446847
:103460004C604C68A160886041600A611468641C0B
:10347000146010BD42684A6093688B60936859601D
:103480009160086103685B1C0360704700BF5020B7
:1034900080F31188BFF34F8FBFF36F8F00BF0E48CB
:1034A0000068401C0C49086008460068012812D1D9
:1034B0000A480068C0B208B9012000E0002050B9F5
:1034C00000BF502080F31188BFF34F8FBFF36F8F81
:1034D00000BF00BFFEE770478C00002004ED00E055
:1034E0000D48006850B900BF502080F31188BFF329
:1034F0004F8FBFF36F8F00BF00BFFEE70648006825
:10350000401E054908600846006820B9002080F385
:10351000118800BF00BF70478C00002070B50646C0
:103520003546002E3FD0083D2C461F49606809688B
:10353000084008B1012000E0002050B900BF502031
:1035400080F31188BFF34F8FBFF36F8F00BF00BFB1
:10355000FEE7206808B9012000E0002050B900BF54
:10356000502080F31188BFF34F8FBFF36F8F00BFE0
:1035700000BFFEE70C4960680968084098B1206800
:1035800088B90949606809688843606000F0DCF91F
:103590000649606809680844044908602046FFF746
:1035A000E9FB00F051FF70BD880000208000002082
:1035B00000204FF0E02108618861064800684FF460
:1035C0007A71B0FBF1F0401E4FF0E0214861072016
:1035D000086170470C00002070B5FCF781FE0446BE
:1035E000102C16D304F1E02090F8F0531548007821
:1035F000854201DB012000E0002050B900BF5020CF
:1036000080F31188BFF34F8FBFF36F8F00BF00BFF0
:10361000FEE70D48006800F4E0600C490968884244
:1036200001D8012000E0002050B900BF502080F3F5
:103630001188BFF34F8FBFF36F8F00BF00BFFEE74E
:1036400070BD0000900000200CED00E09400002010
:10365000024600200BE0084B53F8303033B9064BDC
:1036600043F8301003EBC0035A6002E0401C082806
:10367000F1D300BF70470000D80100202DE9F041D0
:1036800005460E4617462C46FFF700FF94F9440006
:10369000401C10B9002084F8440094F94500401CF7
:1036A00010B9002084F84500FFF71AFFA06B28B975
:1036B0003A46314604F1240000F0DCF82046FFF7DA
:1036C00068FDBDE8F081000070B504460025D4B166
:1036D0001248006808B9012000E0002050B900BF7E
:1036E000502080F31188BFF34F8FBFF36F8F00BF5F
:1036F00000BFFEE700F028F900212046FFF7D4F8CC
:1037000000F0A2FE05463DB94FF080500449086024
:10371000BFF34F8FBFF36F8F70BD00005C000020C0
:1037200004ED00E070B50546FFF7B0FE15B930486E
:10373000006800E028460446201DFFF75DFE78B9CA
:10374000E06A00EB80002B4951F8200040B994F862
:103750002C100120884028490968814326480160CF
:10376000A06A18B104F11800FFF746FE234800686C
:10377000401C224908601E480068844209D1211D6E
:103780001F48FFF777FE1F480068401C1D4908606E
:1037900009E01D480068401E1B4908602046FFF7ED
:1037A000D4F9FFF749FCFFF79BFE18480068E8B121
:1037B0000F480068844219D11548006808B90120F3
:1037C00000E0002050B900BF502080F31188BFF303
:1037D0004F8FBFF36F8F00BF00BFFEE74FF08050E9
:1037E0000C490860BFF34F8FBFF36F8F70BD0000AF
:1037F00024000020180200203C000020500000207F
:10380000B8020020300000203400002040000020DA
:103810005C00002004ED00E00349096801600349F1
:1038200009684160704700004C000020380000200B
:1038300001200149086070474800002070B5044627
:103840000D4654B900BF502080F31188BFF34F8F4D
:10385000BFF36F8F00BF00BFFEE705480168183156
:103860002046FFF7EDFD01212846FFF71DF870BD4A
:103870002400002070B505460E46144655B900BF19
:10388000502080F31188BFF34F8FBFF36F8F00BFBD
:1038900000BFFEE70648016818312846FFF7EAFD39
:1038A0000CB14FF0FF3621463046FEF7FDFF70BDEC
:1038B000240000201CB51D4800210B468222CDE9C2
:1038C00000101BA11C4800F021FC0446012C02D171
:1038D00000F03CFE0446012C15D100BF502080F3BF
:1038E0001188BFF34F8FBFF36F8F00BF4FF0FF30D2
:1038F000124908600120124908600020114908603F
:1039000000F070F810E0601C08B1012000E0002019
:1039100050B900BF502080F31188BFF34F8FBFF321
:103920006F8F00BF00BFFEE71CBD000058000020E5
:1039300049444C4500000000012C000854000020C0
:10394000400000203800002002480068401C014967
:10395000086070475C0000201D48006818B1012015
:103960001C49086032E000201A4908601A480068C3
:10397000B0FA80F0C0F11F0101EB8100174A52F844
:10398000200008B1012000E0002050B900BF502005
:1039900080F31188BFF34F8FBFF36F8F00BF00BF5D
:1039A000FEE701EB81020D4B03EB82004268526897
:1039B000426000F108024368934202D142685268B3
:1039C00042604268D268064B1A6000BF7047000030
:1039D0005C000020480000203C000020180200206D
:1039E000240000201CB5524800685249884201D08A
:1039F000012000E0002050B900BF502080F3118862
:103A0000BFF34F8FBFF36F8F00BF00BFFEE7484883
:103A100000684849491E884201D0012000E000208A
:103A200050B900BF502080F31188BFF34F8FBFF310
:103A30006F8F00BF00BFFEE73F4908460078019046
:103A4000FF200A4610700846007800909DF800009C
:103A500000F0F0009DF80020904201D1012000E02C
:103A6000002050B900BF502080F31188BFF34F8F62
:103A7000BFF36F8F00BF00BFFEE79DF8000000F0AE
:103A800050002E4A107007202D4A106009E02C4883
:103A90000068401E2A4A10609DF800004006000E93
:103AA00000909DF8000000F080008028EFD02448AE
:103AB0000068C0F10700042801D1012000E00020C7
:103AC00050B900BF502080F31188BFF34F8FBFF370
:103AD0006F8F00BF00BFFEE7194800680002184A58
:103AE00010601046008800F4E0601060124A0198EF
:103AF00010700F482030006840F470000C492031ED
:103B000008600846006840F070400860FFF750FD0C
:103B100000200C490860FCF7ABFB0B48006840F044
:103B2000404009490860FCF78FFB00201CBD0000E5
:103B300000ED00E071C20F4100E400E090000020C1
:103B4000940000208C00002034EF00E010B500BF8E
:103B5000502080F31188BFF34F8FBFF36F8F00BFEA
:103B600000F01EFB18B14FF080500449086000BF00
:103B7000002080F3118800BF10BD000004ED00E0BC
:103B80002DE9F84305460E4690460DB1012000E0B0
:103B9000002050B900BF502080F31188BFF34F8F31
:103BA000BFF36F8F00BF00BFFEE70EB9002701E033
:103BB00005FB06F707F15000FFF72AFB044644B166
:103BC00004F1500943464A46314628460094FFF71F
:103BD0002BF82046BDE8F88370B505460E462C4606
:103BE00054B900BF502080F31188BFF34F8FBFF34B
:103BF0006F8F00BF00BFFEE7FFF748FCD4E90F124C
:103C0000206801FB020060600020A0632068A060C3
:103C1000E06B401E226C216800FB0210E060FF2078
:103C200084F8440084F845009EB9206908B9012051
:103C300000E00020A8B904F1100000F0B9FB80B149
:103C40004FF0805009490860BFF34F8FBFF36F8F6B
:103C500007E004F11000FFF7E3FB04F12400FFF795
:103C6000DFFBFFF73DFC012070BD000004ED00E02C
:103C70002DE9FF4383B0064688461D464FF00009F4
:103C8000344654B900BF502080F31188BFF34F8FE2
:103C9000BFF36F8F00BF00BFFEE7B8F1000F01D187
:103CA000206C08B9012000E0002050B900BF50206E
:103CB00080F31188BFF34F8FBFF36F8F00BF00BF3A
:103CC000FEE7022D02D1E06B012801D1012000E0C6
:103CD000002050B900BF502080F31188BFF34F8FF0
:103CE000BFF36F8F00BF00BFFEE700F043FA08B9D3
:103CF000059808B9012000E0002050B900BF50200D
:103D000080F31188BFF34F8FBFF36F8F00BF00BFE9
:103D1000FEE700BFFFF7BAFBA06BE16B884201D35F
:103D2000022D28D12A4641462046FEF7D0FE0746FE
:103D3000606A08B9012000E0002068B904F124009D
:103D400000F036FB88B14FF0805032490860BFF375
:103D50004F8FBFF36F8F08E03FB14FF080502D4978
:103D60000860BFF34F8FBFF36F8FFFF7B9FB0120E0
:103D700007B0BDE8F083059818B9FFF7B1FB002044
:103D8000F6E7B9F1000F04D101A8FFF745FD4FF0A8
:103D90000109FFF7A5FBFFF7D7FDFFF777FB94F9C4
:103DA0004400401C10B9002084F8440094F94500F8
:103DB000401C10B9002084F84500FFF791FB05A9CD
:103DC00001A800F05DF9F0B92046FFF740F8A0B176
:103DD00004F110000599FFF731FD2046FFF7D9F9EE
:103DE00000F032FB002895D14FF08050094908605F
:103DF000BFF34F8FBFF36F8F8CE72046FFF7C9F9F2
:103E000000F022FB86E72046FFF7C3F900F01CFB19
:103E10000020ADE704ED00E02DE9F05F07468A469B
:103E200090461E463C4654B900BF502080F311888E
:103E3000BFF34F8FBFF36F8F00BF00BFFEE7BAF134
:103E4000000F01D1206C08B9012000E0002050B91A
:103E500000BF502080F31188BFF34F8FBFF36F8FE7
:103E600000BF00BFFEE7022E02D1E06B012801D1A6
:103E7000012000E0002050B900BF502080F31188DD
:103E8000BFF34F8FBFF36F8F00BF00BFFEE7FFF799
:103E9000A3FB00BF5021EFF3118081F31188BFF322
:103EA0004F8FBFF36F8F00BF0546A06BE16B884259
:103EB00001D3022E23D194F945B032465146204613
:103EC000FEF705FE0BF1010088B9606A08B9012010
:103ED00000E0002080B904F1240000F069FA58B134
:103EE000B8F1000F08D00120C8F8000004E00BF181
:103EF000010040B284F845004FF0010901E04FF0A5
:103F0000000900BF85F3118800BF484600F000B8E3
:103F100030BCBDE8C09F00002DE9F74183B00546E5
:103F20000E464FF000082C4654B900BF502080F3D5
:103F30001188BFF34F8FBFF36F8F00BF00BFFEE745
:103F40000EB9206C08B9012000E0002050B900BF74
:103F5000502080F31188BFF34F8FBFF36F8F00BFE6
:103F600000BFFEE700F006F908B9059808B901207E
:103F700000E0002050B900BF502080F31188BFF34B
:103F80004F8FBFF36F8F00BF00BFFEE700BFFFF78B
:103F90007DFAA76BF7B131462046FEF783FD781E08
:103FA000A063206908B9012000E0002060B904F195
:103FB000100000F0FDF938B14FF080502F49086033
:103FC000BFF34F8FBFF36F8FFFF78AFA012006B060
:103FD000BDE8F081059818B9FFF782FA0020F6E7EE
:103FE000B8F1000F04D101A8FFF716FC4FF001084B
:103FF000FFF776FAFFF7A8FCFFF748FA94F94400B8
:10400000401C10B9002084F8440094F94500401C7D
:1040100010B9002084F84500FFF762FA05A901A84D
:1040200000F02EF8F0B92046FEF704FFA0B104F12D
:1040300024000599FFF702FC2046FFF7AAF800F0DC
:1040400003FA0028A3D14FF080500C490860BFF359
:104050004F8FBFF36F8F9AE72046FFF79AF800F073
:10406000F3F994E72046FFF794F800F0EDF92046C5
:10407000FEF7E0FE00288AD00020A8E704ED00E06B
:1040800070B505460C4655B900BF502080F3118825
:10409000BFF34F8FBFF36F8F00BF00BFFEE754B970
:1040A00000BF502080F31188BFF34F8FBFF36F8F95
:1040B00000BF00BFFEE7FFF7E9F912480268686831
:1040C000131A2068401C08B9002617E00E4928681A
:1040D0000968884204D06868904201D801260DE042
:1040E0002068984207D92068C01A20602846FFF748
:1040F00093FB002602E0002020600126FFF7F0F984
:10410000304670BD380000204C0000202DE9FF4FE4
:1041100085B0804689461746DDE912ABB800FFF747
:1041200077F8064656B15820FFF772F804460CB1EE
:10413000266304E03046FFF7F1F900E000247CB18B
:104140000020CDE900ABCDE902403A464946404661
:10415000089BFEF77EFD2046FEF7F2FB012501E0FD
:104160004FF0FF35284609B000F000B830BCBDE87C
:10417000C08F00000549096809B9012005E004491C
:10418000096809B9022000E00020704740000020C3
:104190005C000020014908687047000038000020DA
:1041A0002DE9F0414FF0000844480068002877D11D
:1041B00043480068451C4248056015BB41480068FB
:1041C000006808B9012000E0002050B900BF50206D
:1041D00080F31188BFF34F8FBFF36F8F00BF00BF15
:1041E000FEE73848076838480068364908603648AE
:1041F000076036480068401C34490860FEF71CFF21
:1042000000BF3348006885423CD300BF2D4800689A
:10421000006808B9012000E0002020B14FF0FF3015
:104220002B4908602DE027480068C068C4686668AC
:10423000B54202D22648066023E0201DFFF7DCF8D5
:10424000A06A18B104F11800FFF7D6F894F82C1002
:10425000012088401F49096808431E490860E16A37
:1042600001EB81011C4A02EB8100211DFFF702F9DD
:104270001A49E06A0968C96A8842C7D34FF0010841
:10428000C4E700BF15480068C06A00EB800012490F
:1042900051F82000012801D94FF0010805E0FFE79F
:1042A0000F480068401C0E4908600E48006808B1BD
:1042B0004FF001084046BDE8F08100005C0000209E
:1042C00038000020280000202C0000204C00002096
:1042D000540000203C000020180200202400002090
:1042E000440000204800002070B505462C460026FA
:1042F000002D55D02B480068844201D1012000E0F8
:10430000002050B900BF502080F31188BFF34F8FB9
:10431000BFF36F8F00BF00BFFEE7E06C50B900BF76
:10432000502080F31188BFF34F8FBFF36F8F00BF12
:1043300000BFFEE7E06C401EE064A16CE06A8842CA
:104340002ED0E06C60BB201DFFF756F878B9E06A0C
:1043500000EB8000144951F8200040B994F82C106B
:104360000120884011490968814310480160A06C10
:10437000E062E06AC0F10500A06194F82C10012011
:1043800088400A490968084308490860E16A01EB66
:104390008101054A02EB8100211DFFF76BF8012620
:1043A000304670BD24000020180200203C00002090
:1043B00070B50646F068C46854B900BF502080F359
:1043C0001188BFF34F8FBFF36F8F00BF00BFFEE7B1
:1043D00004F11800FFF710F815480068A8B9201D6F
:1043E000FFF70AF894F82C10012088401149096859
:1043F000084310490860E16A01EB81010E4A02EBB3
:104400008100211DFFF736F804E004F118010B4884
:10441000FFF730F80A49E06A0968C96A884204D996
:10442000012501200749086000E00025284670BDED
:104430005C0000203C00002018020020A4020020A4
:10444000240000204800002070B5002400263648D3
:10445000006850B900BF502080F31188BFF34F8F20
:10446000BFF36F8F00BF00BFFEE7FFF70FF82E48C6
:104470000068401E2C4908600846006800284FD19B
:104480002A48006800284BD024E02948C068C46846
:1044900004F11800FEF7B0FF201DFEF7ADFF94F801
:1044A0002C100120884023490968084321490860ED
:1044B000E16A01EB8101204A02EB8100211DFEF738
:1044C000D9FF1E49E06A0968C96A884202D30120FF
:1044D0001B4908601648006808B9012000E0002068
:1044E0000028D2D00CB1FEF7A7FD1648056865B1CB
:1044F00000BFFFF755FE10B10120114908606D1E85
:10450000002DF6D100200F4908600D48006838B131
:10451000012630070C490860BFF34F8FBFF36F8F40
:10452000FEF7DEFF304670BD5C0000203400002046
:10453000A40200203C0000201802002024000020DB
:10454000480000204400002004ED00E01CB50024D9
:10455000FEF752FA0E48006858B10E4802210023B7
:104560004FF48272CDE900100BA10D48FFF7CEFD8C
:10457000044654B900BF502080F31188BFF34F8F19
:10458000BFF36F8F00BF00BFFEE720461CBD0000D9
:10459000680000206C000020546D72205376630088
:1045A000793100082DE9FE4304460D4616461F46A4
:1045B000DDF828804FF0000954B900BF502080F387
:1045C0001188BFF34F8FBFF36F8F00BF00BFFEE7AF
:1045D0001448006810B3009501960294062D15DA70
:1045E000FFF7C8FD022808D10023424669460D485E
:1045F0000068FFF73DFB814610E000231A4669463C
:1046000008480068FFF734FB814607E000233A467C
:10461000694604480068FFF7FFFB8146484600F002
:1046200003B800006800002006BCBDE8F8834FF026
:104630004070E1EE100A704700000000000000002A
:104640000102030406070809000000000102030438
:10465000A0860100400D0300801A060000350C0002
:1046600040420F0080841E0000093D0000127A00C5
:104670000024F40000366E010048E801006CDC0202
:10468000A04600080000002098000000C4010008B7
:10469000384700089800002050350100E00100086C
:1046A00000000000000000000000000000093D00C4
:1046B00000000000000000000000000000000000FA
:1046C00000000000000000000000000000000000EA
:1046D00000000000000000000000000000000000DA
:1046E00000000000000000000000000000000000CA
:1046F00000000000000000000000000000000000BA
:1047000000000000000000000000000000000000A9
:104710000000000000000000000000000000000099
:10472000000000000000000000000000AAAAAAAAE1
:08473000000000000000000081
:040000050800018965
:00000001FF
