:020000040800F2
:1000000070350120290300088D28000833280008D6
:10001000892800088116000841320008000000000D
:10002000000000000000000000000000490200087D
:100030008516000800000000A502000865290008D8
:100040004303000843030008430300084303000878
:100050004303000843030008430300084303000868
:100060004303000843030008430300084303000858
:100070004303000843030008430300084303000848
:100080004303000843030008430300084303000838
:100090004303000843030008430300084303000828
:1000A0004303000843030008430300084303000818
:1000B0004303000843030008430300084303000808
:1000C00043030008430300084303000843030008F8
:1000D00043030008F131000843030008430300080C
:1000E00043030008430300084303000843030008D8
:1000F00043030008430300084303000843030008C8
:1001000043030008430300084303000843030008B7
:1001100043030008430300084303000843030008A7
:100120004303000843030008430300084303000897
:100130004303000843030008430300084303000887
:100140004303000843030008430300084303000877
:100150004303000843030008430300084303000867
:100160004303000843030008430300084303000857
:1001700043030008430300080000000000000000E3
:10018000430300084303000800F002F800F04CF8B5
:100190000AA090E8000C82448344AAF10107DA45E2
:1001A00001D100F041F8AFF2090EBAE80F0013F0E8
:1001B000010F18BFFB1A43F0010318471453000046
:1001C00034530000103A24BF78C878C1FAD85207D7
:1001D00024BF30C830C144BF04680C6070470000C1
:1001E0000023002400250026103A28BF78C1FBD840
:1001F000520728BF30C148BF0B607047662905F021
:10020000F780732900F0B284002070471FB505F015
:10021000EAF800F0E3FC04000020002105F056F8A5
:10022000E0601FBD10B510BD00F0F4FD1146FFF7F2
:10023000EDFF03F0A7F800F012FE03B4FFF7F2FFA2
:1002400003BC03F01EF800002C4B1968086800F08E
:100250005AB880F30988BFF36F8F4FF0000080F326
:10026000118870470000000008480068006880F3AB
:1002700008884FF0000080F3148862B661B6BFF3BF
:100280004F8FBFF36F8F00DF00BF00BF08ED00E0AE
:10029000DFF80C00016841F470010160704700BF95
:1002A00088ED00E0EFF30980BFF36F8F134B1A68FE
:1002B0001EF0100F08BF20ED108A20E9F04F1060EB
:1002C00009B44FF0500080F31188BFF34F8FBFF394
:1002D0006F8F04F08FF94FF0000080F3118809BC94
:1002E0001968086800F014B81EF0100F08BF00F07D
:1002F00014B880F30988BFF36F8F70472C0000207B
:10030000EFF30580704730C8B0E8C04FFFF7A1BFDA
:1003100030C8B0E8C04FFFF7E7BFB0EC088AB0ECD8
:1003200008CAFFF7E6BF00000948804709480047B0
:10033000FEE7FEE7FEE7FEE7FEE7FEE7FEE7FEE795
:10034000FEE7FEE704480549054A064B70470000F2
:10035000052A000889010008702F0120703501204E
:100360007031012070310120704753EA020C00F017
:1003700069802DE9F04B4FF00006002B1FBFB3FA48
:1003800083F503FA05F424FA05F65E4012BF16431E
:10039000B2FA82F502FA05F4C5F120051EBF22FA71
:1003A00005FC44EA0C04203556EA044C4FEA144498
:1003B00018BF641C4FF000084FF00009904271EB29
:1003C000030C39D3002919BFB1FA81F701FA07F6F6
:1003D000B0FA80F700FA07F6C7F120071EBF20FA2F
:1003E00007FC46EA0C062037B6FBF4FCA7EB050732
:1003F000103F07F01F0BCBF120060CFA0BFB2CFA79
:1004000006F644BFB3460026202FA4BF5E464FF039
:10041000000B5BEA060C08BF4FF0010B19EB0B0950
:10042000ABFB027C48EB0608C01B06FB02CC0BFBB7
:1004300003CC71EB0C01C1E70B460246414648462E
:10044000BDE8F08B13B54FF000004FF00001AFF3A3
:100450000080BDE81C4070470FB4044910B503AAE2
:10046000029800F087FB10BC5DF814FB2000002010
:1004700070B50C460546012A05D02878800600D5BF
:10048000EA69002302E0012305E05B1C934202D2EB
:10049000E05C0028F9D1A869E618C01AA861286AAA
:1004A000184428622846AFF3008004E0D5E9012112
:1004B00014F8010B9047B442F8D32846AFF30080FC
:1004C00070BD2DE9F0474FF0000A89460446C0F898
:1004D00020A02046E1688847002876D0252806D04D
:1004E000D4E901219047206A401C2062F1E7E168CD
:1004F000204600258847C4F81CA006460027C4F8FB
:1005000018A02A2E09D0304602F0B4FE38B304EB0E
:100510008708303EC8F8186019E059F8041B2046D7
:1005200004EB87029161E1688847012F064618D1E4
:10053000E069002820DA25F020051DE0D8F8180031
:1005400000EB800006EB40003038C8F81800204669
:10055000E1688847064602F08DFE0028EED1012FA3
:100560000AD02E2E08D12046E16888477F1C064617
:10057000022F45F02005C4DBA069002803DA4042C1
:1005800045F00105A061E80701D025F01005B6B1DE
:10059000A6F14100192802D8203645F400654A46E4
:1005A0003146204625604D46FFF728FE58B1012808
:1005B00006D0ED1D25F0070000F1080989E704E0E9
:1005C00005F1040985E730468AE7206ABDE8F0872F
:1005D000032A40F2308010F0030C00F0158011F86F
:1005E000013BBCF1020F624498BF11F801CB00F847
:1005F000013B38BF11F8013BA2F1040298BF00F89B
:1006000001CB38BF00F8013B11F0030300F0258057
:10061000083AC0F0088051F8043B083A51F804CB7E
:10062000A0E80810F5E7121D5CBF51F8043B40F844
:10063000043BAFF30080D20724BF11F8013B11F84F
:1006400001CB48BF11F8012B24BF00F8013B00F893
:1006500001CB48BF00F8012B704710B5203AC0F01D
:100660000B80B1E81850203AA0E81850B1E81850B3
:10067000A0E81850BFF4F5AF5FEA027C24BFB1E8F0
:100680001850A0E8185044BF18C918C0BDE8104061
:100690005FEA827C24BF51F8043B40F8043B08BF6A
:1006A0007047D20728BF31F8023B48BF11F8012B31
:1006B00028BF20F8023B48BF00F8012B704702F02A
:1006C000FF0343EA032242EA024200F067BA4FF016
:1006D000000200B5134694469646203922BFA0E892
:1006E0000C50A0E80C50B1F12001BFF4F7AF09079E
:1006F00028BFA0E80C5048BF0CC05DF804EB89008F
:1007000028BF40F8042B08BF704748BF20F8022BD1
:1007100011F0804F18BF00F8012B704770477047E9
:100720007047704770472DE9FF4F0C461E464FF04B
:10073000FF378BB0D2E90001DDF860800A908A466D
:10074000C1F30A5505B93D46002108464FF00000A7
:10075000BAF1000F00F4400005DA00EB80004FF41E
:10076000400101EA50004FEA9059B9F1010F00DD54
:10077000B9460A9850EA4A000ED044F61050A5F245
:10078000FF3545432F14B8F1000F1ED07542291EC6
:100790001EDDC9F100021CE0B8F1010F4FF00000AE
:1007A00001D0302103E0F24305E02154401CB04267
:1007B000FBDB30460022002121540B99C1F8088050
:1007C000C1E900200FB000F0BCB9BD1B6D1CDEE715
:1007D0004A4600DA694206A800F0A2FA06AB93E89E
:1007E000070003AB83E8070050460A9900F080FB3E
:1007F0008DE80700A0F500501F3800900398002DE9
:100800000ADD42F21F014A460844002303A903906F
:10081000684600F0E9FD09E0A0F500504A461F389F
:10082000002303A90390684600F0F3FD8DE807005C
:100830000004000C03D04FF0FF30410800E01046E8
:10084000B8F1000F03D00022009215461EE0751E7D
:1008500005D400F0C7F9303262556D1EF9D5B346A4
:100860000122084302D000227F1C04E020783028B7
:1008700001D100227F1E002A099784D01DE0112D8E
:1008800007DA00F0AFF9303262556D1C50EA010210
:10089000F5D1084302D00098C8B10EE00021681ECF
:1008A00005E0235C625C63542254401E491C814273
:1008B000F7DBAB46A81B401E0990002004F80B0094
:1008C0000B98099AC0F80880C0E9002B7AE7112636
:1008D0004FF0000857E72DE9F04F88460446D21D37
:1008E00022F0070191B0D1E90001CDE90A0102F03F
:1008F000A9FC02460B98C00F01D02D2007E020680C
:10090000810701D52B2002E0202101EAC000032A43
:10091000099001D0072A05DB03464146204600F036
:10092000BFF90BE12078800601D5E06900E00620E0
:10093000B8F1650F814606D0B8F1660F18D0B8F14E
:10094000670F70D131E00020B9F1110F009001DB89
:10095000112301E009F101030AAA01A90CA8FFF77C
:10096000E2FEDDE90C70002609F10105834647E04F
:1009700001204B4600904FF000470AAA01A90CA89D
:10098000FFF7D1FEDDE90DB00C995D46002610B9E8
:1009900009F101000D18B9EB050003D4C0F1FF36D1
:1009A00009F10105A5EB09002BE0B9F1010F01DA0E
:1009B0004FF001090020B9F1110F0090484601DD08
:1009C000112300E003460AAA01A90CA8FFF7ABFE19
:1009D000DDE90C704D4600268346207800070AD4D6
:1009E000AB4500DA5D4601A8012D04DD411911F87F
:1009F000011C302907D04F4502DA17F1040F04DA41
:100A0000012082460FE06D1EEEE7002F02DCED1B99
:100A10003E4403E0781CA84200DD7D1CB81B00F1B9
:100A2000010A4FF000472078000703D4AA4501DBF4
:100A30004FF0FF3A0021B7F1004F0DF143088DF858
:100A4000431024D002202B23002F01DA7F422D23D4
:100A50000A21021EA0F1010000DC5FB197FBF1FC4E
:100A600097FBF1F201FB1C7C17460CF1300C08F8E7
:100A700001CDEEE7A8F1010003702188090501D539
:100A8000452100E06521A0F1010800F8011C09984A
:100A90000FA9A1EB0807FF1D00B10120411901EBCF
:100AA000EA70A1693844081A401EA0612078C00687
:100AB00002D42046AFF30080099828B1D4E901217F
:100AC0009047206A401C20622078C00622D520462C
:100AD000AFF300801EE0002E04DBB34502DD01A869
:100AE000805D00E03020D4E901219047206A401C5D
:100AF0002062761CAAF101005FEA000A0AD100F028
:100B00006DF8C0680168405CD4E901219047206A13
:100B1000401C2062281EA5F10105DCDC07E0D4E9B9
:100B2000012118F8010B9047206A401C2062381EF2
:100B3000A7F10107F3DC2046AFF30080032011B0DA
:100B400041E630BCBDE8C08F10B5436913B1AFF3C7
:100B5000008001E0FFF78CFC012010BD127800F14D
:100B600024010A7000224A700122EDE711684FF05B
:100B7000FF32E9E7074B70B50D467B4400F07DF886
:100B80000446284600F03EF910B14FF0FF3070BD2A
:100B9000204670BDA72700004FF000020429C0F0D6
:100BA000128010F0030C3FF494ADCCF1040CBCF1B6
:100BB000020F18BF00F8012BA8BF20F8022BA1EBF1
:100BC0000C01FFF786BD5FEAC17C24BF00F8012B52
:100BD00000F8012B48BF00F8012B70470048704710
:100BE000302F012030B5B0F10A024FEA900E71F1BA
:100BF00000034EEA817EB0EB0E0061EB91014FEAFB
:100C0000101E4EEA017E10EB0E0041EB11114FEA6F
:100C1000102E4EEA016E10EB0E0041EB11214FEA4F
:100C2000104E4EEA014E10EB0E0041EB1141401800
:100C300041F100014FEAD00040EA41704FEAD10192
:100C400010EB80054FEA810444EA907444EB010400
:100C50006D1944EB0404521BA3414FF0000348BF3D
:100C60000A3200D530BD401C41F1000130BD00000A
:100C700001694A1C02610878704700B58FB0CDE960
:100C800001310021059105497944CDE90310114650
:100C90006846FFF716FC0FB000BD0000E5FFFFFF40
:100CA0002DE9F0411F46044603260168072A01F496
:100CB000006004DB08B116A505E016A503E008B145
:100CC00015A500E015A521F010002060A069C01E48
:100CD000A0610FB1401EA0612046AFF300804FB16C
:100CE000D4E9012138469047206A401C2062C01C8C
:100CF000206206E0206AFAE7D4E9012115F8010B29
:100D00009047761EF8D22046AFF30080BDE8F08110
:100D10004E414E006E616E00494E4600696E66009F
:100D20002DE9F047814616468AB0354878440DC80B
:100D30008DE80D0032487844801C03AC0DC884E86F
:100D40000D0041F69B300844372190FBF1F290FBF7
:100D5000F1F5A5F1800501FB12041B3C02D56442AC
:100D6000012000E00020DFF898A080460027FA4428
:100D7000AAF1BE0A0EE0E0070AD03246684607EB49
:100D8000470101230AEB810100F043FB8DE80700D6
:100D900064107F1C002CEED1194F7F44AE3F19E048
:100DA000E80715D007EB04100DF1180A90E80E00C3
:100DB0008AE80E00C068F04201D1981908903246C6
:100DC000012306A903A800F024FB03AB83E8070076
:100DD0006D10641C002DE3D14FF0010332466946CB
:100DE000B8F1000F03A802D000F0FEFA01E000F015
:100DF00010FBC9E90001C9F808200AB0BDE8F08776
:100E000088470000007B00F0800070470048704772
:100E1000102F01207546FFF7F9FFAE460500694621
:100E2000534620F00700854618B020B5FFF78AFA30
:100E3000BDE820404FF000064FF000074FF00008DB
:100E40004FF0000B21F00701AC46ACE8C009ACE85C
:100E5000C009ACE8C009ACE8C0098D46704710B5C0
:100E60000446AFF300802046BDE81040FFF7E5B927
:100E70004FF0013C50F8042B51F8043B9A4221D129
:100E8000A2EB0C03934313EACC1317D150F8042BB5
:100E900051F8043B9A4215D1A2EB0C03934313EA99
:100EA000CC130BD150F8042B51F8043B9A4209D1D2
:100EB000A2EB0C03934313EACC13DBD04FF00000FA
:100EC000704700BFD01A01BAB1FA81F101F01801E0
:100ED00022FA01F0CB40C1F12001DBB2C0B2C01A4E
:100EE0002CFA01F3D11A914311EAC311E6D17047EC
:100EF0005FEA400C08BF91F0000F4FEA8C234FEAE5
:100F0000C12243EA51514FEA1C5018BF00F5F0408E
:100F10004FEA300018BF41F000415FEA6C5C00F01E
:100F20002980BCF1FF3F08BF40F080407047130CA0
:100F300006BF12044FF0100C4FF0000C130E04BF4C
:100F400012020CF1080C130F04BF12010CF1040C77
:100F5000930F04BF92000CF1020CD30F04BF520098
:100F60000CF1010C11464FF00002A0F11F00A0EBA4
:100F70000C00704711F0004F08BF704731F000417E
:100F80003FF4D5AF0B0C06BF09044FF0100C4FF027
:100F9000000C0B0E04BF09020CF1080C0B0F04BF70
:100FA00009010CF1040C8B0F04BF89000CF1020C39
:100FB000CB0F04BF49000CF1010CCCF12003A0EBD6
:100FC0000C0022FA03F302FA0CF241EA030100F1E9
:100FD0000100704720F07F4C80EA030023F07F4738
:100FE000ACEB070303F57C5300F0004003F1FF0373
:100FF0002DE980494FEA154B09B44FEA144325EA1D
:101000000B4E24EA03480FF2042606EB1327490887
:101010003E785FEA320203FB0667C7F5000707FB6D
:1010200006F64FEA54374FEAD64606F1020607FBAA
:10103000066CCCF1005C4FEA1C472CEA074C07FB1E
:1010400006F40CFB06F504EB15464FEA961634BF82
:1010500000204FF000404FEAD13706FB07FC4FEA73
:101060001C4C0CFB0BF7D21B03FB0CF761EB0701CD
:101070000CFB0EF7B0EB074072EB17420CFB08F7C6
:1010800034BFA2EB0742B2EB074261EB17414FEAD4
:101090000C444FEA910706FB07FC4FEA1C4C0CFB83
:1010A0000BF7B0EBC74072EB573203FB0CF734BFC2
:1010B000A2EBC742B2EBC74261EB57310CFB0EF714
:1010C000B0EBC70072EB57720CFB08F734BFA2EB12
:1010D000C702B2EBC70261EB5771039F4FEA816110
:1010E00041EA921104EBCC044FEAD1374FEA826215
:1010F00006FB07FC42EA90124FEA80604FEA1C4C64
:101100000CFB0BF7D21B03FB0CF761EB07010CFB8D
:101110000EF7B0EB074072EB17420CFB08F734BF39
:10112000A2EB0742B2EB074261EB17414FEA8C5545
:101130004FEA910704EB9C2406FB07FC4FEA1C4C8A
:101140000CFB0BF7B0EBC74072EB573203FB0CF70D
:1011500034BFA2EBC742B2EBC74261EB57310CFB85
:101160000EF7B0EBC70072EB57720CFB08F734BFF9
:10117000A2EBC702B2EBC70261EB577115EB4C252E
:101180004FEA816141EA92114FEA82624FEAD13718
:1011900042EA901206FB07FC44F100044FEA80602B
:1011A0004FEA1C4C0CFB0BF7D21B03FB0CF761EB5B
:1011B00007010CFB0EF7B0EB074072EB17420CFB7C
:1011C00008F734BFA2EB0742B2EB074261EB1741CD
:1011D00015EB1C154FEA813141EA92414FEA823208
:1011E00042EA90424FEA80304FEA0C7644F1000424
:1011F00048EA03434EEA0B484FF0000EB2EB080CEE
:1012000071EB030724BF624639464EEB0E0E4FF0DA
:10121000000B0018524149414BEB0B0BB2EB080C91
:1012200071EB03077BF1000B24BF624639464EEB9E
:101230000E0E4FF0000B0018524149414BEB0B0BC7
:10124000B2EB080C71EB03077BF1000B24BF624685
:1012500039464EEB0E0E51EA020718BF46F0010662
:1012600016EB0E7655F1000254F1000103D5BDE8EE
:101270008901BDE80088BDE88901BDE80048B619CC
:10128000524141EB0101A3F10103704780807F7E51
:101290007D7C7B7A797877767675747372717170EC
:1012A0006F6E6E6D6C6C6B6A6A696868676666659E
:1012B0006464636362616160605F5F5E5E5D5D5C2C
:1012C0005C5B5B5A5A59595858575756565555559D
:1012D0005454535352525251515050504F4F4F4EFD
:1012E0004E4D4D4D4C4C4C4B4B4B4A4A4A4949494B
:1012F000484848474747474646464545454444448D
:10130000444343434342424242414141002B9C46B5
:1013100030D477002BD01CB54FEA370703B44FF019
:1013200010004FF01001BAF1000F06D0BCF1000F11
:10133000DCBF40F0080040F008014FF000000FBC97
:10134000BDE810400BF1010BBBF1010F08BF5FEAD4
:10135000170722BF12F1010211F101014FF0004104
:1013600043F1000300F0004043EA00007047F9D366
:101370005708D0E746EA064613F1400F4FEA1646F3
:101380001FDD13F1200FDFBF16430A460021203373
:101390005B42BED0C3F1200746EA064602FA07F7D1
:1013A0004FEA164646EA0706C3F1200722FA03F27F
:1013B00001FA07F721FA03F14FF0000342EA0702AE
:1013C000A7E746EA020646EA06464FEA164646EA16
:1013D0000106BCBF46EA0646360C4FF000034FF04C
:1013E00000024FF0000194E72DE9804C9A469346A5
:1013F00070B491E8380007C831EA400C48BF34EABD
:10140000430C03D5FFF7E6FDFFF780FFF0BCBDE816
:10141000008C2DE9804C9A46934670B491E83800D0
:1014200007C810F0804F08BF13F0804F03D100F0C1
:1014300005F8FFF76BFFF0BCBDE8008C20F07F479C
:1014400080EA030023F07F4C07EB0C03A3F57C53E9
:1014500000F00040A3F1FE0392F0000F00F0B38013
:1014600095F0000F00F077802DE901494FEA114017
:101470004FEA144621EA004800FB06FC24EA06472E
:1014800008FB06F607FB08F800FB07F718EB064811
:101490004CEB164C4FEA124B18EB07484FEA154637
:1014A0004CEB174022EA0B4E0BFB06FC25EA0647E5
:1014B0000EFB06F607FB0EFE0BFB07F71EEB064EB8
:1014C0004CEB164C4FF000061EEB074E4CEB174B47
:1014D00018EB0B0840F1000018EB0E0B58EB00085E
:1014E00040F100008F1A4FF000013CBFC943661B5A
:1014F00014BFB5EB040C00213CBFC943F61B4FEAF7
:1015000017444EEA8E0E27EA04454FEA1C4704FBB7
:1015100007622CEA074C05FB07F70CFB05F604FBFA
:101520000CFC16EB074642EB174216EB0C4642EB5F
:101530001C421BEB060658EB0202414146EA9E069E
:1015400001D5BDE80189B619524141EB0101A3F172
:101550000103BDE801894FEA14454FEA114724EA27
:10156000054621EA074C05FB07F406FB07F70CFBD1
:1015700006F105FB0CFC11EB074144EB17444FEA65
:10158000124711EB0C4144EB1C4422EA074C05FBCB
:1015900007F206FB07F70CFB06F605FB0CFC16EB47
:1015A000074642EB174216EB0C4642EB1C456A1805
:1015B00054F1000148BF7047B619524141EB010197
:1015C000A3F10103704795F0000F37D04FEA1142A5
:1015D0004FEA144721EA024624EA074C02FB07F1CE
:1015E00006FB07F70CFB06F402FB0CFC14EB0744AC
:1015F00041EB17414FEA154714EB0C4441EB1C41FA
:1016000025EA074C02FB07F506FB07F70CFB06F67D
:1016100002FB0CFC16EB074645EB174516EB0C4698
:1016200045EB1C42121951F1000148BF7047B61931
:10163000524141EB0101A3F1010370474FEA144508
:101640004FEA114724EA054621EA074C05FB07F15A
:1016500006FB07F70CFB06F24FF0000605FB0CFC3F
:1016600012EB074241EB174112EB0C4251EB1C41CC
:1016700048BF7047921841EB0101A3F10103704785
:1016800000BFFEE7704770B50446002594F82500BA
:10169000022803D00420E063012520E020680068D0
:1016A00020F00E00216808602068006820F001002A
:1016B0002168086094F8440000F01C010120884073
:1016C000216C4860012084F8250000BF002084F8C8
:1016D000240000BFA06B10B12046A16B88472846AC
:1016E00070BD000078B503460022E5E00126964073
:1016F0000D6805EA0604002C7DD04D68022D02D04D
:101700004D68122D13D1D60803F1200555F8260097
:101710005507EE0E0F25B540A8435607F60E0D6986
:10172000B5402843D60803F1200545F8260018687F
:1017300056000325B540A8430D7905F00305560072
:10174000B540284318604D68012D08D04D68022D22
:1017500005D04D68112D02D04D68122D13D1986817
:1017600056000325B540A8435600CD68B540284330
:101770009860586801259540A8430D79C5F3001578
:101780009540284358600D7905F00305032D09D1D4
:10179000D86A01259540A8430D79C5F3C005954049
:1017A0002843D862D86856000325B540A8435600A0
:1017B0008D68B5402843D8604D6805F08055B5F177
:1017C000805F78D100BF3F4D2D6E45F001053D4E45
:1017D000356635462D6E05F00105009500BF00BF4A
:1017E0004FEAB635960855F8260095072E0F0F25B7
:1017F000B540A84300E05EE0B3F1904F01D1002571
:101800001EE0314DAB4201D1012519E02F4DAB4215
:1018100001D1022514E02E4DAB4201D103250FE08A
:101820002C4DAB4201D104250AE02B4DAB4201D136
:10183000052505E0294DAB4201D1062500E007252D
:101840009607360FB5402843254D960845F82600E3
:10185000244D2868A0434D6805F48035B5F5803FD8
:1018600000D120431F4D28602D1D2868A0434D68DE
:1018700005F40035B5F5003F00D12043194D2D1D6D
:1018800028602D1D2868A0434D6805F48015B5F526
:10189000801F00D12043134D083528602D1D286876
:1018A000A0434D6805F40015B5F5001F00D1204395
:1018B0000C4D0C352860521C0D68D540002D7FF46E
:1018C00015AF78BD00100240000400480008004831
:1018D000000C0048001000480014004800180048A0
:1018E000080001400004014042694A4042617047DB
:1018F0000AB1816100E08162704700000148006820
:10190000704700002800002002480068401C014980
:10191000086070472800002010B50024052000F062
:1019200073F80F2000F008F808B1012401E000F07E
:101930001BF8204610BD000070B50446002509487C
:1019400000684FF47A71B0FBF1F6304600F04CFDC0
:1019500008B1012504E000222146501E00F012F8D3
:10196000284670BD14000020704700BF00F01F0221
:10197000012191404209920002F1E022C2F80011D7
:1019800000BF70472DE9F05F80460D4616460027E0
:1019900000F07EFF074639462A46334601F007002D
:1019A000C0F1070ABAF1040F02D94FF0040A01E0AE
:1019B000C0F1070AD14600F1040ABAF1070F02D2BA
:1019C0004FF0000A01E0A0F1030AD4464FF0010AEB
:1019D0000AFA09FAAAF1010A0AEA020A0AFA0CFA50
:1019E0004FF0010B0BFA0CFBABF1010B0BEA030BF5
:1019F0004AEA0B042146404600F052FF00F000B8CE
:101A000030BCBDE8C09F000000BF00F00702064BDD
:101A100019684FF6FF031940044B0B4343EA0221B8
:101A2000014B196000BF70470CED00E00000FA05A3
:101A30000246B2F5007F2AD11D48006800F4C0605C
:101A4000B0F5007F32D01A48006820F4C06040F43E
:101A50000070174B18601748006832235843164B24
:101A6000B0FBF3F0411C00E0491E1148406900F44E
:101A70008060B0F5806F01D10029F5D10C48406934
:101A800000F48060B0F5806F10D1032070470848E3
:101A9000006800F4C060B0F5806F07D004480068AB
:101AA00020F4C06040F48060014B18600020EDE736
:101AB000007000401400002040420F0002480068FF
:101AC00000F4C06070470000007000402DE9F04154
:101AD00004460D4614B90120BDE8F0815548006860
:101AE00000F00700A8420ED25248006820F007001C
:101AF0002843504908600846006800F00700A842E3
:101B000001D00120E8E7207800F00100002840D053
:101B10006068032806D14848006800F00070D8B912
:101B20000120D9E76068022806D14348006800F424
:101B3000003088B90120CFE7606830B93E480068BE
:101B400000F0020040B90120C6E73B48006800F4FD
:101B5000806008B90120BFE73748806820F00300A3
:101B60006168084334498860FFF7C8FE064608E00C
:101B7000FFF7C4FE801B41F28831884201D903205F
:101B8000AAE72D48806800F00C006168B0EB810F77
:101B9000EED1207800F00200022807D126488068A4
:101BA00020F0F000A16808432349886021480068BC
:101BB00000F00700A8420ED91E48006820F0070078
:101BC00028431C4908600846006800F00700A84246
:101BD00001D0012080E7207800F00400042807D11C
:101BE0001548806820F4E060E16808431249886085
:101BF000207800F00800082808D10F48806820F4F9
:101C00006050216940EAC1000B49886000F044F847
:101C100009498968C1F30311084A515C01F01F01A9
:101C2000C840074908600F20FFF786FE0746384680
:101C300052E700000020024000100240F453000868
:101C400014000020014800687047000014000020C4
:101C500000B5FFF7F7FF05498968C1F30221044A7F
:101C6000515C01F01F01C84000BD0000001002409F
:101C70000454000800B5FFF7E5FF05498968C1F382
:101C8000C221044A515C01F01F01C84000BD0000A0
:101C900000100240045400082DE9F0410024002007
:101CA000DFF800C1DCF808C00CF00C01DFF8F4C06C
:101CB000DCF80CC00CF0030719B10C291ED1012F60
:101CC0001CD1DFF8E0C0DCF800C00CF0080CBCF15F
:101CD000000F06D1DFF8CCC0DCF894C0CCF30324AD
:101CE00005E0DFF8C0C0DCF800C0CCF30314DFF877
:101CF000B8C05CF8244041B9204606E0042901D16F
:101D00002A4802E0082900D129480C2947D1DFF8E8
:101D100094C0DCF80CC00CF00305DFF888C0DCF8D8
:101D20000CC0CCF3021C0CF10103012D1FD0022DBD
:101D300002D0032D1AD10CE0DFF870C0BCFBF3FC1D
:101D4000DFF86080D8F80C80C8F306280CFB08F296
:101D500018E0DFF85CC0BCFBF3FCDFF84880D8F883
:101D60000C80C8F306280CFB08F20BE000BFB4FBA4
:101D7000F3FCDFF83080D8F80C80C8F306280CFBA1
:101D800008F200BF00BFDFF81CC0DCF80CC0CCF3C9
:101D9000416C0CF1010C4FEA4C06B2FBF6F0BDE8C9
:101DA000F0810000001002400C5400080024F400F0
:101DB00000127A002DE9F843044614B90120BDE869
:101DC000F883F848806800F00C06F648C06800F018
:101DD0000307207800F01000102875D11EB10C2EDA
:101DE00074D1012F72D1EF48006800F0020018B1E1
:101DF000A06908B90120E2E7EA48216A006800F01A
:101E0000080020B1E748006800F0F00005E0E54870
:101E10009430006800F47060000981421FD9206A84
:101E200000F052FD08B10120C9E700BFDD4800689D
:101E300040F00800DB4908600846006820F0F00028
:101E4000216A0843D749086000BF0846406820F46B
:101E50007F40E16940EA0120D24948601EE000BFAE
:101E6000D048006840F00800CE4908600846006885
:101E700020F0F000216A0843CA49086000BF084604
:101E8000406820F47F40E16940EA0120C54948608C
:101E9000206A00F019FD08B1012090E7FFF7FCFE71
:101EA000C0498968C1F30311BF4A515C01F01F01A9
:101EB000C840BE4908600F20FFF73EFD8046B8F1DC
:101EC000000F4ED040467AE74BE0FFE7A06980B3B1
:101ED000B448006840F00100B2490860FFF70EFD09
:101EE000054606E0FFF70AFD401B022801D9032042
:101EF00065E7AC48006800F002000028F2D000BF9F
:101F0000A848006840F00800A64908600846006834
:101F100020F0F000216A0843A249086000BF08468B
:101F2000406820F47F40E16940EA01209D49486013
:101F300017E0FFE79B48006820F00100994908601E
:101F4000FFF7DCFC054606E0FFF7D8FC401B022843
:101F500001D9032033E79348006800F0020000280D
:101F6000F2D1207800F0010000285CD0082E03D0C8
:101F70000C2E0AD1032F08D18A48006800F40030E3
:101F800088B3606878BB012019E700BF6068B0F5CE
:101F9000803F06D18348006840F480308149086062
:101FA0001AE06068B0F5A02F0BD17E48006840F4BD
:101FB00080207C4908600846006840F48030086052
:101FC0000AE07848006820F48030764908600846C6
:101FD000006820F48020086000BF606890B1FFF7BF
:101FE0008DFC054607E01EE0FFF788FC401B6428D7
:101FF00001D90320E3E66B48006800F400300028B4
:10200000F2D010E0FFF77AFC054606E0FFF776FC19
:10201000401B642801D90320D1E66248006800F41F
:1020200000300028F2D1207800F00200022852D1BE
:10203000042E03D00C2E14D1022F12D1594800685F
:1020400000F4806018B1E06808B90120B7E655488F
:10205000406820F0F850217C40EA01605149486016
:1020600039E0E06800B34F48006840F480704D49A3
:102070000860FFF743FC054606E0FFF73FFC401B06
:10208000022801D903209AE64648006800F48060DF
:102090000028F2D04348406820F0F850217C40EA04
:1020A00001604049486016E03E48006820F48070B6
:1020B0003C490860FFF722FC054606E0FFF71EFCDE
:1020C000401B022801D9032079E63648006800F455
:1020D00080600028F2D1207800F00800082836D16E
:1020E0006069D0B12F489430006840F001002D495C
:1020F000C1F89400FFF702FC054606E0FFF7FEFB7F
:10210000401B022801D9032059E626489430006874
:1021100000F002000028F1D019E022489430006855
:1021200020F001001F49C1F89400FFF7E7FB0546C6
:1021300006E0FFF7E3FB401B022801D903203EE63F
:1021400018489430006800F002000028F1D120788F
:1021500000F00400042870D14FF000091148806D90
:1021600000F0805078B900BF0E48806D40F080507C
:102170000C4988650846806D00F08050009000BFD3
:1021800000BF4FF001090A48006800F48070F0B900
:102190000748006840F4807005490860FFF7AEFB0F
:1021A00005460EE000100240F45300081400002021
:1021B00000700040FFF7A2FB401B022801D903205A
:1021C000FDE57C48006800F480700028F2D000BF74
:1021D000A068012808D17848006840F001007649DD
:1021E0009039C1F8900021E0A06805280FD172480D
:1021F000006840F0040070499039C1F8900008462A
:10220000D0F8900040F00100C1F890000EE06A485C
:10221000006820F0010068499039C1F89000084634
:10222000D0F8900020F00400C1F8900000BFA06832
:10223000A0B1FFF763FB054609E02EE0FFF75EFB68
:10224000401B41F28831884201D90320B7E55A4842
:10225000006800F002000028F0D012E0FFF74EFB0B
:10226000054608E0FFF74AFB401B41F288318842EF
:1022700001D90320A3E55048006800F002000028BF
:10228000F0D1B9F1010F07D14B489038806D20F0A3
:10229000805049499039886500BFA06AF0B30C2E80
:1022A00074D0A06A022853D143489038006820F0C7
:1022B0008070414990390860FFF720FB054606E031
:1022C000FFF71CFB401B022801D9032077E53A48A1
:1022D0009038006800F000700028F1D1206B401E9B
:1022E0000101606B41EA0021A06B000941EA404016
:1022F000E16A0843A18F0122C2EB510140EA41513A
:102300004020005DC2EB500041EA40602A4990390C
:10231000C8600846006840F0807000E048E008604F
:102320000846C06840F08070C860FFF7E7FA0546CD
:1023300006E0FFF7E3FA401B022801D903203EE53F
:102340001D489038006800F000700028F1D02FE0A0
:1023500019489038006820F080701749903908605B
:102360000846006800F0205020B90846C06820F0F8
:102370000300C86010489038C068104908400E49F2
:102380009039C860FFF7BAFA054607E00EE0FFF79C
:10239000B5FA401B022801D9032010E50648903801
:1023A000006800F000700028F1D101E0012006E58E
:1023B000002004E50070004090100240FFFFEEFE98
:1023C000042808D14FF0E021096941F004014FF0E1
:1023D000E022116107E04FF0E021096921F00401DA
:1023E0004FF0E0221161704770B504462546681E23
:1023F000B0F1807F01D301200FE0681E4FF0E02193
:1024000048610F214FF0FF3000F04AFA00204FF0F2
:10241000E021886107200861002070BD7047704787
:1024200001460022002391F8712091F8723042EAAF
:10243000030070472DE9F04104462068C569206813
:1024400006682068876805F00F08B8F1000F0CD106
:1024500005F0200048B106F0200030B1206E10B128
:102460002046216E8847BDE8F081B8F1000F7FD08B
:1024700007F0010018B906F49070002878D005F034
:10248000010048B106F4807030B101202168086273
:10249000606F40F00100606705F0020048B107F08E
:1024A000010030B1022021680862606F40F0040032
:1024B000606705F0040048B107F0010030B1042066
:1024C00021680862606F40F00200606705F0080054
:1024D00060B106F0200010B907F0010030B108200B
:1024E00021680862606F40F008006067606F78B331
:1024F00005F0200038B106F0200020B1206E10B1A8
:102500002046216E8847606F00F0080028B92068D7
:10251000806800F04000402824D1204600F05CFB99
:102520002068806800F04000402817D1206880684B
:1025300020F0400021688860E06E58B11F48E16ECD
:102540008863E06EFFF79FF810B1E06E816B8847FB
:102550000DE00DE02046FFF762FF08E02046FFF7A0
:102560005EFF04E02046FFF75AFF002060677AE72D
:1025700005F4801050B107F4800038B14FF480109A
:10258000216808622046FFF749FF6CE705F08000EC
:1025900040B106F0800028B1606E10B12046616E37
:1025A000884760E705F0400030B106F0400018B100
:1025B000204600F023FB56E700BF54E7C12B00087C
:1025C00010B504460CB9012010BDA06900B100E0AF
:1025D00000BF94F8710028B9002084F870002046EC
:1025E00000F02AF8242084F871002068006820F0A8
:1025F000010021680860204600F07AFB012800D124
:10260000E2E7606A10B1204600F024FA20684068D2
:1026100020F49040216848602068806820F02A00FB
:10262000216888602068006840F001002168086027
:10263000204600F08BFAC7E710B586B00446204963
:102640002068884239D100BF1E48C06C40F00100AC
:102650001C49C8640846C06C00F00100009000BF2F
:1026600000BF00BF0846006E40F480400866084680
:10267000006E00F48040009000BF00BF481501903C
:102680000220029001200390022004900720059070
:1026900001A94FF09040FFF725F84FF480600190BA
:1026A00001A94FF09040FFF71DF82520FFF75DF9D5
:1026B000032211462520FFF765F906B010BD000082
:1026C000003801400010024010B5034693F8720034
:1026D000202862D101B10AB9012010BD00BF93F8D2
:1026E0007000012801D10220F7E7012083F8700073
:1026F00000BF5965A3F85820A3F85A200020186697
:1027000000BF9868B0F5805F0AD1186920B940F21F
:10271000FF10A3F85C001CE0FF20A3F85C0018E0A9
:10272000986848B9186918B9FF20A3F85C0010E050
:102730007F20A3F85C000CE09868B0F1805F08D1BE
:10274000186918B97F20A3F85C0002E03F20A3F8C5
:102750005C0000BF00205867222083F872001868D0
:10276000806840F001001C68A0609868B0F5805F48
:1027700004D1186910B90A48186601E009481866BA
:1027800000BF002083F8700000BF1868006840F4A4
:1027900090701C68206000209FE702209DE70000E9
:1027A0001F2C00088B2C00081D4A0168914236D16D
:1027B0001C49098801F4004189BB1A49098801F4C0
:1027C000804171B1184909780A2903D00021154ABE
:1027D000118024E01349098841F40041114A118015
:1027E0001DE0114909780D2906D10E49098841F4E7
:1027F00080410C4A118012E00B490978094A12887D
:10280000C2F30D02094B995406490988491C054A2F
:10281000118011460988C72901DD00211180704708
:10282000003801402400002026000020A0000020E5
:10283000704700BFFEE7000000B587B000BF10483A
:10284000C06C40F010000E49C8640846C06C00F02F
:102850001000019000BF00BF4FF460700290012093
:10286000039004900220059002A90648FEF73AFF63
:1028700001224FF460710348FFF73AF807B000BD3A
:10288000001002400010004800BFFEE77047000043
:1028900002480068C0F30220704700000CED00E021
:1028A00010B5002807DA0A07140E054A00F00F03D6
:1028B0001B1FD45403E00A07130E024A135410BD21
:1028C00018ED00E000E400E0F8B5044600262348D7
:1028D000806D00F0805018B1FFF7F0F8054616E063
:1028E00000BF1E48806D40F080501C498865084636
:1028F000806D00F08050009000BF00BFFFF7DEF851
:1029000005461648806D20F0805014498865B5F55D
:10291000007F07D1802C10D9A02C01D902260CE011
:1029200001260AE0802C01D9032606E0802C01D183
:10293000022602E0702C00D101260948006820F030
:1029400007003043064908600846006800F00700A9
:10295000B04201D00120F8BD0020FCE70010024089
:102960000020024010B502F053FA012801D001F016
:102970003BFFFEF7C9FF10BD10B598B0002400BFA3
:102980001F48806D40F080501D4988650846806D65
:1029900000F08050019000BF00BF012007900004AC
:1029A000089002201190032112910121139114210A
:1029B00014910721159102211691179107A8FFF78D
:1029C000F9F904460CB100BFFEE70F200290032086
:1029D00003900020049005900690042102A8FFF7C0
:1029E00075F804460CB100BFFEE74FF40070FFF726
:1029F0001FF804460CB100BFFEE718B010BD000080
:102A0000001002401048006840F470000E49086051
:102A10000E48006840F001000C4908600020886002
:102A2000084600680A490840084908608814C860D8
:102A30000846006820F48020086000208861C803F0
:102A4000014980390860704788ED00E000100240BD
:102A5000FFFFF6EA90F8241001F0010139B1016896
:102A6000496821F40031826A11430268516090F88C
:102A7000241001F00201022907D10168496821F4FC
:102A80008031C26A11430268516090F8241001F04D
:102A90000401042907D10168496821F48021026BEF
:102AA00011430268516090F8241001F008010829D0
:102AB00007D10168496821F40041426B1143026863
:102AC000516090F8241001F01001102907D101681D
:102AD000896821F48051826B11430268916090F8FB
:102AE000241001F02001202907D10168896821F410
:102AF0000051C26B11430268916090F8241001F0FC
:102B00004001402913D10168496821F48011026C09
:102B1000114302685160016CB1F5801F07D1016853
:102B2000496821F4C001426C11430268516090F879
:102B3000241001F08001802907D10168496821F43F
:102B40000021826C114302685160704738B5044619
:102B5000002500206067FEF7D1FE0546206800686A
:102B600000F0080008280CD16FF07E402B460022B0
:102B70004FF400110090204600F003FB08B1032041
:102B800038BD2068006800F0040004280CD16FF004
:102B90007E402B4600224FF480010090204600F03A
:102BA000F0FA08B10320EBE7202084F8710084F8E4
:102BB000720000BF002084F8700000BF00BFDFE794
:102BC00070B50546AC6A0020A4F85A00A4F852007B
:102BD0002046FFF724FC70BD0168096821F490715C
:102BE000026811600168896821F001010268916042
:102BF000202180F8721000210166704710B504464C
:102C00002068006820F0400021680860202084F8D7
:102C10007100002060662046FFF70AFE10BD2DE916
:102C2000F0410446B4F85C7094F87200222824D174
:102C30002068868C656D06EA07002880606D801C20
:102C40006065B4F85A00401E80B2A4F85A00D0B9AA
:102C50002068006820F4907021680860206880680F
:102C600020F0010021688860202084F87200002094
:102C700020662046FFF798FD05E02068008B40F0B5
:102C8000080021680883BDE8F08170B50446B4F8F7
:102C90005C6094F87200222823D12068858CF0B201
:102CA0002840626D511C61651070B4F85A00401ED6
:102CB00080B2A4F85A00D0B92068006820F490705F
:102CC000216808602068806820F001002168886021
:102CD000202084F87200002020662046FFF764FD63
:102CE00005E02068008B40F008002168088370BD73
:102CF0002DE9F84F04464FF0000910264FF0000B65
:102D00000025002000908246F7492068884200D1C3
:102D100000E000BF2169A068084361690843E169D8
:102D200040EA010920680068F049084040EA0900CB
:102D3000216808602068406820F44050E16808433A
:102D400021684860D4F81890E7492068884202D08A
:102D5000206A40EA09092068806820F4306040EA6F
:102D600009002168886000BFE1492068884216D1C7
:102D7000E048006800F0030030B1012808D00228C4
:102D800004D0032808D105E0012607E0022605E06B
:102D9000042603E0082601E0102600BF8CE0D64997
:102DA0002068884216D1D348006800F00C0030B18A
:102DB000042808D0082804D00C2808D105E00026F3
:102DC00007E0022605E0042603E0082601E01026BD
:102DD00000BF71E0C9492068884216D1C548006823
:102DE00000F0300030B1102808D0202804D030285E
:102DF00008D105E0002607E0022605E0042603E0EE
:102E0000082601E0102600BF56E0BD492068884230
:102E100016D1B848006800F0C00030B1402808D092
:102E2000802804D0C02808D105E0002607E002264B
:102E300005E0042603E0082601E0102600BF3BE081
:102E4000B0492068884219D1AA48006800F440704F
:102E500048B1B0F5807F0AD0B0F5007F05D0B0F55D
:102E6000407F08D105E0002607E0022605E00426A1
:102E700003E0082601E0102600BF1DE09A49206803
:102E8000884219D19B48006800F4406048B1B0F511
:102E9000806F0AD0B0F5006F05D0B0F5406F08D153
:102EA00005E0002607E0022605E0042603E00826E8
:102EB00001E0102600BF00BF00BF8B492068884298
:102EC00072D1042E10D003DC3EB1022E13D108E0E3
:102ED000082E0DD0102E0ED10EE0FEF7B9FE824660
:102EE0000DE0DFF824A20AE0FEF7D6FE824606E0F7
:102EF0004FF4004A03E000BF0120009000BF00BF74
:102F0000BAF1000F0AD0606800EB4000504503D8CA
:102F100060680003504502D20120009025E1042E94
:102F20002ED003DC3EB1022E51D118E0082E3CD049
:102F3000102E4CD14CE0FEF78BFE4FF48071A0FBBD
:102F40000131606840081F1841F10001D4F804C045
:102F5000624600233846FDF708FA05463BE0D4F800
:102F600004C04FEA5C000021684BC71841EB010820
:102F700062460B4638464146FDF7F7F905462AE01A
:102F8000FEF78AFE4FF48071A0FB013061684908AA
:102F90005F1840F10001D4F804C0624600233846AF
:102FA000FDF7E3F9054616E022E0D4F804C04FEA45
:102FB0005C0000214FF40003C71841EB0108624692
:102FC0000B4638464146FDF7D0F9054603E000BF01
:102FD0000120009000BF00BFB5F5407F05D3B5F5D7
:102FE000801F02D22068C560BFE001200090BCE0D5
:102FF000E069B0F5004F57D1042E28D005DC4EB162
:10300000012E11D0022E36D118E0082E29D0102E14
:1030100031D131E0FEF71CFE4000616800EB510049
:10302000B0FBF1F085B22AE0FEF724FE40006168B3
:1030300000EB5100B0FBF1F085B220E0344960684C
:1030400001EB50006168B0FBF1F085B217E0FEF7CC
:1030500023FE4000616800EB5100B0FBF1F085B247
:103060000DE04FF48031606801EB50006168B0FB07
:10307000F1F085B203E000BF0120009000BF00BF67
:10308000102D0ED3B5F5803F0BD24FF6F07005EA48
:10309000000BC5F342004BEA000B2068C0F80CB0EF
:1030A00063E00120009060E0042E3CD005DC4EB1CE
:1030B000012E10D0022E49D12CE0082E3CD0102E2B
:1030C00044D144E0FEF7C4FD616800EB5100B0FB61
:1030D000F1F085B23EE0FEF7CDFD616800EB5100F6
:1030E000B0FBF1F085B235E000800040F369FFEFFE
:1030F0000038014088100240004400400048004071
:10310000004C0040005000400024F400000024F473
:103110000048E8011849606801EB50006168B0FBA5
:10312000F1F085B216E0FEF7B7FD616800EB5100E3
:10313000B0FBF1F085B20DE04FF40041606801EBA7
:1031400050006168B0FBF1F085B203E000BF0120E0
:10315000009000BF00BF102D05D3B5F5803F02D20F
:103160002068C56001E001200090002020666066B4
:10317000009800F003B800000024F40018BCBDE87B
:10318000E08F2DE9F04104460D4617469846069E0D
:1031900021E0701CF8B12EB1FEF7B0FBA0EB0800E7
:1031A000B04218D92068006820F4D0702168086007
:1031B0002068806820F0010021688860202084F861
:1031C000710084F8720000BF002084F8700000BF16
:1031D0000320BDE8F0812068C0692840A84201D1E1
:1031E000012000E00020B842D3D00020F1E7000029
:1031F00070B500240F4D1048FFF71CF900BF03E025
:10320000641CAC4200D904E00B48FFF709F9202800
:10321000F6D100BF002403E0641CAC4200D906E0F4
:10322000012206490448FFF74FFA0028F4D100BFF5
:1032300070BD0000FFFF0100680100202600002093
:1032400000BFFEE703B401984100009850EAC12096
:1032500018BF04204A0D18BF40F0010040F2FF7271
:10326000B2EB515F08BF40F00200012808BF052003
:1032700002B0704730380A2801D201207047002080
:10328000704700BF7047000070B504460420FFF788
:1032900097F80C48046025464FF47A7045430120A6
:1032A000094908804FF0E020006940F002004FF02B
:1032B000E021086108464561006940F001000861AD
:1032C00070BD0000180000201C0000202DED028BB6
:1032D00016E00C4890ED000ADFED0B0A30EE200AF4
:1032E00080ED000A006802F00DF841EC180B53EC79
:1032F000182B06A0FDF7B0F84FF47A7001F032F801
:10330000E7E70000100000200AD7233C666C6F61DD
:10331000745F6E756DB5C4D6B5CEAA3A20252E342D
:10332000660D0A0000BF054A126802F04002002A3A
:10333000F9D0C2B2014B0C331A8070471C380140DF
:1033400007E080210348FEF7CFFA4FF4FA7001F04E
:1033500009F8F6E70010004810E04FF480710848C3
:10336000FEF7C2FAC82000F0FDFF4FF48071044858
:10337000FEF7BAFA4FF4487000F0F4FFEDE70000F2
:10338000001000481CB5FEF7C7FAFFF7F5FA502009
:10339000FFF77AFFFFF750FA4FF4E13000F05EFEDE
:1033A00012A0FDF759F821A0FDF756F820A0FDF76F
:1033B00053F828A22AA12DA0FDF74EF832A0FDF760
:1033C0004BF81AA0FDF748F836A0FDF745F8454838
:1033D000012100238022CDE9001043A1454801F0DE
:1033E000E3FC01F0B5F800201CBD00000D0A3D3DD6
:1033F0003D3D3D3D3D3D3D3D3D3D3D3D3D3D3D3DFD
:103400003D3D3D3D3D3D3D3D3D3D3D3D3D3D3D3DEC
:103410003D3D3D3D3D3D3D3D3D3D3D3D3D3D3D3DDC
:103420003D3D3D3D3D3D3D3D3D0D0A000D0A000049
:10343000202020202A2A2A2A2A20467265655254F2
:103440004F53205631302E302E31202A2A2A2A2A54
:103450000D0A00004A616E203138203230313900C7
:1034600030383A35313A3036000000002020202034
:10347000436F6D70696C652054696D653A25732CD6
:103480002025730D0A00000020202020417574685B
:103490006F722062792051696E59554E3537350D5E
:1034A0000A0000003D3D3D3D3D3D3D3D3D3D3D3D36
:1034B0003D3D3D3D3D3D3D3D3D3D3D3D3D3D3D3D3C
:1034C0003D3D3D3D3D3D3D3D3D3D3D3D3D3D3D3D2C
:1034D0003D3D3D3D3D3D3D3D3D3D3D3D3D3D3D0D4C
:1034E0000A0000000000002073746172745F746150
:1034F000736B0000C93F00082DE9F04105460E46F8
:103500001C4807681C480068001D00F0C3FD50B946
:103510001948006890F82C10012088401749096864
:10352000814316480160681C38B936B112480168F9
:10353000091D134800F0ECFD1AE07C190E480068E4
:103540004460BC4207D20C480168091D0D48006860
:1035500000F0C4FD0CE008480168091D0A48006835
:1035600000F0BCFD09480068844201D207480460AD
:10357000BDE8F081400000202C0000204400002025
:10358000D402002034000020300000205C00002025
:1035900010B5044600F0C8FD24480068401C2349CB
:1035A00008602348006840B9214804600846006864
:1035B00001280DD100F0D2F90AE01E48006838B9A0
:1035C0001B480068C06AE16A884201D81848046054
:1035D00019480068401C18490860084600682064C3
:1035E00094F82C10012088401449096808431349B5
:1035F0000860E16A01EB8101114A02EB8100211DA3
:1036000000F086FD00F0BAFD0A48006868B108487D
:103610000068C06AE16A884207D24FF080500949C9
:103620000860BFF34F8FBFF36F8F10BD3C000020C9
:103630002C000020480000205800002044000020FA
:103640002002002004ED00E010B500F06DFD1048F0
:103650000068D0B90F4800F031FD0F4800F02EFD92
:103660000C480E4908600C480D49086000220C21E6
:103670000A2001F0D3F8064908600846006820B126
:1036800008A10348006800F031FE00F077FD10BD8E
:1036900070000020E8020020FC02002068000020EA
:1036A0006C000020546D72510000000010B516E04F
:1036B00000F03AFD0C48C068C468201D00F0EAFC28
:1036C0000A480068401E0949086009480068401E11
:1036D0000749086000F052FD204600F05EF80448FB
:1036E00000680028E4D110BDC00200203C0000208A
:1036F0003800002070B504460D46206C70B1216C76
:10370000E0680844E0606168E068884201D32068AE
:10371000E0602846226CE168FCF75AFF70BD2DE995
:10372000F04104460F4615464FF00008A66B206C8A
:1037300040B9206860BB606801F024FC804600202E
:10374000606025E07DB93946226CA068FCF740FF37
:10375000216CA0680844A060D4E90110884217D306
:103760002068A06014E03946226CE068FCF730FF66
:10377000216CE068401AE0602168E068884203D26A
:10378000216C6068401AE060022D01D106B1761EFE
:10379000701CA0634046BDE8F08110B50446206B64
:1037A00000F00AFD204600F007FD10BD0146084A62
:1037B000126812680AB9012200E000220A600A6851
:1037C00022B9034A1268D268106800E000207047EE
:1037D0006800002030B54FF49633174800F0070416
:1037E0002CB1C01D20F00700134C041B1B1B02460C
:1037F000124C22600024114D6C60D018083820F063
:1038000007000F4C206000240D4D2D686C600C4D9E
:103810002D682C601146441A4C60094C24680C60D9
:10382000084D4C682C60084D4C682C604FF00044EB
:10383000064D2C6030BD0000100300207C000020ED
:10384000840000208C0000208800002090000020D0
:1038500000BFFFF72BFF064800680128F9D94FF099
:10386000805004490860BFF34F8FBFF36F8FF0E7BC
:103870002002002004ED00E02DE9F04106460D464F
:1038800017469846069C0DB9246000E02760E66361
:1038900025640121204600F0EDFF84F84C80BDE84E
:1038A000F0812DE9F05F82460F4690469B460A9EC6
:1038B0000C9C4FEA8801A522206BFCF700FFA8F1C1
:1038C0000100216B01EB800929F0070909F00700CD
:1038D00008B9012000E0002050B900BF502080F35B
:1038E0001188BFF34F8FBFF36F8F00BF00BFFEE79C
:1038F000002507E0795D04F134004155785D00B999
:1039000002E06D1C0A2DF5D300BF00213D200155BA
:10391000052E00D30426E662A6640020E064201D84
:1039200000F0D9FB04F1180000F0D5FB2461C6F1CA
:103930000500A06164620020206584F854005A46A6
:103940005146484600F02AFB20600B9808B10B98BE
:10395000046000F000B830BCBDE8C09F10B5002482
:1039600007E004EB84010F4A02EB810000F0A6FBA4
:10397000641C052CF5D30C4800F0A0FB0B4800F0AC
:103980009DFB0B4800F09AFB0A4800F097FB0A48A1
:1039900000F094FB0448094908600448084908609D
:1039A00010BD0000200200208402002098020020A8
:1039B000AC020020C0020020D40200203000002011
:1039C0003400002010B50146164800E00068036886
:1039D0008B42FBD30246436813448B4204D14368B5
:1039E0004C682344436001460A464B68134404680C
:1039F000A34211D10C4C03682468A34208D04B6841
:103A00000468646823444B6003681B680B6005E02E
:103A1000054B1B680B6001E003680B60884200D017
:103A2000016010BD7C000020840000202DE9F041E1
:103A300004460D4616461F464FF000086560246197
:103A4000B5420CD8F01BA169884202D34FF001089F
:103A500011E0211D0948006800F040FB0BE0BE4268
:103A600004D2BD4202D34FF0010804E0211D0448F6
:103A7000006800F033FB4046BDE8F0816C00002098
:103A80006800002070B5054600F04EFBA86B08B931
:103A9000012400E0002400F071FB204670BD70B5E9
:103AA000054600F041FBA86BE96B884201D1012477
:103AB00000E0002400F062FB204670BDF8B505462A
:103AC0000F4616480068C068C468201D00F0E2FA7E
:103AD000E06901281DD1A06941192B463A462046CC
:103AE000FFF7A4FFA8B1002003462A460146009034
:103AF000204601F0A5FB064656B900BF502080F3D2
:103B00001188BFF34F8FBFF36F8F00BF00BFFEE779
:103B100000BF2046616A8847F8BD000068000020A9
:103B200070B586B06AE00398002867DB059C606981
:103B300008B9012000E0002010B9201D00F0AAFA09
:103B400002A800F0BBF8054603980A2854D2DFE823
:103B500000F009050731334F0608323400BF00BFBB
:103B600000BF00BF0498A269811803462A46204678
:103B7000FFF75CFFE8B12046616A8847E0690128E9
:103B800017D1002000900498A1694218002319461B
:103B9000204601F055FB064656B900BF502080F381
:103BA0001188BFF34F8FBFF36F8F00BF00BFFEE7D9
:103BB00000BF22E000BF20E000BF0498A061A06920
:103BC00008B1012000E0002050B900BF502080F370
:103BD0001188BFF34F8FBFF36F8F00BF00BFFEE7A9
:103BE000A06941192B462A462046FFF71FFF04E033
:103BF000204600F0E1FA00E000BF00BF002203A968
:103C00000348006800F0D6FF00288CD106B070BDD4
:103C100070000020F8B505460C4600F0E3FC68464D
:103C200000F04CF80646009820BB44B9B54206D8CF
:103C300001F058FA31462846FFF740FF1CE03CB13E
:103C40000E480068006808B9012000E00020044622
:103C5000A91B22460A48006800F05EFB01F042FA08
:103C600050B94FF0805007490860BFF34F8FBFF342
:103C70006F8F01E001F036FAF8BD00006C00002003
:103C80007000002004ED00E00A490968096809B9DC
:103C9000012100E0002121B14FF0FF31064A1160FF
:103CA00006E004490968C968C868034A41681160A8
:103CB00070470000300000205C00002070B5044612
:103CC00001F0B6F8054607480068854204D200F0C6
:103CD0000BF80120206001E0002020600148056011
:103CE000284670BD780000202DE9F84332E02448D2
:103CF0000068C068056822480068C068C468201D64
:103D000000F0C8F92046616A8847E069012821D19E
:103D1000A0694619AE4207D966602461211D184882
:103D2000006800F0DBF915E0002003462A46014652
:103D30000090204601F084FA074657B900BF502092
:103D400080F31188BFF34F8FBFF36F8F00BF00BFA9
:103D5000FEE700BF0A480068006808B9012000E0DB
:103D600000200028C3D00648D0F80080054800682D
:103D7000034908600348C0F80080BDE8F8830000EC
:103D8000680000206C0000200E480068401C08B944
:103D9000012000E0002050B900BF502080F31188BE
:103DA000BFF34F8FBFF36F8F00BF00BFFEE700BFB1
:103DB000502080F31188BFF34F8FBFF36F8F00BF88
:103DC00000BFFEE79400002008B500BF6846FFF77B
:103DD000EDFC044620460099FFF71CFFFFF7A0FE0C
:103DE000F4E770B5044600F09FF994F9455010E0EF
:103DF000606A08B9012000E0002038B904F124000D
:103E000001F024F918B100F061FB00E003E0681E46
:103E100045B2002DECDC00BFFF2084F8450000F027
:103E2000ADF900F081F994F9445010E0206908B927
:103E3000012000E0002048B904F1100001F006F96B
:103E400008B100F043FB681E45B200E001E0002D20
:103E5000ECDC00BFFF2084F8440000F08FF970BD57
:103E60002DE9F04104464FF0000800F0BBFB464846
:103E7000006808B9FFF7AEFC4448006820400028FD
:103E80006BD1D4B1083404F00700B0B104F00700DE
:103E9000C0F10800044404F0070008B9012000E064
:103EA000002050B900BF502080F31188BFF34F8F1E
:103EB000BFF36F8F00BF00BFFEE7002C4DD034482A
:103EC0000068844249D8334E3046056801E02E46EA
:103ED0002D686868A04202D228680028F7D12A48D5
:103EE0000068854239D0306800F1080828683060E1
:103EF0006868001B102819D92F1907F0070008B9A6
:103F0000012000E0002050B900BF502080F311884C
:103F1000BFF34F8FBFF36F8F00BF00BFFEE768682E
:103F2000001B78606C603846FFF74CFD18496868E4
:103F30000968081A164908600846006816490968A1
:103F4000884203D212480068134908600F49686824
:103F50000968084368600020286001F0C3F808F091
:103F6000070008B9012000E0002050B900BF502030
:103F700080F31188BFF34F8FBFF36F8F00BF00BF77
:103F8000FEE74046BDE8F08184000020900000205C
:103F9000880000207C0000208C000020001F4FF0D3
:103FA00080730360001F21F001030360001F054BB5
:103FB000036014380260001F6FF0020303602038B2
:103FC00070470000893D00081CB5044600F0ACF8BD
:103FD0001248022100233222CDE9001010A113481B
:103FE00000F0E2FE1248032100233222CDE9001046
:103FF00010A1134800F0D8FE1248042100238022AB
:10400000CDE9001010A1134800F0CEFE1248006860
:1040100000F0D6F900F0B2F81CBD0000040000204A
:104020006C6564305F7461736B000000413300089D
:10403000080000206C6564315F7461736B000000E0
:10404000593300080C000020666C6F61745F746166
:10405000736B0000CD3200080000002010B504464C
:1040600009480A4908600846446000218160C1602F
:10407000016181610C214161FEF7A2FA012204492C
:104080000248FEF721FB10BD003801406801002006
:104090002600002001460A69D1E901309860D1E983
:1040A000010358605068884201D188685060002040
:1040B00008611068401E10601068704700F1080128
:1040C00041604FF0FF31816000F10801C160016182
:1040D00000210160704700210161704710B5024660
:1040E0000B685C1C0CB9106907E002F1080000E0E5
:1040F0004068446824689C42FAD944684C604C6823
:10410000A160886041600A611468641C146010BD7D
:1041100042684A6093688B60936859609160086157
:1041200003685B1C0360704700BF502080F3118858
:10413000BFF34F8FBFF36F8F00BF0E480068401C66
:104140000C49086008460068012812D10A48006836
:10415000C0B208B9012000E0002050B900BF5020D3
:1041600080F31188BFF34F8FBFF36F8F00BF00BF85
:10417000FEE770479400002004ED00E00D48006861
:1041800050B900BF502080F31188BFF34F8FBFF3A9
:104190006F8F00BF00BFFEE706480068401E05495C
:1041A00008600846006820B9002080F3118800BF2D
:1041B00000BF70479400002070B506463546002EBB
:1041C0003FD0083D2C461F4960680968084008B187
:1041D000012000E0002050B900BF502080F311887A
:1041E000BFF34F8FBFF36F8F00BF00BFFEE72068A4
:1041F00008B9012000E0002050B900BF502080F332
:104200001188BFF34F8FBFF36F8F00BF00BFFEE772
:104210000C4960680968084098B1206888B9094964
:10422000606809688843606000F0DCF906496068EE
:1042300009680844044908602046FFF7C3FB00F002
:1042400051FF70BD900000208800002000204FF03A
:10425000E02108618861064800684FF47A71B0FB7C
:10426000F1F0401E4FF0E0214861072008617047DF
:104270001400002070B5FCF743F80446102C16D348
:1042800004F1E02090F8F05315480078854201DBF6
:10429000012000E0002050B900BF502080F31188B9
:1042A000BFF34F8FBFF36F8F00BF00BFFEE70D4816
:1042B000006800F4E0600C490968884201D80120D8
:1042C00000E0002050B900BF502080F31188BFF3F8
:1042D0004F8FBFF36F8F00BF00BFFEE770BD0000C0
:1042E000980000200CED00E09C0000200246002019
:1042F0000BE0084B53F8303033B9064B43F830101D
:1043000003EBC0035A6002E0401C0828F1D300BF51
:1043100070470000E00100202DE9F04105460E46FF
:1043200017462C46FFF700FF94F94400401C10B9D3
:10433000002084F8440094F94500401C10B9002086
:1043400084F84500FFF71AFFA06B28B93A463146BA
:1043500004F1240000F0DCF82046FFF742FDBDE840
:10436000F081000070B504460025D4B11248006801
:1043700008B9012000E0002050B900BF502080F3B0
:104380001188BFF34F8FBFF36F8F00BF00BFFEE7F1
:1043900000F028F900212046FFF7AEF800F0A2FE59
:1043A00005463DB94FF0805004490860BFF34F8F78
:1043B000BFF36F8F70BD00006400002004ED00E0CB
:1043C00070B50546FFF7B0FE15B93048006800E04B
:1043D00028460446201DFFF75DFE78B9E06A00EB31
:1043E00080002B4951F8200040B994F82C1001208E
:1043F000884028490968814326480160A06A18B1AD
:1044000004F11800FFF746FE23480068401C2249CB
:1044100008601E480068844209D1211D1F48FFF72B
:1044200077FE1F480068401C1D49086009E01D48D0
:104430000068401E1B4908602046FFF7AEF9FFF7F1
:1044400023FCFFF79BFE18480068E8B10F4800689E
:10445000844219D11548006808B9012000E0002005
:1044600050B900BF502080F31188BFF34F8FBFF3C6
:104470006F8F00BF00BFFEE74FF080500C4908600F
:10448000BFF34F8FBFF36F8F70BD00002C00002073
:10449000200200204400002058000020C00200201C
:1044A000380000203C00002048000020640000206C
:1044B00004ED00E0034909680160034909684160AF
:1044C00070470000540000204000002001200149F6
:1044D000086070475000002070B504460D4654B97E
:1044E00000BF502080F31188BFF34F8FBFF36F8F51
:1044F00000BF00BFFEE70548016818312046FFF7FE
:10450000EDFD01212846FEF7F7FF70BD2C000020CD
:1045100070B505460E46144655B900BF502080F3CD
:104520001188BFF34F8FBFF36F8F00BF00BFFEE74F
:104530000648016818312846FFF7EAFD0CB14FF034
:10454000FF3621463046FEF7D7FF70BD2C00002015
:104550001CB51D4800210B468222CDE900101BA18D
:104560001C4800F021FC0446012C02D100F03CFE66
:104570000446012C15D100BF502080F31188BFF3F1
:104580004F8FBFF36F8F00BF4FF0FF3012490860AD
:1045900001201249086000201149086000F070F8FD
:1045A00010E0601C08B1012000E0002050B900BFFD
:1045B000502080F31188BFF34F8FBFF36F8F00BF80
:1045C00000BFFEE71CBD00006000002049444C45D0
:1045D00000000000513800085C0000204800002066
:1045E0004000002002480068401C014908607047F4
:1045F000640000201D48006818B101201C490860B3
:1046000032E000201A4908601A480068B0FA80F0C9
:10461000C0F11F0101EB8100174A52F8200008B1D8
:10462000012000E0002050B900BF502080F3118825
:10463000BFF34F8FBFF36F8F00BF00BFFEE701EBEB
:1046400081020D4B03EB820042685268426000F128
:1046500008024368934202D142685268426042684D
:10466000D268064B1A6000BF70470000640000204B
:104670005000002044000020200200202C000020D8
:104680001CB5524800685249884201D0012000E020
:10469000002050B900BF502080F31188BFF34F8F26
:1046A000BFF36F8F00BF00BFFEE74848006848496E
:1046B000491E884201D0012000E0002050B900BF0F
:1046C000502080F31188BFF34F8FBFF36F8F00BF6F
:1046D00000BFFEE73F49084600780190FF200A46E8
:1046E00010700846007800909DF8000000F0F0007F
:1046F0009DF80020904201D1012000E0002050B937
:1047000000BF502080F31188BFF34F8FBFF36F8F2E
:1047100000BF00BFFEE79DF8000000F050002E4AE9
:10472000107007202D4A106009E02C480068401ED8
:104730002A4A10609DF800004006000E00909DF887
:10474000000000F080008028EFD024480068C0F10D
:104750000700042801D1012000E0002050B900BF6B
:10476000502080F31188BFF34F8FBFF36F8F00BFCE
:1047700000BFFEE7194800680002184A10601046A2
:10478000008800F4E0601060124A019810700F4831
:104790002030006840F470000C4920310860084661
:1047A000006840F070400860FFF750FD00200C49A1
:1047B0000860FBF76DFD0B48006840F04040094978
:1047C0000860FBF751FD00201CBD000000ED00E07B
:1047D00071C20F4100E400E0980000209C0000201E
:1047E0009400002034EF00E010B500BF502080F3AB
:1047F0001188BFF34F8FBFF36F8F00BF00F01EFB18
:1048000018B14FF080500449086000BF002080F3C9
:10481000118800BF10BD000004ED00E02DE9F84351
:1048200005460E4690460DB1012000E0002050B92B
:1048300000BF502080F31188BFF34F8FBFF36F8FFD
:1048400000BF00BFFEE70EB9002701E005FB06F739
:1048500007F15000FFF704FB044644B104F150098E
:1048600043464A46314628460094FFF705F820465D
:10487000BDE8F88370B505460E462C4654B900BF16
:10488000502080F31188BFF34F8FBFF36F8F00BFAD
:1048900000BFFEE7FFF748FCD4E90F12206801FBD8
:1048A000020060600020A0632068A060E06B401EF2
:1048B000226C216800FB0210E060FF2084F84400B5
:1048C00084F845009EB9206908B9012000E0002065
:1048D000A8B904F1100000F0B9FB80B14FF080508E
:1048E00009490860BFF34F8FBFF36F8F07E004F1F2
:1048F0001000FFF7E3FB04F12400FFF7DFFBFFF7F5
:104900003DFC012070BD000004ED00E02DE9FF43F7
:1049100083B0064688461D464FF00009344654B918
:1049200000BF502080F31188BFF34F8FBFF36F8F0C
:1049300000BF00BFFEE7B8F1000F01D1206C08B93D
:10494000012000E0002050B900BF502080F3118802
:10495000BFF34F8FBFF36F8F00BF00BFFEE7022D85
:1049600002D1E06B012801D1012000E0002050B904
:1049700000BF502080F31188BFF34F8FBFF36F8FBC
:1049800000BF00BFFEE700F043FA08B9059808B978
:10499000012000E0002050B900BF502080F31188B2
:1049A000BFF34F8FBFF36F8F00BF00BFFEE700BFA5
:1049B000FFF7BAFBA06BE16B884201D3022D28D12F
:1049C0002A4641462046FEF7AAFE0746606A08B915
:1049D000012000E0002068B904F1240000F036FB5B
:1049E00088B14FF0805032490860BFF34F8FBFF35A
:1049F0006F8F08E03FB14FF080502D490860BFF342
:104A00004F8FBFF36F8FFFF7B9FB012007B0BDE8F1
:104A1000F083059818B9FFF7B1FB0020F6E7B9F16C
:104A2000000F04D101A8FFF745FD4FF00109FFF782
:104A3000A5FBFFF7D7FDFFF777FB94F94400401C77
:104A400010B9002084F8440094F94500401C10B9C6
:104A5000002084F84500FFF791FB05A901A800F0AC
:104A60005DF9F0B92046FFF71AF8A0B104F1100083
:104A70000599FFF731FD2046FFF7B3F900F032FB4F
:104A8000002895D14FF0805009490860BFF34F8F3F
:104A9000BFF36F8F8CE72046FFF7A3F900F022FBEE
:104AA00086E72046FFF79DF900F01CFB0020ADE7EC
:104AB00004ED00E02DE9F05F07468A4690461E4669
:104AC0003C4654B900BF502080F31188BFF34F8F8C
:104AD000BFF36F8F00BF00BFFEE7BAF1000F01D137
:104AE000206C08B9012000E0002050B900BF502020
:104AF00080F31188BFF34F8FBFF36F8F00BF00BFEC
:104B0000FEE7022E02D1E06B012801D1012000E076
:104B1000002050B900BF502080F31188BFF34F8FA1
:104B2000BFF36F8F00BF00BFFEE7FFF7A3FB00BF1F
:104B30005021EFF3118081F31188BFF34F8FBFF342
:104B40006F8F00BF0546A06BE16B884201D3022E38
:104B500023D194F945B0324651462046FEF7DFFD99
:104B60000BF1010088B9606A08B9012000E000205B
:104B700080B904F1240000F069FA58B1B8F1000FCF
:104B800008D00120C8F8000004E00BF1010040B299
:104B900084F845004FF0010901E04FF0000900BF23
:104BA00085F3118800BF484600F000B830BCBDE86E
:104BB000C09F00002DE9F74183B005460E464FF037
:104BC00000082C4654B900BF502080F31188BFF371
:104BD0004F8FBFF36F8F00BF00BFFEE70EB9206C91
:104BE00008B9012000E0002050B900BF502080F338
:104BF0001188BFF34F8FBFF36F8F00BF00BFFEE779
:104C000000F006F908B9059808B9012000E0002075
:104C100050B900BF502080F31188BFF34F8FBFF30E
:104C20006F8F00BF00BFFEE700BFFFF77DFAA76BE5
:104C3000F7B131462046FEF75DFD781EA06320697E
:104C400008B9012000E0002060B904F1100000F074
:104C5000FDF938B14FF080502F490860BFF34F8FF6
:104C6000BFF36F8FFFF78AFA012006B0BDE8F0812D
:104C7000059818B9FFF782FA0020F6E7B8F1000F9F
:104C800004D101A8FFF716FC4FF00108FFF776FAF0
:104C9000FFF7A8FCFFF748FA94F94400401C10B94C
:104CA000002084F8440094F94500401C10B900200D
:104CB00084F84500FFF762FA05A901A800F02EF874
:104CC000F0B92046FEF7DEFEA0B104F124000599FC
:104CD000FFF702FC2046FFF784F800F003FA0028F3
:104CE000A3D14FF080500C490860BFF34F8FBFF342
:104CF0006F8F9AE72046FFF774F800F0F3F994E716
:104D00002046FFF76EF800F0EDF92046FEF7BAFEF8
:104D100000288AD00020A8E704ED00E070B5054621
:104D20000C4655B900BF502080F31188BFF34F8F58
:104D3000BFF36F8F00BF00BFFEE754B900BF502024
:104D400080F31188BFF34F8FBFF36F8F00BF00BF99
:104D5000FEE7FFF7E9F9124802686868131A20684D
:104D6000401C08B9002617E00E49286809688842E7
:104D700004D06868904201D801260DE0206898426E
:104D800007D92068C01A20602846FFF793FB002649
:104D900002E0002020600126FFF7F0F9304670BDE8
:104DA00040000020540000202DE9FF4F85B08046D0
:104DB00089461746DDE912ABB800FFF751F8064601
:104DC00056B15820FFF74CF804460CB1266304E0B6
:104DD0003046FFF7F1F900E000247CB10020CDE976
:104DE00000ABCDE902403A4649464046089BFEF7F3
:104DF00058FD2046FEF7CCFB012501E04FF0FF35C2
:104E0000284609B000F000B830BCBDE8C08F0000F3
:104E10000549096809B9012005E00449096809B98B
:104E2000022000E0002070474800002064000020BD
:104E30000149086870470000400000202DE9F0415A
:104E40004FF0000844480068002877D143480068C4
:104E5000451C4248056015BB41480068006808B918
:104E6000012000E0002050B900BF502080F31188DD
:104E7000BFF34F8FBFF36F8F00BF00BFFEE738480F
:104E80000768384800683649086036480760364881
:104E90000068401C34490860FEF7F6FE00BF334846
:104EA000006885423CD300BF2D480068006808B9FF
:104EB000012000E0002020B14FF0FF302B490860B6
:104EC0002DE027480068C068C4686668B54202D211
:104ED0002648066023E0201DFFF7DCF8A06A18B121
:104EE00004F11800FFF7D6F894F82C100120884040
:104EF0001F49096808431E490860E16A01EB810106
:104F00001C4A02EB8100211DFFF702F91A49E06AF1
:104F10000968C96A8842C7D34FF00108C4E700BFD7
:104F200015480068C06A00EB8000124951F8200063
:104F3000012801D94FF0010805E0FFE70F4800689C
:104F4000401C0E4908600E48006808B14FF0010887
:104F50004046BDE8F08100006400002040000020D1
:104F60003000002034000020540000205C000020AD
:104F700044000020200200202C0000204C000020D3
:104F80005000002070B505462C460026002D55D057
:104F90002B480068844201D1012000E0002050B974
:104FA00000BF502080F31188BFF34F8FBFF36F8F86
:104FB00000BF00BFFEE7E06C50B900BF502080F397
:104FC0001188BFF34F8FBFF36F8F00BF00BFFEE7A5
:104FD000E06C401EE064A16CE06A88422ED0E06C78
:104FE00060BB201DFFF756F878B9E06A00EB80003F
:104FF000144951F8200040B994F82C100120884041
:1050000011490968814310480160A06CE062E06AC0
:10501000C0F10500A06194F82C10012088400A49D5
:105020000968084308490860E16A01EB8101054A03
:1050300002EB8100211DFFF76BF80126304670BDA1
:105040002C000020200200204400002070B50646FD
:10505000F068C46854B900BF502080F31188BFF3D2
:105060004F8FBFF36F8F00BF00BFFEE704F1180042
:10507000FFF710F815480068A8B9201DFFF70AF8D7
:1050800094F82C1001208840114909680843104900
:105090000860E16A01EB81010E4A02EB8100211DEB
:1050A000FFF736F804E004F118010B48FFF730F879
:1050B0000A49E06A0968C96A884204D901250120C1
:1050C0000749086000E00025284670BD6400002004
:1050D0004400002020020020AC0200202C00002010
:1050E0005000002070B5002400263648006850B9F2
:1050F00000BF502080F31188BFF34F8FBFF36F8F35
:1051000000BF00BFFEE7FFF70FF82E480068401E03
:105110002C4908600846006800284FD12A480068DA
:1051200000284BD024E02948C068C46804F1180066
:10513000FEF7B0FF201DFEF7ADFF94F82C10012004
:10514000884023490968084321490860E16A01EB66
:105150008101204A02EB8100211DFEF7D9FF1E4983
:10516000E06A0968C96A884202D301201B490860C5
:105170001648006808B9012000E000200028D2D0BD
:105180000CB1FEF781FD1648056865B100BFFFF759
:1051900055FE10B10120114908606D1E002DF6D199
:1051A00000200F4908600D48006838B1012630071B
:1051B0000C490860BFF34F8FBFF36F8FFEF7DEFF20
:1051C000304670BD640000203C000020AC0200208E
:1051D00044000020200200202C000020500000206D
:1051E0004C00002004ED00E01CB50024FEF72CFA72
:1051F0000E48006858B10E48022100234FF4827215
:10520000CDE900100BA10D48FFF7CEFD044654B9BF
:1052100000BF502080F31188BFF34F8FBFF36F8F13
:1052200000BF00BFFEE720461CBD0000700000204C
:1052300074000020546D722053766300C93D00084D
:105240002DE9FE4304460D4616461F46DDF828802C
:105250004FF0000954B900BF502080F31188BFF30C
:105260004F8FBFF36F8F00BF00BFFEE71448006889
:1052700010B3009501960294062D15DAFFF7C8FDCC
:10528000022808D10023424669460D480068FFF70E
:105290003DFB814610E000231A4669460848006835
:1052A000FFF734FB814607E000233A46694604488D
:1052B0000068FFF7FFFB8146484600F003B8000096
:1052C0007000002006BCBDE8F883000010B500297E
:1052D0000AD00878002807D005487844FBF7C8FDB5
:1052E000002801D0002010BD0248784410BD000005
:1052F000160200000E0200000808A0F500114FEA97
:105300003101704743004FEAD30C4FEA3C0C434055
:105310001FBF40070CF1605113F0FE4F70471CF0A7
:10532000006F03D100200CF0004170470CF00043E7
:1053300043EA507010B540EACC0000F00EF800BF10
:10534000000000924FEA0001FFF7D6BF4FF0004186
:105350004FF00000A1F5002170470EF1020E2EF073
:10536000030E5EF8044B244204D44FEA4102B2F12A
:105370007F4F11D84FEA4003B3F17F4F0CD80ED1C5
:105380004FEAD07CB2F17F4F0CEB4C0C0CF1020CCD
:1053900008BF4CEBD17C04E04FF0080C01E04FEA71
:1053A000D17C0CEB4C0324FA03F404F00704B4F1B1
:1053B000040C06D20EEB840CBDE810404CF0010C3E
:1053C0006047DFE80CF0070802024FF00040A0F54C
:1053D000800010BD0846420018BFD2F1807288BF1D
:1053E00000F0004010BD4FF04070E1EE100A704731
:1053F000FBF771BA00000000000000000102030486
:10540000060708090000000001020304A08601004D
:10541000400D0300801A060000350C0040420F00CA
:1054200080841E0000093D0000127A000024F40070
:1054300000366E010048E801006CDC02024000000A
:10544000000000A00000000005400000000000C8AF
:10545000000000000C4000000000409C0000000024
:10546000194000000020BCBE0000000034400000D5
:10547000BFC91B8E00000004B5400000504BCFD0C8
:105480006607E2CF010000006C4100003E8251AA95
:10549000DFEEA73401000000D9420000DCB5A0E235
:1054A0003A301F97FFFFFFFFB4450000FD25A0C85D
:1054B000E9A3C14FFFFFFFFFFF3F00000000008096
:1054C00000000000FF3F000000000080000000001E
:1054D0000C55000800000020A0000000C4010008D6
:1054E000AC550008A0000020D0340100E001000805
:1054F0001C00000043000000F8FFFFFF0C0000004C
:105500000E0000000F0000002E0000000000000050
:10551000000000000000000000000000000000008B
:1055200000093D0000000000000000000000000035
:10553000000000000000000000000000000000006B
:10554000000000000000000000000000000000005B
:10555000000000000000000000000000000000004B
:10556000000000000000000000000000000000003B
:10557000000000000000000000000000000000002B
:10558000000000000000000000000000000000001B
:10559000000000000000000000000000000000000B
:0C55A000AAAAAAAA000000000000000057
:040000050800018965
:00000001FF
